:040000008231692AB6
:100008007E14803199315221803199315B218031C0
:1000180022008C110330FB008A30FA005630890B1D
:100028001328FA0B1328FB0B13284E2AF301F30AA3
:1000380001309E31922680310030F5009830F6006C
:100048009A311A228031F301F30A02309E31922646
:1000580080311130F5009830F6009A311A2280313B
:10006800913164218031FD007D0803193C283D2829
:100078004E2A61282200B301B30A712802302200F7
:10008800B30071282200B301FE3024008D00023035
:10009800FB000430FA00BA30890B5028FA0B5028BC
:1000A800FB0B5028003222008D100D118D110E30DF
:1000B80024008D002700960171287D08FA00FB01B5
:1000C8007B08003A0319692846287A08313A031947
:1000D8003E28033A03194228462899315B2180318A
:1000E8004E2A0230F30001309E31922680310230D0
:1000F800F5009830F6009A311A228031A228913101
:1001080064218031FD007D0803198B288C28A228E2
:100118007C08393E8600013087007D0881007C0814
:10012800073EF30002309E31922680312A309B31FF
:10013800632380310130FA007A08FC0704307C021E
:10014800031CA728A8288328FE3024008D0002302D
:10015800FB000430FA00BA30890BB028FA0BB0283B
:10016800FB0BB028003299315B2180313430993152
:10017800CB21803122008C153430F00039309B318E
:10018800B323803170087104031DCB28CC28F528CF
:100198000630F30001309E31922680319930F50007
:1001A8009830F6009A311A2280310530F300023077
:1001B8009E31922680318030F5009830F6009A31D1
:1001C8001A22803122000C118E123330FB00BB3012
:1001D800FA00E030890BEE28FA0BEE28FB0BEE282C
:1001E8001F290630F30001309E3192268031993064
:1001F800F5009830F6009A311A2280310530F30064
:1002080002309E31922680318930F5009830F60010
:100218009A311A22803122008C100E158E161A304F
:10022800FB005E30FA006E30890B1829FA0B18298A
:10023800FB0B18290032FC012200B30199315B2124
:10024800803122000C158C140E118E168D100D1194
:100258008D110E3024008D00270096014E2A0330A0
:10026800F30001309E31922680315C30F5009830E1
:10027800F6009A311A228031602991316421803147
:10028800FD007D08031949294A2960297C08393E5F
:100298008600013087007D0881007C08073EF30056
:1002A80002309E31922680312A309B31632380317F
:1002B8000130FA007A08FC0704307C02031C652927
:1002C80066294129FE3024008D000230FB000430ED
:1002D800FA00BA30890B6E29FA0B6E29FB0B6E29CE
:1002E800003299315B21803134309931CB21803112
:1002F8003430F00039309B31B323803170087104F9
:10030800031D87298829FF290330F30001309E3116
:10031800922680316930F5009830F6009A311A2219
:100328008031FC010E3024008D00B92991316421FF
:100338008031FD007D080319A229A329B9297C0869
:10034800393E8600013087007D0881007C08073E21
:10035800F30002309E31922680312A309B3163238C
:1003680080310130FA007A08FC0704307C02031C53
:10037800BE29BF299A29FE3024008D000230FB00D7
:100388000430FA00BA30890BC729FA0BC729FB0BCE
:10039800C729003299315B21803139309931E42104
:1003A80080310230F30001309E31922680313030A6
:1003B800F5009830F6009A311A2280310230F300A5
:1003C80002309E31922680314E30F5009830F6008A
:1003D8009A311A22803122008C150C111530FB003D
:1003E8004B30FA00BE30890BF729FA0BF729FB0BC3
:1003F800F7290032282A0630F30001309E31922670
:1004080080311B30F5009830F6009A311A2280317D
:100418000430F30002309E31922680317530F500A9
:100428009830F6009A311A22803122008C150E1568
:100438008C101030FB003930FA000E30890B222A5C
:10044800FA0B222AFB0B222AFC012200B301993164
:100458005B21803122008D100D118D110E3024008A
:100468008D0022008C140C150E113029220033083F
:10047800FA00FB017B08003A0319432A4E2A7A083E
:10048800003A03191A28013A03197528033A03197F
:1004980033294E2A27001608031D532A542A3A2ABC
:1004A80022008C1599315B2180310230F300013034
:1004B8009E31922680312130F5009830F6009A312D
:1004C8001A2280310B107E10090082316B2AFC0140
:1004D800FD012100ED01EE01EF0120308400013023
:1004E8008500203099313D218231A03084000130CF
:1004F8008500143099313D2182312030840002304A
:100508008500503099313D2182317E1020008431A0
:10051800C82C20002C088039B6002C35BC00AB1F35
:10052800962A972A982A3C143C0803199C2A9D2A43
:10053800AC2A3C0A031DA12AA22AAA2A0030AC0030
:100548000030AB000030AA000030A900AB17B42A75
:100558000030AC000030AB000030AA000030A90029
:1005680030088039B1003108B6063035BB00AF1FFE
:10057800BE2ABF2AC02A3B143B080319C42AC52A2D
:10058800D42A3B0A031DC92ACA2AD22A0030B0003D
:100598000030AF000030AE000030AD00AF17DC2AED
:1005A8000030B0000030AF000030AE000030AD00C9
:1005B8003B080319E02AE12AE62A3C08031DE52A3C
:1005C800E62AEF2A0030AC000030AB000030AA0069
:1005D8000030A900C72C2908A0002F089B311A2336
:1005E800823120002108C2002008C1004108B10062
:1005F800B201B301B4013408BA003308B9003208B3
:10060800B8003108B7004208B100B201B301B40123
:100618003408C0003308BF003208BE003108BD00EE
:100628002A08A0002E089B311A23823120002108B5
:10063800C2002008C1004108B100B201B301B401F1
:100648003108B7073208B83D3308B93D3408BA3D18
:100658004208B100B201B301B4013108BD07320844
:10066800BE3D3308BF3D3408C03D2B08A0002D080F
:100678009B311A23823120002108C2002008C100C2
:100688004108B100B201B301B4013108B70732081B
:10069800B83D3308B93D3408BA3D4208B100B2014B
:1006A800B301B4013108BD073208BE3D3308BF3D70
:1006B8003408C03D0830B735B80DB90DBA0D890BEF
:1006C8005F2B2A08A0002D089B311A2382312000B5
:1006D8002108C2002008C1004108B7074208B83DF8
:1006E8000030B93DBA3D2908A0002E089B311A23D5
:1006F800823120002108C2002008C1004108B70744
:100708004208B83D0030B93DBA3D0830B735B80D9C
:10071800B90DBA0D890B8A2B2908A0002D089B3129
:100728001A23823120002108C2002008C100410894
:10073800B7074208B83D0030B93DBA3D2A08A000C5
:100748002F089B311A23823120002108C20020087B
:10075800C1004108BD074208BE3D0030BF3DC03D55
:100768002B08A0002E089B311A2382312000210873
:10077800C2002008C1004108BD074208BE3D003044
:10078800BF3DC03D2B08A0002F089B311A238231A2
:1007980020002108C2002008C1004108B100420819
:1007A800B200B301B4010830B135B20DB30DB40DC8
:1007B800890BD82B3108BD073208BE3D3308BF3D31
:1007C8003408C03D3708B1003808B2003908B30012
:1007D8003A08B4001830B436B30CB20CB10C890B1B
:1007E800EF2B3108BD073208BE3D3308BF3D340842
:1007F800C03D0830B735B80DB90DBA0D890BFE2BC1
:100808003C083B07B100B201B20D3108823EC1007D
:10081800FF30323DC200272C0130BD35BE0DBF0D63
:10082800C00D890B112CBA1F1A2C1B2C1C2C3D1423
:100838000130B735B80DB90DBA0D890B1D2CFF3035
:10084800C107FF30C23DBF1F2A2C2B2C102CBB0127
:10085800BA1F2F2C302C4C2CFF303705B100FF303D
:100868003805B200FF303905B3007F303A05B400CF
:1008780034083304320431040319432C442C472C24
:10088800BB01BB0A4C2C3D1C4A2C4B2C4C2C442C39
:100898003B080319502C512C792C0130BD0700302E
:1008A800BE3D0030BF3D0030C03D401C5C2C5D2C7F
:1008B800792C3D08B1003E08B2003F08B30040085B
:1008C800B4000130B500B437B30CB20CB10CB50BA1
:1008D800672C3408C0003308BF003208BE00310856
:1008E800BD000130C1070030C23D4208803AB10066
:1008F80080303102031D822CFF304102031C852CFD
:10090800862C902C7F302000C0008030BF00003043
:10091800BE000030BD00BB2C20004208803AB10068
:1009280080303102031D9A2C0130410203189D2C9E
:100938009E2CA92C00302000C0000030BF000030E1
:10094800BE000030BD00B601BB2C20004108BC0031
:10095800FF30BD05FF30BE057F30BF050030C00544
:100968003C1CB72CB82CB92CBF173C36C000360835
:10097800B1003108C0044008AC003F08AB003E0895
:10098800AA003D08A900080023008D0121008C1051
:100998000C118C110E118E128E150E1622008C144D
:1009A8000C158C150E118E16210095130E3024008F
:1009B8008D0021008D1022008D1021000D112200C4
:1009C8000D1121008D1122008D118B178B118B15A4
:1009D800F0302700950096012400951695151511FD
:1009E800951015104F30920099314A2184319C316D
:1009F8006224843199316D21843102302200CE0085
:100A08000430CD00BA30890B072DCD0B072DCE0B46
:100A1800072D0000240016141618132D142D102D60
:100A2800D03091001418192D1A2D162D14191D2DBA
:100A38001E2D1A2D91011418222D232D1F2D141946
:100A4800262D272D232D910114182B2D2C2D282DE3
:100A580014192F2D302D2C2D91011418342D352DCE
:100A6800312D1419382D392D352D153091001418C4
:100A78003E2D3F2D3B2D1419422D432D3F2D16158C
:100A88001619472D482D442D02302000A3000130AF
:100A98009F310727843121302000A5009830A60017
:100AA8009A315522843102302200CE000430CD0024
:100AB800BA30890B5D2DCD0B5D2DCE0B5D2D000061
:100AC800240016141618692D6A2D662DD030910051
:100AD80014186F2D702D6C2D1419732D742D702D05
:100AE80091011418782D792D752D14197C2D7D2DD3
:100AF800792D96149618812D822D7E2DD130910056
:100B08001418872D882D842D14198B2D8C2D882D44
:100B18009615141C902D912D8D2D11082100EF0094
:100B2800240096121616161A9A2D9B2D972D961597
:100B3800141C9F2DA02D9C2D11082200B20024000A
:100B480096121616161AA92DAA2DA62D9615141C3E
:100B5800AE2DAF2DAB2D11082200B1002400961642
:100B68001616161AB82DB92DB52D16151619BD2D30
:100B7800BE2DBA2D8731FC27843199314321843128
:100B8800003A0319C82DC92DC12D9931642184312A
:100B9800200021082200BF00200020082200BE00FB
:100BA80044302000B7008030B6000030B500003077
:100BB800B400F430A2000130A30022003F08200056
:100BC800A10022003E082000A0009A31B4228431FE
:100BD800200020082200CD00200021082200CE009D
:100BE800CF01D00150082000A90022004F082000A2
:100BF800A80022004E082000A70022004D0820006F
:100C0800A60000309031B920843120002908BB00AB
:100C18002808BA002708B9002608B80094314E24DD
:100C28008431200037082200AB002000360822005B
:100C3800AA00200035082200A9002000340822005C
:100C4800A8003F302100DE009830DF002200310884
:100C5800CD000430CD36890B2E2E4D08CE00CF01A5
:100C68004E082100E00022004F082100E1000F306B
:100C78002200D0005008B1053108D100D201510836
:100C88002100E200220052082100E300220032087D
:100C9800D3000430D336890B4E2E5308D400D50127
:100CA80054082100E400220055082100E5000F3017
:100CB8002200D6005608B2053208D700D8015708D6
:100CC8002100E600220058082100E7006F082200F2
:100CD800D9000430D936890B6E2E5908DA00DB01A9
:100CE8005A082100E80022005B082100E9000F30C3
:100CF8002200DC005C082100EF056F082200DD00FF
:100D0800DE015D082100EA0022005E082100EB00F8
:100D1800A0309A31F72284312000A301A30A0230BF
:100D28009F3107278431A0302000A5000130A6009C
:100D38009A31552284310A302000A30002309F31B5
:100D48000727843192302100DE009830DF0022002E
:100D58002B082100E30022002A082100E2002200DB
:100D680029082100E100220028082100E000A03025
:100D78009A31F7228431A0302000A5000130A60066
:100D88009A315522843110302000A30002309F315F
:100D980007278431A8302000A5009830A6009A3192
:100DA8005522843106302200CE001330CD00AD30FC
:100DB800890BDC2ECD0BDC2ECE0BDC2E0032642D05
:100DC8008231692A220023082000E100220022083B
:100DD8002000E000220021082000DF002200200877
:100DE8002000DE005108E1005008E0004F08DF0055
:100DF8004E08DE005E08D2005F08D3006008D40009
:100E08006108D5001730D536D40CD30CD20C890B19
:100E1800072FFF305205D60000305305D70056087B
:100E2800813EDC00FF30573DDD005D08803AD2008E
:100E380080305202031D222F17305C02031C252F1D
:100E4800262F272FD02F2000DD1B2B2F2C2F892F6B
:100E5800FF30D200FF30D3007F30D4000030D500FF
:100E68005C0A3A2FD537D40CD30CD20C890B362F09
:100E78005508DB005408DA005308D9005208D80096
:100E88005E085805D2005F085905D30060085A0566
:100E9800D40061085B05D500550854045304520476
:100EA800031D572F582F592F262F5E08D2005F0891
:100EB800D3006008D4006108D5001F30D536D40CA3
:100EC800D30CD20C890B622F5508540453045204D6
:100ED80003196F2F702F782F5808DE075908DF3D48
:100EE8005A08E03D5B08E13D5809D2005909D30092
:100EF8005A09D4005B09D5005208DE055308DF05FE
:100F08005408E0055508E105C82F5E08D2005F08BF
:100F1800D3006008D4006108D5001F30D536D40C42
:100F2800D30CD20C890B922F550854045304520445
:100F3800031D9F2FA02FA92F0030E1000030E000F3
:100F48000030DF000030DE00C82F5E08D2005F08E6
:100F5800D3006008D4006108D5000130D235D30D24
:100F6800D40DD50D890BB22F5508540453045204DF
:100F78000319BF2FC02FC82FBF30E1008030E00019
:100F88000030DF000030DE006108D1006008D000CA
:100F98005F08CF005E08CE0008002000A4002408E7
:100FA8000F39A2002408F039A30022008E14200073
:100FB8002308A1000430A136890BDF2F21089031C6
:100FC8000420873122000E140D30890BE92F000010
:100FD80022000E10200022089031042087312200C0
:100FE8000E140D30890BF62F000022000E10080099
:100FF80021009D14080008002000A20022008E1085
:101008002000220890310420883122000E14063076
:101018002000A1003030890B0F28A10B0F280000F9
:1010280022000E1008002000BB00B71B1C281E2839
:1010380001301F280030C0002100EE1B242825287D
:101048002B28FD302000B80038082200B005210008
:10105800EE1F2F283028362801302000BC00003031
:10106800BD003D286E082000BD0021006D0820004D
:10107800BC0022002D082000BF0022002C08200000
:10108800BE004008031949284A285E28FF30BE07D9
:10109800FF30BF3D4008031D5228532858282B30E5
:1010A800B9000030BA005C282D30B9000030BA0011
:1010B8003908C0004F30C1000030C2002400EF01E1
:1010C8009E28FF302000C107FF30C23D4108203E66
:1010D8008600023087000A30A0000030A1003708DF
:1010E800A3003608A2009C31B324883120002108CF
:1010F800A8002008A70099318F21883120002708EF
:10110800303E8100FF30BC07FF30BD3DFF30BE07D9
:10111800FF30BF3D0A30A0000030A1003708A3000F
:101128003608A2009D316025883120002108B700CB
:101138002008B60020004208803AB8008030380203
:10114800031DA82801304102031CAB28AC28D32872
:10115800200036083704031DB228B32865283D0847
:10116800803AB80080303802031DBC2801303C02A8
:101178000318BF28C028652820003F08803AB80017
:1011880080303802031DCA2801303E02031CCD28D6
:10119800CE28D3282200B018D228D32865282000CA
:1011A80040080319D828D928E428FF30C107FF30A0
:1011B800C23D4108203E8600023087004008810079
:1011C8004108203EAF003F08B1003E08B0003B0890
:1011D8009B31E323883108002100AF00C2012000C1
:1011E80065082100C600200064082100C500200011
:1011F80063082100C400200062082100C3004608DB
:101208002000C600210045082000C5002100440830
:101218002000C400210043082000C3000030CA0099
:101228000030C9000030C8000030C70090312E20BF
:10123800883103182029212946292100C201C20A20
:1012480046082000A300210045082000A200210034
:1012580044082000A100210043082000A000993183
:1012680076218831200023082100C60020002208AA
:101278002100C500200021082100C400200020080A
:101288002100C3002100C701C80122002D08210048
:10129800B30022002C082100B20042080319552986
:1012A800562966294208031D5A295B2960292B30D3
:1012B800A6000030A70064292D30A6000030A70042
:1012C8002608C20046082000A30021004508200087
:1012D800A200210044082000A100210043082000AA
:1012E800A0009F3181278831200020032104031D9D
:1012F8007E297F29B22921004208031984298529DA
:10130800912942082400A000FF302100B207FF30D5
:10131800B33D0130C7000030C800A0302000A00055
:101328009830A10021004708203E9931FE218831DC
:10133800FD302100B207FF30B33D20302000AF0060
:10134800210033082000B100210032082000B0003D
:1013580021002F089B31E3238831FF2F2100460805
:101368002000A300210045082000A2002100440815
:101378002000A100210043082000A0009F31812700
:101388008831200020082104031DCB29CC29FF29FE
:10139800210042080319D129D229DE294208240054
:1013A800A000FF302100B207FF30B33D0130C70075
:1013B8000030C800A4302000A0009830A10021000F
:1013C8004708203E9931FE218831FD302100B207BF
:1013D800FF30B33D20302000AF002100330820004B
:1013E800B100210032082000B00021002F089B31F5
:1013F800E3238831FF2F3F302100CC008030CB0021
:101408000030CA000030C900B001B1014608200010
:10141800A300210045082000A20021004408200064
:10142800A100210043082000A0000030A7000030E0
:10143800A6000030A5000030A4009C311324883198
:101448000318272A282A7C2B362A21003708CC00A3
:101458003608CB003508CA003408C9000130B00787
:101468000030B13D41302000AC002030AB000030EE
:10147800AA000030A90021004C082000B00021007B
:101488004B082000AF0021004A082000AE002100D0
:1014980049082000AD0082318D22883120002C08B7
:1014A8002100B70020002B082100B60020002A08E0
:1014B8002100B500200029082100B40034084302A7
:1014C8002000E70021003508443B2000E800210007
:1014D8003608453B2000E90021003708463B20003C
:1014E800EA006A08A3006908A2006808A100670862
:1014F800A0009931B52188312000A31B912A230827
:10150800031D922A2208031D922A2108031D922AEC
:1015180002302002031C912A922A292A2100370826
:101528002000C600210036082000C500210035082B
:101538002000C400210034082000C3002100460810
:101548002000CA00210045082000C90021004408E5
:101558002000C800210043082000C70090312E2039
:101568008831031CB82AB92A292A210049084302CC
:101578002000E70021004A08443B2000E800210041
:101588004B08453B2000E90021004C08463B200061
:10159800EA006A08A3006908A2006808A1006708B1
:1015A800A0009931B52188312000A31BEA2A23081D
:1015B800031DE92A2208031DE92A2108031DE92A37
:1015C800023020020318E92AEA2A552B21004C0888
:1015D800C6004B08C5004A08C4004908C3007C2B54
:1015E80041302000B7002030B6000030B500003090
:1015F800B40021004C082000BB0021004B0820004B
:10160800BA0021004A082000B9002100490820003A
:10161800B80094314E248831200037082100CC00CE
:10162800200036082100CB00200035082100CA0020
:10163800200034082100C900FF30B007FF30B13D59
:10164800490843022000E70021004A08443B2000E3
:10165800E80021004B08453B2000E90021004C0828
:10166800463B2000EA006A08A3006908A20068084F
:10167800A1006708A0009931B52188312000A31B7B
:10168800542B2308031D532B2208031D532B210819
:10169800031D532B023020020318532B542B552BB8
:1016A800EA2A210046082000C6002100450820003B
:1016B800C500210044082000C40021004308200080
:1016C800C30021004C082000CA0021004B0820005C
:1016D800C90021004A082000C8002100490820004C
:1016E800C70090312E208831031C7B2B7C2BF42AD9
:1016F800200066082100A9002908AA00EE1B852BF6
:10170800862B8B2B6E08A3006D08A2008F2B06304A
:10171800A2000030A3002308AE002208AD0001306B
:10172800AD070030AE3D66302A06031D9C2B9D2B6D
:10173800B52BB11FA02BA12BAB2B3F30CC00803099
:10174800CB000030CA000030C900B001B1016730D9
:1017580029060319B02BB12BB52B3008AD0731087A
:10176800AE3DC001C1014608BB004508BA004408A7
:10177800B9004308B8004C08B7004B08B6004A083F
:10178800B5004908B4009F2C21004C082000B70080
:1017980021004B082000B60021004A082000B500AF
:1017A800210049082000B40021003B082000BB00AC
:1017B80021003A082000BA00210039082000B900A9
:1017C800210038082000B80094314E2488312000C8
:1017D8003708D1003608D0003508CF003408CE00CD
:1017E8008631E6268831200051082100BF002000FC
:1017F80050082100BE0020004F082100BD00200035
:101808004E082100BC003F082000A30021003E082C
:101818002000A20021003D082000A10021003C0872
:101828002000A0009E3121268831200021082100B7
:10183800AC00200020082100AB004C082000B000BC
:1018480021004B082000AF0021004A082000AE000C
:10185800210049082000AD0021003F082000AC000D
:1018680021003E082000AB0021003D082000AA000E
:1018780021003C082000A90082318D2288312000F7
:101888002C08C6002B08C5002A08C4002908C30074
:1018980021003B082000CA0021003A082000C900A6
:1018A800210039082000C800210038082000C7009E
:1018B8009A3194228831200046082100BB0020007C
:1018C80045082100BA00200044082100B900200082
:1018D80043082100B80041302000B7002030B6008E
:1018E8000030B5000030B40021004C082000BB00D7
:1018F80021004B082000BA0021004A082000B90046
:10190800210049082000B80094314E248831200075
:1019180037082100CC00200036082100CB00200029
:1019280035082100CA00200034082100C900013010
:10193800C0070030C13D4108803A2000E70021007F
:101948002E08803A20006702031DAD2C21002D08C7
:101958004002031CB02CB12CC82B40302000AC0036
:10196800A030AB000030AA000030A90021004C08CC
:101978002000B00021004B082000AF0021004A08D9
:101988002000AE00210049082000AD0082318D22E0
:10199800883120002C082100BF0020002B082100DE
:1019A800BE0020002A082100BD00200029082100CF
:1019B800BC003B082000C60021003A082000C500F2
:1019C800210039082000C400210038082000C30085
:1019D80021003F082000CA0021003E082000C9005D
:1019E80021003D082000C80021003C082000C70055
:1019F80090312E2088310318022D032D0D2D003033
:101A08002100BF000030BE000030BD000030BC0027
:101A1800412D21003B082000A30021003A082000A6
:101A2800A200210039082000A10021003808200068
:101A3800A00021003F082000A70021003E08200048
:101A4800A60021003D082000A50021003C08200038
:101A5800A4009C3113248831031C332D342D412DCF
:101A680021002B18382D392D412D0030BF000030B2
:101A7800BE000030BD000030BC0021003F0820003F
:101A8800A30021003E082000A20021003D082000FC
:101A9800A10021003C082000A000210046082000E9
:101AA800A700210045082000A600210044082000C6
:101AB800A500210043082000A4009531F8258831AD
:101AC800200023082100BB00200022082100BA00C2
:101AD800200021082100B900200020082100B800BA
:101AE8003B082000C60021003A082000C50021005C
:101AF80039082000C400210038082000C300413004
:101B0800AC002030AB000030AA000030A900210052
:101B180037082000B000210036082000AF0021005F
:101B280035082000AE00210034082000AD008231C5
:101B38008D22883120002C08CA002B08C9002A08E9
:101B4800C8002908C70090312E208831031CAD2D0C
:101B5800AE2DE92D01302100B0070030B13D4130F4
:101B68002000AC002030AB000030AA000030A900F3
:101B7800210037082000B000210036082000AF00FF
:101B8800210035082000AE00210034082000AD00F7
:101B980082318D22883120002C082100B7002000D6
:101BA8002B082100B60020002A082100B5002000DB
:101BB80029082100B40066302A06031DE42DE52D0E
:101BC800E92D0130AD070030AE3D21003708CC00CB
:101BD8003608CB003508CA003408C9003108A1000E
:101BE8003008A000A801A401A501C001C101422F2D
:101BF80021004C082000B70021004B082000B60047
:101C080021004A082000B500210049082000B4003E
:101C180021003B082000BB0021003A082000BA0040
:101C2800210039082000B900210038082000B80038
:101C380094314E24883120003708D1003608D0006E
:101C48003508CF003408CE008631E62688312000DA
:101C580051082100BF00200050082100BE002000CC
:101C68004F082100BD0020004E082100BC003F089D
:101C78002000A30021003E082000A20021003D080A
:101C88002000A10021003C082000A0009E31212650
:101C9800883120002108803AE70080306702031D60
:101CA800572E0A30200203185A2E5B2E772E210059
:101CB8003F082000A30021003E082000A2002100C8
:101CC8003D082000A10021003C082000A0009E3112
:101CD80021268831200021082100AC00200020089E
:101CE8002100AB007C2E09302100AB000030AC0095
:101CF8002808031D802E812EAA2EA11F842E852E32
:101D0800AA2E4708203E8600023087002E30810028
:101D18000130C7070030C83DFF30B207FF30B33D80
:101D2800A801A80AAA2E4708203E8600023087008C
:101D3800303081000130C7070030C83DFF30B2079E
:101D4800FF30B33DFF30A407FF30A53D240825042C
:101D5800031DAF2EB02E972E4708203E8600023076
:101D680087002B08303E81000130C7070030C83D8E
:101D7800FF30B207FF30B33D4C082000B00021000F
:101D88004B082000AF0021004A082000AE002100C7
:101D980049082000AD0021003F082000AC002100C8
:101DA8003E082000AB0021003D082000AA002100C9
:101DB8003C082000A90082318D22883120002C089F
:101DC800C6002B08C5002A08C4002908C300210042
:101DD8003B082000CA0021003A082000C900210061
:101DE80039082000C800210038082000C7009A31AF
:101DF80094228831200046082100BB0020004508B5
:101E08002100BA00200044082100B900200043083E
:101E18002100B80041302000B7002030B600003063
:101E2800B5000030B40021004C082000BB002100A0
:101E38004B082000BA0021004A082000B900210000
:101E480049082000B80094314E2488312000370812
:101E58002100CC00200036082100CB0020003508E6
:101E68002100CA00200034082100C900FF30A00763
:101E7800FF30A13D0130C0070030C13D4108803A24
:101E88002000E70021002E08803A20006702031D89
:101E9800502F21002D0840020318532F542F642F70
:101EA80021004808803A2000E70080306702031DBF
:101EB800602F4B3021004702031C632F642FFC2D39
:101EC8004F302100C0000030C1004008203E86008D
:101ED80002308700810120302000A000210048083E
:101EE8002000A200210047082000A1002030E700C0
:101EF8002100470820006702210040079B318B23FF
:101F08008831210047084002C7004808413BC80003
:101F18004208031D902F922F0130932F003020008C
:101F2800E700E80167082100C000200068082100D8
:101F3800C1002200B01CA12FA22FD92FB32FFF3030
:101F48002100C707FF30C83D4708203E8600023001
:101F5800870030308100FF30B207FF30B33D2100E9
:101F68004108803A2000E70021003308803A200029
:101F78006702031DC22F2100320840020318C52F33
:101F8800C62FD92F21004108803A2000E700210000
:101F98004808803A20006702031DD52F2100470812
:101FA8004002031CD82FD92FA32F21004208031960
:101FB800DE2FDF2FEA2FFF30C707FF30C83D470865
:101FC800203E860002308700420881004008B202A5
:101FD8004108B33B4708203E2000AF0021003308EA
:101FE8002000B100210032082000B00021002F0895
:081FF8009B31E323883108004E
:102008002000A000201C09280A280D2822000F16ED
:102018000F2822000F122000A01C132814281728AC
:1020280022008F16192822008F122000201D1D283B
:102038001E28212822000F17232822000F13200012
:10204800A01D272828282B2822008F172D2822009A
:102058008F130800003020004305CB0000304405F2
:10206800CC0080304505CD007F304605CE004E08B7
:102078004D044C044B04031D422843284B280030D0
:10208800C6000030C5000030C4000030C300003076
:102098004705CB0000304805CC0080304905CD000D
:1020A8007F304A05CE004E084D044C044B04031DF6
:1020B8005E285F2867280030CA000030C900003059
:1020C800C8000030C700C61F6A286B288328003064
:1020D800CB000030CC000030CD008030CE0043086B
:1020E800CB024408CC3B4508CD3B4608CE3B4E08C6
:1020F800C6004D08C5004C08C4004B08C300CA1FE1
:10210800862887289F280030CB000030CC0000307C
:10211800CD008030CE004708CB024808CC3B4908A8
:10212800CD3B4A08CE3B4E08CA004D08C9004C08B2
:10213800C8004B08C7008030C6068030CA064A0867
:102148004602031DB12849084502031DB128480865
:102158004402031DB128470843020318B428B528D0
:10216800B7280310B828031408002000AE002E0872
:102178000319BF28C028D428A91FC328C428D428D5
:102188002609B0002709B1002809B2002909B300BF
:10219800B00A0319B10A0319B20A0319B30ADC28F1
:1021A8002908B3002808B2002708B1002608B000A3
:1021B8002908280427042604031DE328E428ED2819
:1021C8000030A9000030A8000030A7000030A600A9
:1021D80063299630AF00FB280130AA002A08AF0710
:1021E8000130B336B20CB10CB00C890BF528FE30B7
:1021F8003305031D00290129F02815290130AA00FB
:102208002A08AF070130B0070030B13D0030B23DB9
:102218000030B33D0130B336B20CB10CB00C890BB1
:102228000F29FF303305031D1A291B2902292529E7
:102238000130AF020130B035B10DB20DB30D890BCD
:102248001F29B21B282929292F2902302F020318F8
:102258002E292F291C292F18322933293B29FF30F1
:10226800B005FF30B1057F30B205FF30B30503106C
:10227800AF0C2F08AA00AB01AC01AD011830AA358C
:10228800AB0DAC0DAD0D890B43292A08B0042B0802
:10229800B1042C08B2042D08B3042E0803195529DB
:1022A80056295B29A91F59295A295B29B3173308CD
:1022B800A9003208A8003108A7003008A6000800C5
:1022C80020008D140D118D110D1E6B296C2982298A
:1022D8000330F0009830890B6F29F00B6F2920002C
:1022E8000D1A7729782973290730F0007D30890B7A
:1022F8007B29F00B7B2900003130A72A8D1E852908
:1023080086299C290330F0009830890B8929F00B25
:10231800892920008D1A912992298D290730F000EA
:102328007D30890B9529F00B952900003430A72AB8
:102338000D1F9F29A029B6290330F0009830890B7A
:10234800A329F00BA32920000D1BAB29AC29A72931
:102358000730F0007D30890BAF29F00BAF29000062
:102368003730A72A8D1FB929BA29D0290330F000A0
:102378009830890BBD29F00BBD2920008D1BC5297C
:10238800C629C1290730F0007D30890BC929F00B17
:10239800C92900002A30A72A8D100D158D110D1E90
:1023A800D629D729ED290330F0009830890BDA298E
:1023B800F00BDA2920000D1AE229E329DE2907307B
:1023C800F0007D30890BE629F00BE6290000323059
:1023D800A72A8D1EF029F129072A0330F00098302A
:1023E800890BF429F00BF42920008D1AFC29FD290A
:1023F800F8290730F0007D30890B002AF00B002AFD
:1024080000003530A72A0D1F0A2A0B2A212A03307B
:10241800F0009830890B0E2AF00B0E2A20000D1BB5
:10242800162A172A122A0730F0007D30890B1A2A3B
:10243800F00B1A2A00003830A72A8D1F242A252AD3
:102448003B2A0330F0009830890B282AF00B282A01
:1024580020008D1B302A312A2C2A0730F0007D30CD
:10246800890B342AF00B342A00003030A72A8D104B
:102478000D118D150D1E412A422A582A0330F000ED
:102488009830890B452AF00B452A20000D1A4D2A51
:102498004E2A492A0730F0007D30890B512AF00B6B
:1024A800512A00003330A72A8D1E5B2A5C2A722A23
:1024B8000330F0009830890B5F2AF00B5F2A200068
:1024C8008D1A672A682A632A0730F0007D30890B45
:1024D8006B2AF00B6B2A00003630A72A0D1F752ACD
:1024E800762A8C2A0330F0009830890B792AF00B71
:1024F800792A20000D1B812A822A7D2A0730F000C4
:102508007D30890B852AF00B852A00003930A72AEF
:102518008D1F8F2A902AA62A0330F0009830890B45
:10252800932AF00B932A20008D1B9B2A9C2A972A1A
:102538000730F0007D30890B9F2AF00B9F2A00009E
:102548002330A72A003008002100D70020006B089C
:1025580086008701403F2100CD00413FCE004D0855
:1025680084004E0885001200253A031DBC2ABD2AA6
:102578002E2C20006B08860087010130810741312D
:102588000318810A2200AC01AD01031000300318C2
:102598000130B000FF302100ED00FF30EE00D10126
:1025A800FE2A2200B01420006B0886008701013043
:1025B800810741310318810AFE2AD101D10AFE2A76
:1025C80020006B0886008701403F2100CD00413F75
:1025D800CE004D0884004E0885000008CF00D001C9
:1025E8005008003A0319F92AE12A4F08303A03192A
:1025F800D52AE12A210051080319032B042BE42AC8
:1026080020006B0886008701403F2100CD00413F34
:10261800CE004D0884004E08850012002E3A031D96
:10262800162B172B2E2B20006B08860087010130F4
:10263800810741310318810A6C08A6006B089D3197
:10264800C0259231200027082100EE00200026082E
:102658002100ED0020006B0886008701403F210023
:10266800D800413FD9005808840059088500120055
:10267800643A0319402B412B4B2B58088400590806
:1026880085001200693A031D4A2B4B2B762B20003C
:102698006C0886000130870001088400850102303B
:1026A8008107003F2100D200013FD3005808013EB6
:1026B800CD000030593DCE0020006B088600870110
:1026C80021004D08C03F4E08C13F53082000B70005
:1026D800210052082000B600210057088831172031
:1026E80092314D2C20006B0886008701403F210065
:1026F800D800413FD90058088400590885000008CF
:10270800D600902B0130D8070030D93DA32B6C3070
:10271800D600A32BD601A32B5608CD00CE014E0818
:10272800003A0319982B8E2B4D084C3A0319862B27
:102738002A3A03198B2B0A3A0319862B8E2B580831
:102748008400590885001200663A031DAC2BAD2B96
:10275800242CD62B20006C08860001308700010845
:102768008400850104308107003F2100D200013F29
:10277800D300023FD400033FD500E62B20006C08AD
:102788008600013087000108840085010430810734
:10279800003F2100D200013FD300023FD400033F95
:1027A800D500E62B5608CD00CE014E08003A031995
:1027B800DE2BE62B4D084C3A0319C22B203A03199D
:1027C800AE2BE62B5808013ECD000030593DCE0017
:1027D80020006B088600870121004D08C03F4E0885
:1027E800C13F132C55082000E500210054082000A3
:1027F800E400210053082000E300210052082000D3
:10280800E2002100580884005908850000082000CB
:10281800E600210057088831F02092314D2C5808E5
:102828008400590885000008CD00CE014E08003A02
:1028380003191F2C242C4D08663A0319F62B242C57
:1028480020006B0886008701013081074131031899
:10285800810A4D2C20006B0886008701403F21002B
:10286800CD00413FCE004D0884004E088500000889
:10287800CF00D0014F082000A00021005008200000
:10288800A100210057082000A2009D3107259231A0
:10289800242C080020003B088039C5003B35CC00BB
:1028A800BA1F572C582C592C4C144C0803195D2C62
:1028B8005E2C6E2C4C0A031D622C632C6B2C003092
:1028C800BB000030BA000030B9000030B800BA17B9
:1028D800BB01762C0030BB000030BA000030B900D4
:1028E8000030B80037088039BC003C08C5063735C9
:1028F800CD00B61F802C812C822C4D144D08031955
:10290800862C872C972C4D0A031D8B2C8C2C942CF1
:102918000030B7000030B6000030B5000030B40019
:10292800B617B7019F2C0030B7000030B600003052
:10293800B5000030B4003708360435043404031DEC
:10294800A62CA72CC02C0030BB000030BA000030E9
:10295800B9000030B8008030BA047F30BB044508A5
:10296800BC003C08BB043B08B7003A08B60039086D
:10297800B5003808B400F72D4C08031DC42CC52C2D
:10298800CE2C0030B7000030B6000030B500003063
:10299800B400F72D4C08BC00BD013D08BF004D0830
:1029A8003C02BE00031CBF033E087F3EC600003049
:1029B8003F3DC7003B08C4003A08C3003908C200BD
:1029C8003808C1000030BB000030BA000030B90040
:1029D8000030B8000030CB000030CA000030C90019
:1029E8000030C800CD01362D4D080319FC2CFD2CF4
:1029F800172D0130C135C20DC30DC40D890BFE2C36
:102A08000130B835B90DBA0DBB0D890B052DCB1F9B
:102A18000E2D0F2D102D38140130C835C90DCA0DD3
:102A2800CB0D890B112D37084402031D252D3608BF
:102A38004302031D252D35084202031D252D3408A8
:102A48004102031C282D292D322D4B173408C102B1
:102A58003508C23B3608C33B3708C43B0130BC00CD
:102A68003C08CD071A304D02031C3B2D3C2DF82C99
:102A780044084304420441040319432D442D5D2DA9
:102A880048145D2D0130B835B90DBA0DBB0D890B51
:102A9800472DCB1F502D512D522D38140130C835DC
:102AA800C90DCA0DCB0D890B532DFF30C607FF305A
:102AB800C73DBA1F602D612D462DCD01CB1F652D59
:102AC800662D822DFF304805BC00FF304905BD004A
:102AD800FF304A05BE007F304B05BF003F083E046B
:102AE8003D043C040319792D7A2D7D2DCD01CD0AA5
:102AF800822D381C802D812D822D7A2D4D080319A9
:102B0800862D872DAF2D0130B8070030B93D003034
:102B1800BA3D0030BB3D3B1C922D932DAF2D38089C
:102B2800BC003908BD003A08BE003B08BF000130B0
:102B3800C000BF37BE0CBD0CBC0CC00B9D2D3F08A0
:102B4800BB003E08BA003D08B9003C08B800013097
:102B5800C6070030C73D4708803ABC0080303C02B9
:102B6800031DB82DFF304602031CBB2DBC2DC92DFB
:102B7800FF302000C6000030C7000030BB00003026
:102B8800BA000030B9000030B80020004708803A89
:102B9800BC0080303C02031DD32D013046020318CF
:102BA800D62DD72DE32D2000C601C7010030BB006C
:102BB8000030BA000030B9000030B800C50120006C
:102BC8004608CC004C1CE92DEA2DEC2DBA17F02D47
:102BD8007F30BC003C08BA054C36BB004508BC0039
:102BE8003C08BB04B72C0800200023088039B0003B
:102BF8002335B200A21F012E022E032E32143208F2
:102C08000319072E082E182E320A031D0C2E0D2E1E
:102C1800152E0030A3000030A2000030A1000030C3
:102C2800A000A217A301202E0030A3000030A200AC
:102C38000030A1000030A00027088039B100310819
:102C480030060319282E292E2A2E30172735B100D1
:102C5800A61F2F2E302E312E311431080319352E90
:102C6800362E462E310A031D3A2E3B2E432E0030B7
:102C7800A7000030A6000030A5000030A400A61769
:102C8800A7014E2E0030A7000030A6000030A50096
:102C98000030A400320831020318532E542E7A2E25
:102CA800301F572E582E5C2E8030A8002808B006FA
:102CB8003208B3003108B2003308B1002008B3006D
:102CC8002408A0003308A4002108B3002508A100A7
:102CD8003308A5002208B3002608A2003308A6007E
:102CE8002308B3002708A3003308A700B30131085D
:102CF800A800A9012908AB0032082802AA00031C71
:102D0800AB032B08803AAC0080302C02031D8E2EBA
:102D18001A302A02031C912E922EC42E200023085A
:102D2800220421042004031D9A2E9C2E01309D2E7E
:102D38000030B3000030A3000030A2000030A10032
:102D48000030A0003108B200CB2E331CAC2EAD2EC3
:102D5800B12E33360138B300B32E0310B30C201C48
:102D6800B62EB72EB82EB3170130A800A337A20C81
:102D7800A10CA00CA80BBA2E0130A8002808B20795
:102D8800200031083202031CCA2ECB2EA92E301B7C
:102D9800CE2ECF2E052F3208031DD32ED42EDD2E96
:102DA8000030A3000030A2000030A1000030A000D5
:102DB800FF2F2408A0072508A13D2608A23D2708C3
:102DC800A33D231CE82EE92E912F331CEC2EED2E6B
:102DD800F12E33360138B300F32E0310B30C201C48
:102DE800F62EF72EF82EB3170130A800A337A20C41
:102DF800A10CA00CA80BFA2E0130A8002808B207D5
:102E0800912F2308803AA8002708803A2802031D3A
:102E1800172F26082202031D172F25082102031D3C
:102E2800172F2408200203181A2F1B2F532FFF30A7
:102E3800A800FF30A900FF30AA00FF30AB0020082F
:102E48002402AC002108253BAD002208263BAE0039
:102E58002308273BAF002C08A8072D08A93D2E08FA
:102E6800AA3D2F08AB3D2B08A3002A08A200290879
:102E7800A1002808A0008030A8002808B006B309DF
:102E8800B30A3308031D492F4A2F5B2F0130A007CF
:102E98000030A13D0030A23D0030A33D5B2F240847
:102EA800A0022508A13B2608A23B2708A33B23082C
:102EB800220421042004031D622F632F8D2F330861
:102EC800031D672F682F8D2F0030A3000030A2004C
:102ED8000030A1000030A000FF2F0130A035A10D67
:102EE800A20DA30D890B722FB31F7B2F7C2F7D2F73
:102EF8002014331C802F812F842F0314B30D862FA9
:102F08000310B30D320803198A2F8B2F8D2F013030
:102F1800B202A21F902F912F712FB101B31F952FCD
:102F2800962FA42F33087F3903199B2F9C2F9F2F8F
:102F3800B101B10AA42F201CA22FA32FA42F9C2FCC
:102F480031080319A82FA92FD62F0130A007003068
:102F5800A13D0030A23D0030A33D231CB42FB52F66
:102F6800D62F2008A8002108A9002208AA002308B3
:102F7800AB000130AC00AB37AA0CA90CA80CAC0B09
:102F8800BF2F2B08A3002A08A2002908A10028089F
:102F9800A000320A0319D12FD22FD62F0130A80052
:102FA8002808B207320A0319DA2FDB2FE02F32087C
:102FB800031DDF2FE02FEE2F0030A3000030A2000A
:102FC8000030A1000030A0003208031DEC2FED2FC7
:102FD800EE2FB001321CF12FF22FF42FA217F82F89
:102FE8007F30A8002808A2053236A300B01FFD2FA5
:102FF800FE2FFF2FA317080031343A3449344E34DA
:1030080047345234453453344134523420344334F1
:103018004C34413456344534003432343A34433431
:1030280041344D34423449344134523420344334E9
:103038004C34413456344534003443346F346E34A0
:10304800743472346F346C34543465346334683493
:10305800203443344134003443344C3441345634FE
:1030680045342034433441344D34423449344134B6
:1030780044344134003425346434253464343A34D7
:1030880025346434253464343A342534643425349E
:103098006434003443344F34523452344534433466
:1030A800543441344D3445344E345434453400346A
:1030B80043344C3441345634453420344134433459
:1030C8005434553441344C34003443344C34413452
:1030D8005634453420344E3455344534563441340E
:1030E800003449344E3443344F3452345234453426
:1030F80043345434413400344134503452344F341E
:103108004234413444344F340034443445344E342A
:1031180045344734413444344F3400342534303452
:103128002E3432346634DF3400344134433443348B
:10313800453453344F34003469346E3466340034C3
:0C3148006E3461346E34003443340034C3
:10327A00640080010131890B3E29003403102100CA
:10328A009D1C03140030093D0800C03021009E0037
:10329A009B019C0101309D00080021000D168D162E
:1032AA000D178D178D100D118D11080000309931F1
:1032BA00A121993101309931A121993108002100C8
:1032CA001C082000A10021001B082000A000080003
:1032DA00003088310020993101308831002099313D
:1032EA0008002000230822042104200403197E294F
:1032FA007F2981298030A3060800F2007208F000B5
:10330A00F1017008230091007108920095131514B9
:10331A00130808002000A81B932994299529A0299D
:10332A002709A9002809AA00A90A0319AA0A29082B
:10333A00A7002A08A8000800F20022008E107208CE
:10334A009A317422993122000E140630F10030307D
:10335A00890BAD29F10BAD29003222000E100800AD
:10336A002000A31BB929BA29BB29CA292009A00010
:10337A002109A1002209A2002309A300A00A031916
:10338A00A10A0319A20A0319A30A0800F400F50105
:10339A0075087407F3007308860001308700750802
:1033AA0099318221993181000130F3007308F507C0
:1033BA0004307502031CE229E329CD290800F5002F
:1033CA00F60176087507F400740886000130870054
:1033DA000108F00076089A31372299310130F40059
:1033EA007408F60704307602031CFC29FD29E62935
:1033FA0008002000A5002508A40024088600023041
:10340A008700A40A2108A3002008A200A00A031921
:10341A00A10A22088400230885000008C03F890801
:10342A00031D182A192A022A0800F801F9012B2A71
:10343A007508780784007608793D850000089B3175
:10344A0063239A310130F8070030F93D750878078F
:10345A0084007608793D85001200031D352A362A34
:10346A001D2A0800F3007308F100F2017108230015
:10347A009100720892007008F100F201710893003D
:10348A00720894009513151555309600AA309600C7
:10349A0095142000121E522A532A4E2A121208008C
:1034AA002000A801A901682A2508280784002608FF
:1034BA00293D850000088731D1279A310130200043
:1034CA00A8070030A93D2508280784002608293DB9
:1034DA0085001200031D722A732A592A0800F00077
:1034EA00701C782A792A7C2A22000F167E2A22004A
:1034FA000F12F01C812A822A842A8F16852A8F129B
:10350A00701D882A892A8B2A0F178C2A0F13F01DFF
:10351A008F2A902A922A8F17932A8F1308008030B5
:10352A002000C6064A08A3004908A2004808A100CC
:10353A004708A0004608A7004508A6004408A500B9
:10354A004308A4009531F8259A3120002308C600C3
:10355A002208C5002108C4002008C3000800200072
:10356A00A401A501201CBA2ABB2ABF2A2208A40743
:10357A002308A53D0130A235A30D890BC02A0130CD
:10358A00A136A00C890BC52A20082104031DCE2AC6
:10359A00CF2AB72A2508A1002408A0000800210084
:1035AA00DB0020006E082100DD0020006D082100EC
:1035BA00DC00E92ADC302000EB006F08EC00210077
:1035CA005B089231A8229A3121005C0884005D08C8
:1035DA0085001200031DF22AF32ADF2A2000ED01DA
:1035EA00EE0108002200C000E030C1004008C2001D
:1035FA00C401C501CB01CC0121005F082000EE0007
:10360A0021005E082000ED004130EF0042309A317F
:10361A00D4229A312200440840072100EC006C08A9
:10362A00860001308700810108002000A800A4015B
:10363A00A5012008A200A3012208A6002308A700CA
:10364A00281C282B292B2D2B2608A4072708A53D43
:10365A000130A635A70D890B2E2B0310A80C2808BC
:10366A00031D382B392B252B2508A1002408A0007F
:10367A0008002000AE00AC01AD01542B2B08A900B4
:10368A00AA012908A0002A08A1002808A2009D3141
:10369A0007259B3101302000AC070030AD3D2C08D6
:1036AA002E07A90029088600023087000108AB000E
:1036BA002B08031D612B622B432B0800F4007408AE
:1036CA000F39F2007408F039F30022008E147308DF
:1036DA00F1000430F136890B6F2B71089A3174228C
:1036EA009B3122000E140D30890B792B0000220029
:1036FA000E1072089A3174229B3122000E140D307A
:10370A00890B852B000022000E1008002000A5005E
:10371A002008A7002508A600A62B27088600023045
:10372A0087000108A4000130A3002308A707260880
:10373A00860002308700240881000130A300230894
:10374A00A6070130A1020030A23B210A031DB12BBA
:10375A00220A031DB12BB22B922B0800F300BD2BBA
:10376A000130F2007208F3070130F2007208F00724
:10377A0070088600013087007308840001308500D4
:10378A0000080106031DCA2BCB2BD42B7308860015
:10379A00013087000108031DD32BD42BB52B7308E6
:1037AA008600013087007008840001308500000817
:1037BA000102F000F101031CF10308002000B5002A
:1037CA00B11FE82BE92BEB2BB001B101B301B40116
:1037DA00FD2B20302000A0000030A1003508A200F7
:1037EA009D3107259B3101302000B3070030B43DDD
:1037FA003408803AB2003108803A3202031D072C9D
:10380A0030083302031C0A2C0B2CEE2B200035083F
:10381A00A8002F089B313E239B310800003020006E
:10382A002005A80000302105A90080302205AA0041
:10383A007F302305AB002B082A0429042804031D22
:10384A00272C282C302C0030A3000030A200003096
:10385A00A1000030A00000302405A8000030250592
:10386A00A90080302605AA007F302705AB002B0867
:10387A002A0429042804031D432C442C4C2C003010
:10388A00A7000030A6000030A5000030A4002708D9
:10389A002306031D5A2C26082206031D5A2C250826
:1038AA002106031D5A2C2408200603195D2C5E2CC0
:1038BA00602C0310612C0314080021008E100E10D6
:1038CA000F128F120F138F130030903104209C3186
:1038DA001A302000A300F830890B712CA30B712C2D
:1038EA0000000330883100209C3107302000A300FB
:1038FA007D30890B7E2CA30B7E2C0330883100206F
:10390A009C310F302000A3004730890B8A2CA30B6F
:10391A008A2C00320330883100209C3102308831F1
:10392A0000209C310230883100209C3108308831D7
:10393A0000209C310030883100209C310C308831C5
:10394A0000209C310030883100209C3106308831BB
:10395A0000209C3199316D219C3108002000A6017C
:10396A00A31FB82CB92CC02CA209A309A20A0319B7
:10397A00A30AA601A60AA11FC32CC42CC92CA009FC
:10398A00A109A00A0319A10A200821040319CE2CAF
:10399A00CF2CF82CA501A50ADB2C0130A035A10DEE
:1039AA00890BD32C0130A4002408A507A11FDE2C03
:1039BA00DF2CD22C21082302031DE52C2008220229
:1039CA00031CE82CE92CED2C2008A2022108A33BB9
:1039DA000130A136A00C890BEE2C0130A502031D83
:1039EA00F72CF82CDF2C26080319FC2CFD2C022DB1
:1039FA00A209A309A20A0319A30A2308A1002208FB
:103A0A00A00008002000220803190C2D0D2D122DEC
:103A1A002208031D112D122D172D20088731FF278B
:103A2A009D315F2D2208093E86000130870016006D
:103A3A0001040319212D222D422D2208093E860058
:103A4A0001308700403FA300413FA4002208023E04
:103A5A00860001308700403FA500413FA6002608A6
:103A6A00803AA7002408803A2702031D3E2D230826
:103A7A0025020318412D422D5F2D200022088600C1
:103A8A00013087002208023E8400013085000008C8
:103A9A000107A3002308860001308700200881005F
:103AAA002208023E86000130870001308107413139
:103ABA000318810A08002000A601A11F652D662DA2
:103ACA006D2DA009A109A00A0319A10AA601A60A37
:103ADA00A31F702D712D7A2DA209A309A20A031919
:103AEA00A30A0130A4002408A606A701A8012008F9
:103AFA0021040319812D822DB12DA501A50A8E2D30
:103B0A000130A035A10D890B862D0130A4002408AF
:103B1A00A507A11F912D922D852D0130A735A80D3E
:103B2A00890B932D21082302031D9D2D20082202B3
:103B3A00031CA02DA12DA62D2008A2022108A33B1B
:103B4A0027140130A136A00C890BA72D0130A5023C
:103B5A00031DB02DB12D922D26080319B52DB62DB2
:103B6A00BB2DA709A809A70A0319A80A2808A100B2
:103B7A002708A00008002000AE00AC01AD012E0805
:103B8A0086008701403FA800413FA9002808840019
:103B9A002908850012002A3A031DD42DD52D082E96
:103BAA002E08860087010130810741310318810AF6
:103BBA00260886000130870001088400850102304A
:103BCA008107003FAC00013FAD001C2E2B08A80066
:103BDA00A9012D08A1002C08A0000A30A20000307B
:103BEA00A3009A31B4229D31200028082007AC0096
:103BFA002908213DAD002E08860087010130810782
:103C0A0041310318810A2E0886008701403FA80027
:103C1A00413FA90028088400290885000008D03EF1
:103C2A00AB000A302B02031C1B2E1C2EEB2D2D0879
:103C3A00A7002C08A600080003102000220D230D5F
:103C4A00A9002908031D2A2E2B2E342E0030A3008A
:103C5A000030A2000030A1000030A000912E200800
:103C6A00A4002108A5002208A6002308A7001F30E7
:103C7A00A736A60CA50CA40C890B3D2E2408A80077
:103C8A00A217FF30A005FF30A105FF30A2050030C2
:103C9A00A3059630A902A91F532E542E6C2E29086B
:103CAA00803A973E03185A2E5B2E5C2E2B2E01303B
:103CBA00A336A20CA10CA00C890B5D2E0130A40026
:103CCA002408A907031D6A2E6B2E5C2E812E203034
:103CDA002902031C712E722E7C2E2B2E0130A03548
:103CEA00A10DA20DA30D890B742E0130A90229087A
:103CFA00031D802E812E732E28080319852E862EE9
:103D0A00912EA009A109A209A309A00A0319A10ACF
:103D1A000319A20A0319A30A0800F5007503031D73
:103D2A00972E982EAF2E73087F3EF8007808F4007D
:103D3A000430F436890B9E2E7408F60078080F3981
:103D4A00F70076089931A1219E3177089931A1218E
:103D5A009E31062F02307506031DB42EB52ECC2EC9
:103D6A007308BF3EF8007808F4000430F436890B73
:103D7A00BB2E7408F60078080F39F70076089931D7
:103D8A00A1219E3177089931A1219E31062F033056
:103D9A007506031DD12ED22EE92E7308933EF80024
:103DAA007808F4000430F436890BD82E7408F6002B
:103DBA0078080F39F70076089931A1219E317708E2
:103DCA009931A1219E31062F04307506031DEE2E6E
:103DDA00EF2E062F7308D33EF8007808F40004305B
:103DEA00F436890BF52E7408F60078080F39F700B7
:103DFA0076089931A1219E3177089931A1219E3106
:103E0A00062F08002000A5002503031D0D2F0E2FE5
:103E1A00262F23087F3EA8002808A4000430A436D1
:103E2A00890B142F2408A60028080F39A700260892
:103E3A00883100209F3120002708883100209F31D7
:103E4A00802F02302506031D2B2F2C2F442F2308E9
:103E5A00BF3EA8002808A4000430A436890B322FDC
:103E6A002408A60028080F39A70026088831002050
:103E7A009F3120002708883100209F31802F03308E
:103E8A002506031D492F4A2F622F2308933EA800B7
:103E9A002808A4000430A436890B502F2408A60051
:103EAA0028080F39A7002608883100209F312000F2
:103EBA002708883100209F31802F04302506031DF2
:103ECA00672F682F802F2308D33EA8002808A40054
:103EDA000430A436890B6E2F2408A60028080F394F
:103EEA00A7002608883100209F3120002708883142
:103EFA0000209F31802F0800220027082000AF00F1
:103F0A00220026082000AE00220025082000AD006D
:103F1A00220024082000AC002308AF002208AE00CB
:103F2A002108AD002008AC002C08A4002D08A5002B
:103F3A002E08A6002F08A7001730A736A60CA50C36
:103F4A00A40C890BA22FFF302405AA0000302505F6
:103F5A00AB002A082B04031DB32FB42FD52F2C082E
:103F6A00A4002D08A5002E08A6002F08A7000130DE
:103F7A00A435A50DA60DA70D890BBD2F270826046C
:103F8A0025042404031DCA2FCB2FD02F0230A000F2
:103F9A000030A100FF2F0330A0000030A100FF2F46
:103FAA002A0A2B04031DDA2FDB2FFB2F2C08A4006F
:103FBA002D08A5002E08A6002F08A7000930A43551
:103FCA00A50DA60DA70D890BE42F270826042504A5
:103FDA0024040319F12FF32F0130F42F0030A80025
:103FEA00A9012808A0002908A100FF2F0430A00079
:063FFA000030A1000800E8
:020000040001F9
:04000E00E139FF1EB7
:10E000003100320033003400FF00FF00FF00FF004A
:00000001FF
