:040000008231162A09
:1000060008007E1480319C31942480319C31742404
:1000160080318C110330FB008A30FA005630890B90
:100026001228FA0B1228FB0B12280D2AF301F30AE9
:1000360001309031D62080311130F5009830F6002D
:100046009C31F2248031F301F30A02309031D6203C
:1000560080312230F5009830F6009C31F224803150
:1000660086319F268031FD007D08031D47280D2A15
:1000760001303E2802302200B0000030B10057287F
:100086002200B001B10157287D08FA00FB017B0868
:10009600003A03194F2843287A08313A03193B28B6
:1000A600033A03193D2843289C31742480310D2AD4
:1000B600F301F30A01309031D62080311330F50078
:1000C6009830F6009C31F224803122003308803AC1
:1000D600FA0080307A02031D7228043032020318B7
:1000E600932886319F268031FD007D0803196828F4
:1000F60022003208383E8600013087007D088100E4
:100106003208073EF30002309031D62080312A3083
:100116009E31282680310130B2070030B33D682871
:100126000230FB000430FA00BA30890B9828FA0B2B
:100136009828FB0B98280032FE3024008D009C3155
:10014600742480318C155E30F00038309E31A12643
:10015600803170087104031DD9280630F300013080
:100166009031D62080317830F5009830F6009C31F9
:10017600F22480310530F30002309031D6208031F0
:100186005F30F5009830F6009C31F2248031220071
:100196000C118E124D30FB001930FA005030890BCD
:1001A600D228FA0BD228FB0BD22803290630F300FB
:1001B60001309031D62080317830F5009830F60045
:1001C6009C31F22480310530F30002309031D62084
:1001D60080316830F5009830F6009C31F224803189
:1001E60022008C100E158E161A30FB005E30FA00B7
:1001F6006E30890BFC28FA0BFC28FB0BFC2800321E
:100206002200B201B301B001B1019C3174248031E6
:100216000C158C140E118E168D100D118D110E30BD
:1002260024008D00270096010D2AF301F30A013000
:100236009031D62080311330F5009830F6009C318D
:10024600F224803122003308803AFA0080307A02A4
:10025600031D2F29043032020318502986319F26A8
:100266008031FD007D080319252922003208383E19
:100276008600013087007D0881003208073EF300C2
:1002860002309031D62080312A309E3128268031A6
:100296000130B2070030B33D25290230FB0004309F
:1002A600FA00BA30890B5529FA0B5529FB0B55294B
:1002B6000032FE3024008D009C31742480315E3083
:1002C600F00038309E31A126803170087104031D7C
:1002D600CC29F301F30A01309031D6208031243045
:1002E600F5009830F6009C31F22480312200B201EC
:1002F600B3010E3024008D0022003308803AFA0044
:1003060080307A02031D8929043032020318AA2993
:1003160086319F268031FD007D0803197F29220042
:1003260032085E3E8600013087007D088100320873
:10033600073EF30002309031D62080312A309E31BC
:10034600282680310130B2070030B33D7F290230C4
:10035600FB000430FA00BA30890BAF29FA0BAF293B
:10036600FB0BAF290032FE3024008D009C31742433
:100376008031F301F30A01309031D62080314130CB
:10038600F5009830F6009C31F224803122000C11E1
:10039600DC29F301F30A01309031D6208031003098
:1003A600F5009830F6009C31F224803122000E15BB
:1003B6008C108C151030FB003930FA000E30890B8A
:1003C600E229FA0BE229FB0BE2292200B201B30172
:1003D600B001B1019C31742480318D100D118D1145
:1003E6000E3024008D0022008C158C140C150E1175
:1003F600152922003108003A0319022A0D2A30086D
:10040600003A03191928013A03195B28033A03191C
:1004160018290D2A27001608031DFC2922008C1511
:100426000B107E1009008231182AFB3084008730B9
:10043600850022001200DE001200DF001200E0003C
:100446001200E1001200E200FC01FD012100EF01B3
:1004560020308400013085001F309C3167248231B2
:10046600A03084000130850014309C31672482312D
:10047600203084000230850050309C3167247E1085
:1004860020008231462A23008D0121008C100C1198
:100496008C110E118E128E150E1622008C140C1550
:1004A6008C150E118E16210095130E3024008D002A
:1004B60021008D1022008D1021000D1122000D113A
:1004C60021008D1122008D118B178B118B15F030A9
:1004D600270095009601240095169515151195107F
:1004E60015104F3092009C31842482319F31602751
:1004F60082319C318C24823102302200CD000430BE
:10050600CC00BA30890B852ACC0B852ACD0B852ADF
:1005160000009C31642482319C316D248231003A82
:1005260003198F2A9C317C24823121082200BE00C7
:10053600200020082200BD0044302000B700803093
:10054600B6000030B5000030B400F430A20001302F
:10055600A30022003E082000A10022003D08200042
:10056600A0009D312725823120082200CC002000E2
:1005760021082200CD00CE01CF014F082000A9009E
:1005860022004E082000A80022004D082000A700E7
:1005960022004C082000A600003092319D228231B4
:1005A6002908BB002808BA002708B9002608B800A1
:1005B60088311520823137082200AB00200036082A
:1005C6002200AA00200035082200A90020003408D5
:1005D6002200A80002302000A300013091313E2104
:1005E600823132302000A5009830A6009D310C25BE
:1005F6008231240016141618FE2AD03091001418E1
:10060600022B1419042B91011418072B1419092B0A
:10061600961496180C2BD13091001418102B14191F
:10062600122B9615141C152B11082100EF0024001F
:1006360096121616161A1D2B9615141C202B110829
:100646002200B700240096121616161A282B9615A5
:10065600141C2B2B11082200B60024009616161621
:10066600161A332B16151619362B50302100DE00BC
:100676009830DF0022003608CC000430CC36890BD7
:10068600412B4C08CD00CE014D082100E000220090
:100696004E082100E1000F302200CF004F08B605BA
:1006A6003608D000D10150082100E200220051088E
:1006B6002100E30022003708D2000430D236890B2D
:1006C600612B5208D300D40153082100E400220014
:1006D60054082100E5000F302200D5005508B70563
:1006E6003708D600D70156082100E6002200570831
:1006F6002100E7006F082200D8000430D836890BA5
:10070600812B5808D900DA0159082100E800220097
:100716005A082100E9000F302200DB005B082100A7
:10072600EF056F082200DC00DD015C082100EA000D
:1007360022005D082100EB00A0309D31E2258231C8
:100746002000A301A30A023091313E218231A0305C
:100756002000A5000130A6009D310C258231013014
:100766002100ED070030EE3D6E08803A2200CC00F5
:1007760081304C02031DC22B2C3021006D02031C5C
:100786005F2C9C31642482319C316D248231003A85
:100796000319C72B9C317C24823121082200BE001C
:1007A600200020082200BD0044302000B700803021
:1007B600B6000030B5000030B400F430A2000130BD
:1007C600A30022003E082000A10022003D082000D0
:1007D600A0009D312725823120082200CC00200070
:1007E60021082200CD00CE01CF014F082000A9002C
:1007F60022004E082000A80022004D082000A70075
:1008060022004C082000A600003092319D22823141
:100816002908BB002808BA002708B9002608B8002E
:1008260088311520823137082200AB0020003608B7
:100836002200AA00200035082200A9002000340862
:100846002200A8000A302000A300023091313E2188
:10085600823171302100DE009830DF0022002B0843
:100866002100E30022002A082100E20022002908D4
:100876002100E100220028082100E000A0309D317F
:10088600E2258231A0302000A5000130A6009D316E
:100896000C2582311030A300023091313E21823185
:1008A60087302000A5009830A6009D310C258231A6
:1008B6002100ED01EE01952C0A302000A300023044
:1008C60091313E21823171302100DE009830DF0007
:1008D60022002B082100E30022002A082100E20062
:1008E600220029082100E100220028082100E0005A
:1008F600A0309D31E2258231A0302000A5000130D4
:10090600A6009D310C2582311030A30002309131B2
:100916003E21823187302000A5009830A6009D3107
:100926000C25823106302200CD001330CC00AD30CC
:10093600890B9B2CCC0B9B2CCD0B9B2C0032ED2AD0
:100946002C088039B6002C35BC00AB1B3C143C0887
:100956000319BA2C3C0A031DB82C0030AC00003039
:10096600AB000030AA000030A900AB17C22C003043
:10097600AC000030AB000030AA000030A9003008FF
:100986008039B1003108B6063035B700AF1B3714D1
:1009960037080319DB2C370A031DD92C0030B000A9
:1009A6000030AF000030AE000030AD00AF17E32CD2
:1009B6000030B0000030AF000030AE000030AD00B7
:1009C6003708031D3C08031DF12C0030AC00003035
:1009D600AB000030AA000030A90008002908A000DA
:1009E6002F089D315F2584312108C2002008C100EF
:1009F6004108B100B201B301B4013408BB003308A9
:100A0600BA003208B9003108B8004208B100B20194
:100A1600B301B4013408C0003308BF003208BE0079
:100A26003108BD002A08A0002E089D315F258431BB
:100A36002108C2002008C1004108B100B201B3017B
:100A4600B4013108B8073208B93D3308BA3D340855
:100A5600BB3D4208B100B201B301B4013108BD0784
:100A66003208BE3D3308BF3D3408C03D2B08A00008
:100A76002D089D315F2584312108C2002008C10060
:100A86004108B100B201B301B4013108B807320818
:100A9600B93D3308BA3D3408BB3D4208B100B20146
:100AA600B301B4013108BD073208BE3D3308BF3D6E
:100AB6003408C03D0830B835B90DBA0DBB0D890BE9
:100AC6005E2D2A08A0002D089D315F25843121085E
:100AD600C2002008C1004108B8074208B93D0030ED
:100AE600BA3DBB3D2908A0002E089D315F25843103
:100AF6002108C2002008C1004108B8074208B93DD4
:100B06000030BA3DBB3D0830B835B90DBA0DBB0D46
:100B1600890B872D2908A0002D089D315F2584317A
:100B26002108C2002008C1004108B8074208B93DA3
:100B36000030BA3DBB3D2A08A0002F089D315F2535
:100B460084312108C2002008C1004108BD074208BF
:100B5600BE3D0030BF3DC03D2B08A0002E089D3194
:100B66005F2584312108C2002008C1004108BD0765
:100B76004208BE3D0030BF3DC03D2B08A0002F08F7
:100B86009D315F2584312108C2002008C10041083B
:100B9600B1004208B200B301B4010830B135B20D5C
:100BA600B30DB40D890BD12D3108BD073208BE3DFA
:100BB6003308BF3D3408C03D3B08B100B201B30164
:100BC600B4013108BD073208BE3D3308BF3D3408C5
:100BD600C03D0830B835B90DBA0DBB0D890BED2DEA
:100BE6003C083707B100B201B20D3108823EC100A0
:100BF600FF30323DC200BF1B152E0130BD35BE0D84
:100C0600BF0DC00D890B012EBB1B3D140130B8353D
:100C1600B90DBA0DBB0D890B0A2EFF30C107FF3087
:100C2600C23DFE2DB701BB1F2E2EFF303805B10089
:100C3600FF303905B200FF303A05B3007F303B057F
:100C4600B400340833043204310403193D182C2E41
:100C56002E2EB701B70A37080319572E0130BD07E4
:100C66000030BE3D0030BF3D0030C03D401C572E19
:100C76003D08B1003E08B2003F08B3004008B4008A
:100C86000130B500B437B30CB20CB10CB50B452E20
:100C96003408C0003308BF003208BE003108BD006A
:100CA6000130C1070030C23D4208803AB1008030B1
:100CB6003102031D602EFF304102031C6C2E7F3073
:100CC6002000C0008030BF000030BE000030BD00F4
:100CD600922E20004208803AB10080303102031D76
:100CE600762E013041020318832E00302000C0000A
:100CF6000030BF000030BE000030BD00B601922EAD
:100D060020004108BC00FF30BD05FF30BE057F3026
:100D1600BF050030C0053C18BF173C36C00036087A
:100D2600B1003108C0044008AC003F08AB003E08E3
:100D3600AA003D08A900080020008D140D118D1190
:100D46000D1EB92E0330F0009830890BA82EF00B3B
:100D5600A82E20000D1AAC2E0730F0007D30890B2E
:100D6600B22EF00BB22E0000313008008D1ECF2EB1
:100D76000330F0009830890BBE2EF00BBE2E2000FB
:100D86008D1AC22E0730F0007D30890BC82EF00B6D
:100D9600C82E0000343008000D1FE52E0330F00089
:100DA6009830890BD42EF00BD42E20000D1BD82E94
:100DB6000730F0007D30890BDE2EF00BDE2E0000B2
:100DC600373008008D1FFB2E0330F0009830890B5A
:100DD600EA2EF00BEA2E20008D1BEE2E0730F000D7
:100DE6007D30890BF42EF00BF42E00002A3008001B
:100DF6008D100D158D110D1E142F0330F000983037
:100E0600890B032FF00B032F20000D1A072F073035
:100E1600F0007D30890B0D2FF00B0D2F00003230C6
:100E260008008D1E2A2F0330F0009830890B192FE9
:100E3600F00B192F20008D1A1D2F0730F0007D3082
:100E4600890B232FF00B232F0000353008000D1FD0
:100E5600402F0330F0009830890B2F2FF00B2F2FE7
:100E660020000D1B332F0730F0007D30890B392F02
:100E7600F00B392F0000383008008D1F562F033035
:100E8600F0009830890B452FF00B452F20008D1B65
:100E9600492F0730F0007D30890B4F2FF00B4F2F75
:100EA6000000303008008D100D118D150D1E6F2FAE
:100EB6000330F0009830890B5E2FF00B5E2F200078
:100EC6000D1A622F0730F0007D30890B682FF00B6A
:100ED600682F0000333008008D1E852F0330F00088
:100EE6009830890B742FF00B742F20008D1A782FF1
:100EF6000730F0007D30890B7E2FF00B7E2F00002F
:100F0600363008000D1F9B2F0330F0009830890BF8
:100F16008A2FF00B8A2F20000D1B8E2F0730F00032
:100F26007D30890B942FF00B942F00003930080088
:100F36008D1FB12F0330F0009830890BA02FF00BD6
:100F4600A02F20008D1BA42F0730F0007D30890BC9
:100F5600AA2FF00BAA2F000023300800003008004B
:100F660000302005A80000302105A90080302205A8
:100F7600AA007F302305AB002B082A042904280485
:100F8600031DCD2F0030A3000030A2000030A100C9
:100F96000030A00000302405A80000302505A90077
:100FA60080302605AA007F302705AB002B082A04CF
:100FB60029042804031DE72F0030A7000030A600EF
:100FC6000030A5000030A40027082306031DF52FD6
:100FD60026082206031DF52F25082106031DF52FD9
:100FE600240820060319F92F03100800031408002B
:0A0FF6003134323433343434003423
:10100400F20022008E1072089C31C62488310E141E
:101014000630F1003030890B0D28F10B0D28003219
:1010240022000E1008003B088039C5003B35CC0077
:10103400BA1B4C144C0803192D284C0A031D2A28EA
:101044000030BB000030BA000030B9000030B800F6
:10105400BA17BB0135280030BB000030BA0000309D
:10106400B9000030B80037088039BC003C08C50618
:101074003735CD00B61B4D144D0803194F284D0AC2
:10108400031D4C280030B7000030B6000030B50016
:101094000030B400B617B70157280030B70000304D
:1010A400B6000030B5000030B4003708360435040B
:1010B4003404031D76280030BB000030BA00003031
:1010C400B9000030B8008030BA047F30BB04450852
:1010D400BC003C08BB043B08B7003A08B60039081A
:1010E400B5003808B40008004C08031D82280030FD
:1010F400B7000030B6000030B5000030B40008007E
:101104004C08BC00BD013D08BF004D083C02BE00B8
:10111400031CBF033E087F3EC60000303F3DC700AE
:101124003B08C4003A08C3003908C2003808C100AB
:101134000030BB000030BA000030B9000030B80005
:101144000030CB000030CA000030C9000030C800B5
:10115400CD011A304D020318E7284D080319C92898
:101164000130C135C20DC30DC40D890BB328013044
:10117400B835B90DBA0DBB0D890BBA28CB1B381481
:101184000130C835C90DCA0DCB0D890BC3283708EA
:101194004402031DD72836084302031DD728350807
:1011A4004202031DD72834084102031CE2284B17CE
:1011B4003408C1023508C23B3608C33B3708C43B78
:1011C4000130BC003C08CD07AB284408430442046A
:1011D4004104031D4814BA1B04290130B835B90D64
:1011E400BA0DBB0D890BF028CB1B38140130C83560
:1011F400C90DCA0DCB0D890BF928FF30C607FF3086
:10120400C73DED28CD01CB1F1D29FF304805BC008B
:10121400FF304905BD00FF304A05BE007F304B0555
:10122400BF003F083E043D043C04031938181B2941
:101234001D29CD01CD0A4D08031946290130B807EF
:101244000030B93D0030BA3D0030BB3D3B1C46295F
:101254003808BC003908BD003A08BE003B08BF008E
:101264000130C000BF37BE0CBD0CBC0CC00B342910
:101274003F08BB003E08BA003D08B9003C08B8006E
:101284000130C6070030C73D4708803ABC008030B3
:101294003C02031D4F29FF304602031C5E29FF3028
:1012A4002000C6000030C7000030BB000030BA0088
:1012B4000030B9000030B80020004708803ABC0074
:1012C40080303C02031D6829013046020318762948
:1012D4002000C601C7010030BB000030BA00003056
:1012E400B9000030B800C50120004608CC004C1CF1
:1012F4007D29BA1781297F30BC003C08BA054C36D9
:10130400BB006928AF00C201200065082100C600A7
:10131400200064082100C500200063082100C400E7
:10132400200062082100C30046082000C6002100F6
:1013340045082000C500210044082000C400210005
:1013440043082000C3000030CA000030C900003048
:10135400C8000030C7009231222289310318D629EF
:101364002100C201C20A46082000A300210045084A
:101374002000A200210044082000A100210043080D
:101384002000A0009C319D24893123082100C6003F
:10139400200022082100C500200021082100C400EB
:1013A400200020082100C3002100C701C801220039
:1013B4002D082100B30022002C082100B2004208AD
:1013C4000319EF294208031DE9292B30EA292D309E
:1013D400A6000030A7002608C20046082000A3008B
:1013E400210045082000A200210044082000A1009B
:1013F400210043082000A0009131AA218931200353
:101404002104031D352A210042080319152A420824
:101414002400A000FF302100B207FF30B33D0130AB
:10142400C7000030C8007F302000A0009830A10021
:1014340021004708203E903100208931FD302100F1
:10144400B207FF30B33D20302000AF002100330845
:101454002000B100210032082000B00021002F0834
:101464009E3176260800210046082000A3002100B2
:1014740045082000A200210044082000A10021000A
:1014840043082000A0009131AA21893120082104B9
:10149400031D7C2A2100420803195C2A4208240007
:1014A400A000FF302100B207FF30B33D0130C70078
:1014B4000030C80083302000A0009830A100210033
:1014C4004708203E903100208931FD302100B207C9
:1014D400FF30B33D20302000AF002100330820004E
:1014E400B100210032082000B00021002F089E31F5
:1014F400762608003F302100CC008030CB0000303D
:10150400CA000030C900B001B10146082000A300A0
:10151400210045082000A200210044082000A10069
:10152400210043082000A0000030A7000030A600DE
:101534000030A5000030A4008731B3278931031C93
:10154400B12ABA2B21003708CC003608CB00350865
:10155400CA003408C9000130B0070030B13D413041
:101564002000AC002030AB000030AA000030A900FD
:1015740021004C082000B00021004B082000AF00DF
:1015840021004A082000AE00210049082000AD00D7
:101594008431A32489312C082100B70020002B08B2
:1015A4002100B60020002A082100B50020002908E7
:1015B4002100B400340843022000E700210035086C
:1015C400443B2000E80021003608453B2000E900A8
:1015D40021003708463B2000EA006A08A300690896
:1015E400A2006808A1006708A0009C31B4248931D6
:1015F400A31BA42A2308031D092B2208031D092B5E
:101604002108031D092B02302002031CA42A2100F7
:1016140037082000C600210036082000C50021003C
:1016240035082000C400210034082000C300210034
:1016340046082000CA00210045082000C9002100F6
:1016440044082000C800210043082000C70092314C
:1016540022228931031CA42A2100490843022000C4
:10166400E70021004A08443B2000E80021004B0821
:10167400453B2000E90021004C08463B2000EA00DD
:101684006A08A3006908A2006808A1006708A0000E
:101694009C31B4248931A31B5C2B2308031D952B97
:1016A4002208031D952B2108031D952B02302002CF
:1016B4000318952B21004C08C6004B08C5004A08A6
:1016C400C4004908C300BA2B4130B7002030B6002B
:1016D4000030B5000030B40021004C082000BB00ED
:1016E40021004B082000BA0021004A082000B9005C
:1016F400210049082000B8008831152089313708B5
:101704002100CC00200036082100CB002000350841
:101714002100CA00200034082100C900FF30B007AE
:10172400FF30B13D2F2B210046082000C6002100C8
:1017340045082000C500210044082000C400210001
:1017440043082000C30021004C082000CA002100E7
:101754004B082000C90021004A082000C8002100CD
:1017640049082000C700923122228931031C662BCC
:10177400200066082100A9002908AA002200AF1B46
:10178400CB2B2F082100A30022002E082100A20049
:10179400D02B06302100A2000030A3002308AE00A5
:1017A4002208AD000130AD070030AE3D66302A0698
:1017B400031DF02BB11FE82B3F30CC008030CB0051
:1017C4000030CA000030C900B001B10167302906F9
:1017D4000319F02B3008AD073108AE3DC001C1013B
:1017E4004608BB004508BA004408B9004308B800DD
:1017F4004C08B7004B08B6004A08B5004908B400C5
:101804004108803A2000E70021002E08803A200099
:101814006702031D102C21002D0840020318E52C3B
:1018240021004C082000B70021004B082000B6001E
:1018340021004A082000B500210049082000B40016
:1018440021003B082000BB0021003A082000BA0018
:10185400210039082000B900210038082000B80010
:101864008831152089313708D1003608D000350871
:10187400CF003408CE009331EA2389312000510887
:101884002100BF00200050082100BE0020004F08A6
:101894002100BD0020004E082100BC003F082000AC
:1018A400A30021003E082000A20021003D082000E2
:1018B400A10021003C082000A0009031752089314E
:1018C40021082100AC00200020082100AB004C08B6
:1018D4002000B00021004B082000AF0021004A087E
:1018E4002000AE00210049082000AD0021003F087F
:1018F4002000AC0021003E082000AB0021003D0880
:101904002000AA0021003C082000A9008431A3245F
:1019140089312C08C6002B08C5002A08C4002908F0
:10192400C30021003B082000CA0021003A0820001F
:10193400C900210039082000C8002100380820000F
:10194400C7009D314225893146082100BB00200093
:1019540045082100BA00200044082100B9002000F5
:1019640043082100B80041302000B7002030B60001
:101974000030B5000030B40021004C082000BB004A
:1019840021004B082000BA0021004A082000B900B9
:10199400210049082000B800883115208931370812
:1019A4002100CC00200036082100CB00200035089F
:1019B4002100CA00200034082100C9000130C007FA
:1019C4000030C13D022C40302000AC00A030AB0000
:1019D4000030AA000030A90021004C082000B0000B
:1019E40021004B082000AF0021004A082000AE006F
:1019F400210049082000AD008431A32489312C083A
:101A04002100BF0020002B082100BE0020002A086E
:101A14002100BD00200029082100BC003B08200053
:101A2400C60021003A082000C50021003908200022
:101A3400C400210038082000C30021003F08200012
:101A4400CA0021003E082000C90021003D082000F2
:101A5400C80021003C082000C700923122228931AD
:101A64000318372D00302100602D21003B08200091
:101A7400A30021003A082000A20021003908200018
:101A8400A100210038082000A00021003F08200008
:101A9400A70021003E082000A60021003D082000E8
:101AA400A50021003C082000A4008731B327893118
:101AB400031C672D21002B18672D0030BF00003058
:101AC400BE000030BD000030BC0021003F082000F3
:101AD400A30021003E082000A20021003D082000B0
:101AE400A10021003C082000A0002100460820009D
:101AF400A700210045082000A6002100440820007A
:101B0400A500210043082000A40096314F26893106
:101B140023082100BB00200022082100BA00200075
:101B240021082100B900200020082100B8003B084A
:101B34002000C60021003A082000C5002100390811
:101B44002000C400210038082000C3004130AC004C
:101B54002030AB000030AA000030A9002100370873
:101B64002000B000210036082000AF002100350815
:101B74002000AE00210034082000AD008431A324ED
:101B840089312C08CA002B08C9002A08C800290872
:101B9400C700923122228931031C082E0130210012
:101BA400B0070030B13D41302000AC002030AB0024
:101BB4000030AA000030A900210037082000B0003E
:101BC400210036082000AF00210035082000AE00B7
:101BD400210034082000AD008431A32489312C086D
:101BE4002100B70020002B082100B60020002A089D
:101BF4002100B500200029082100B40066302A061F
:101C0400031D082E0130AD070030AE3D210037081A
:101C1400CC003608CB003508CA003408C9003108A6
:101C2400A1003008A000A801A401A501C001C101C0
:101C3400522F21004C082000B70021004B0820003F
:101C4400B60021004A082000B50021004908200000
:101C5400B40021003B082000BB0021003A0820000A
:101C6400BA00210039082000B900210038082000FA
:101C7400B8008831152089313708D1003608D000E2
:101C84003508CF003408CE009331EA23893120008F
:101C940051082100BF00200050082100BE00200090
:101CA4004F082100BD0020004E082100BC003F0861
:101CB4002000A30021003E082000A20021003D08CE
:101CC4002000A10021003C082000A00090317520D4
:101CD40089312108803AE70080306702031D742EA1
:101CE4000A3020020318912E21003F082000A3008F
:101CF40021003E082000A20021003D082000A10090
:101D040021003C082000A000903175208931210871
:101D14002100AC00200020082100AB00962E0930E1
:101D24002100AB000030AC0028080319A11FAB2E22
:101D34004708203E8600023087002E3081000130A3
:101D4400C7070030C83DFF30B207FF30B33DA801DC
:101D5400A80A240825040319C32E4708203E860038
:101D640002308700303081000130C7070030C83DA1
:101D7400FF30B207FF30B33DFF30A407FF30A53D6D
:101D8400AB2E4708203E8600023087002B08303EE9
:101D940081000130C7070030C83DFF30B207FF3073
:101DA400B33D4C082000B00021004B082000AF00D8
:101DB40021004A082000AE00210049082000AD009F
:101DC40021003F082000AC0021003E082000AB00A9
:101DD40021003D082000AA0021003C082000A900A1
:101DE4008431A32489312C08C6002B08C5002A0895
:101DF400C4002908C30021003B082000CA002100B8
:101E04003A082000C900210039082000C800210038
:101E140038082000C7009D31422589314608210039
:101E2400BB00200045082100BA002000440821001E
:101E3400B900200043082100B80041302000B70059
:101E44002030B6000030B5000030B40021004C084A
:101E54002000BB0021004B082000BA0021004A08E2
:101E64002000B900210049082000B800883115205D
:101E7400893137082100CC00200036082100CB002E
:101E8400200035082100CA00200034082100C900C0
:101E9400FF30A007FF30A13D0130C0070030C13D35
:101EA4004108803A2000E70021002E08803A2000F3
:101EB4006702031D602F21002D0840020318702FB4
:101EC40021004808803A2000E70080306702031DA3
:101ED4006E2F4B3021004702031C1B2E4F30210074
:101EE400C0000030C1004008203E86000230870058
:101EF400810120302000A000210048082000A20019
:101F0400210047082000A1002030E70021004708F5
:101F140020006702210040079E31042689312100F8
:101F240047084002C7004808413BC800420803195B
:101F34009D2F01309E2F00302000E700E801670844
:101F44002100C000200068082100C100FC18CC2F2B
:101F5400DC2F21004108803A2000E70021004808D6
:101F6400803A20006702031DBA2F2100470840026F
:101F74000318DC2FFF302100C707FF30C83D470896
:101F8400203E86000230870030308100FF30B207E7
:101F9400FF30B33D4108803A2000E70021003308B8
:101FA400803A20006702031DDA2F21003208400224
:101FB400031CAB2F210042080319EB2FFF30C70786
:101FC400FF30C83D4708203E8600023087004208A3
:101FD40081004008B2024108B33B4708203E20007C
:101FE400AF00210033082000B10021003208200096
:101FF400B00021002F089E31762608002000A5009D
:102004002508A4002408860002308700A40A2108B9
:10201400A3002008A200A00A0319A10A2208840030
:10202400230885000008C03F890803190800042814
:10203400AE00AC01AD012E0886008701403FA80028
:10204400413FA900280884002908850012002A3A83
:10205400031D5E282E088600870101308107413167
:102064000318810A260886000130870001088400CD
:10207400850102308107003FAC00013FAD007028AC
:102084002B08A800A9012D08A1002C08A0000A30E3
:10209400A2000030A3009D31272590312808200795
:1020A400AC002908213DAD002E08860087010130CF
:1020B400810741310318810A2E0886008701403FB9
:1020C400A800413FA90028088400290885000008C9
:1020D400D03EAB000A302B02031C42282D08A70077
:1020E4002C08A60008000310220D230DA9002908BE
:1020F400031D85280030A3000030A2000030A10099
:102104000030A00008002008A4002108A50022082F
:10211400A6002308A7001F30A736A60CA50CA40C04
:10212400890B8E282408A800A217FF30A005FF30D1
:10213400A105FF30A2050030A3059630A902A91F0E
:10214400B6282908803A973E031C7C280130A33620
:10215400A20CA10CA00C890BA9280130A40024080E
:10216400A9070319C728A8282030290203187C28A6
:1021740029080319C7280130A035A10DA20DA30D0C
:10218400890BBE280130A902BA28280803190800BF
:10219400A009A109A209A309A00A0319A10A031904
:1021A400A20A0319A30A0800F5007503031DF02809
:1021B40073087F3EF8007808F4000430F436890B85
:1021C400E0287408F60078080F39F700760888319B
:1021D4000220903177088831022008000230750609
:1021E400031D0A297308BF3EF8007808F400043080
:1021F400F436890BFA287408F60078080F39F700CA
:10220400760888310220903177088831022008004E
:1022140003307506031D24297308933EF8007808DB
:10222400F4000430F436890B14297408F600780895
:102234000F39F70076088831022090317708883109
:102244000220080004307506031D08007308D33EFD
:10225400F8007808F4000430F436890B2E29740849
:10226400F60078080F39F70076088831022090319B
:102274007708883102200800A5002503031D592989
:1022840023087F3EA8002808A4000430A436890B44
:1022940048292408A60028080F39A70026089C31DD
:1022A400DC249131200027089C31DC240800023012
:1022B4002506031D74292308BF3EA8002808A4008E
:1022C4000430A436890B63292408A60028080F3992
:1022D400A70026089C31DC249131200027089C317A
:1022E400DC24080003302506031D8F292308933EB0
:1022F400A8002808A4000430A436890B7E292408E9
:10230400A60028080F39A70026089C31DC24913147
:10231400200027089C31DC24080004302506031D16
:1023240008002308D33EA8002808A4000430A436DB
:10233400890B99292408A60028080F39A700260824
:102344009C31DC249131200027089C31DC240800D6
:10235400220027082000AF00220026082000AE003B
:10236400220025082000AD00220024082000AC0033
:102374002308AF002208AE002108AD002008AC00FD
:102384002C08A4002D08A5002E08A6002F08A700DD
:102394001730A736A60CA50CA40C890BCB29FF304B
:1023A4002405AA0000302505AB002A082B04031DD0
:1023B400FA292C08A4002D08A5002E08A6002F0831
:1023C400A7000130A435A50DA60DA70D890BE4299E
:1023D4002708260425042404031DF5290230A0003F
:1023E4000030A10008000330A0000030A100080064
:1023F4002A0A2B04031D1D2A2C08A4002D08A5005D
:102404002E08A6002F08A7000930A435A50DA60D97
:10241400A70D890B072A2708260425042404031D75
:10242400152A0130162A0030A800A9012808A000A6
:102434002908A10008000430A0000030A100080011
:1024440000304305CB0000304405CC008030450506
:10245400CD007F304605CE004E084D044C044B049D
:10246400031D3C2A0030C6000030C5000030C40003
:102474000030C30000304705CB0000304805CC00D5
:1024840080304905CD007F304A05CE004E084D040A
:102494004C044B04031D562A0030CA000030C90006
:1024A4000030C8000030C700C61F702A0030CB00BF
:1024B4000030CC000030CD008030CE004308CB0289
:1024C4004408CC3B4508CD3B4608CE3B4E08C600ED
:1024D4004D08C5004C08C4004B08C300CA1F8A2A13
:1024E4000030CB000030CC000030CD008030CE0076
:1024F4004708CB024808CC3B4908CD3B4A08CE3BB1
:102504004E08CA004D08C9004C08C8004B08C70053
:102514008030C6068030CA064A084602031D0800F9
:1025240049084502031D080048084402031D080029
:10253400470843020800AE002E08031DA91FB22A53
:102544002609B0002709B1002809B2002909B300FF
:10255400B00A0319B10A0319B20A0319B30ABA2A51
:102564002908B3002808B2002708B1002608B000E3
:102574002908280427042604031DC92A0030A900B9
:102584000030A8000030A7000030A60008009630F4
:10259400AF00FE3033050319EE2A0130AA002A08E1
:1025A400AF070130B336B20CB10CB00C890BD42A8E
:1025B400CB2A0130AA002A08AF070130B007003047
:1025C400B13D0030B23D0030B33D0130B336B20C02
:1025D400B10CB00C890BE82AFF3033050319002B2A
:1025E400DB2A02302F02031C022B0130AF02013020
:1025F400B035B10DB20DB30D890BFA2AB21FF32A0F
:102604002F180C2BFF30B005FF30B1057F30B20519
:10261400FF30B3050310AF0C2F08AA00AB01AC01C7
:10262400AD011830AA35AB0DAC0DAD0D890B142BD3
:102634002A08B0042B08B1042C08B2042D08B304F2
:102644002E08031DA91F272BB3173308A90032082E
:10265400A8003108A7003008A60008002000BB002D
:10266400B71F362B0130372B0030C0002200AF1BC0
:10267400402BFD302000B8003808FC052200AF1FB5
:10268400492B01302000BC000030BD00502B2F0826
:102694002000BD0022002E082000BC0022002D08CE
:1026A4002000BF0022002C082000BE0040080319AF
:1026B4006A2BFF30BE07FF30BF3D4008031D642B6B
:1026C4002B30652B2D30B9000030BA003908C0001A
:1026D4004F30C1000030C2002400EF01C42B2000A1
:1026E40036083704031D8E2B3D08803AB80080302D
:1026F4003802031D7F2B01303C0203188E2B20006F
:102704003F08803AB80080303802031D8B2B01301B
:102714003E020318FC1CD02BFF302000C107FF3001
:10272400C23D4108203E8600023087000A30A000E6
:102734000030A1003708A3003608A2009E31CD2640
:1027440093312108A8002008A7009C31A6249331C6
:102754002708303E8100FF30BC07FF30BD3DFF300D
:10276400BE07FF30BF3D0A30A0000030A10037088B
:10277400A3003608A2009F31AF2793312108B70088
:102784002008B60020004208803AB80080303802A1
:10279400031DCE2B013041020318712B2000400889
:1027A4000319DF2BFF30C107FF30C23D4108203E33
:1027B400860002308700400881004108203EAF00B7
:1027C4003F08B1003E08B0003B089E317626080061
:1027D400220023082000E100220022082000E0005B
:1027E400220021082000DF00220020082000DE0053
:1027F4005108E1005008E0004F08DF004E08DE00F9
:102804005E08D2005F08D3006008D4006108D500D8
:102814001730D536D40CD30CD20C890B0B2CFF30CB
:102824005205D60000305305D7005608813EDC001F
:10283400FF30573DDD005D08803AD20080305202FF
:10284400031D262C17305C02031808002000DD1B32
:10285400802CFF30D200FF30D3007F30D400003012
:10286400D5005C0A392CD537D40CD30CD20C890B87
:10287400352C5508DB005408DA005308D9005208F7
:10288400D8005E085805D2005F085905D3006008D7
:102894005A05D40061085B05D50055085404530457
:1028A4005204031908005E08D2005F08D3006008D0
:1028B400D4006108D5001F30D536D40CD30CD20C0B
:1028C400890B5E2C520803196F2C5808DE0759082F
:1028D400DF3D5A08E03D5B08E13D5809D200590943
:1028E400D3005A09D4005B09D5005208DE05530809
:1028F400DF055408E0055508E105B32C5E08D20055
:102904005F08D3006008D4006108D5001F30D536B5
:10291400D40CD30CD20C890B892C5208031D962C91
:102924000030E1000030AE2C5E08D2005F08D30016
:102934006008D4006108D5000130D235D30DD40D20
:10294400D50D890B9F2C55085404530452040319C4
:10295400B32CBF30E1008030E0000030DF000030F5
:10296400DE006108D1006008D0005F08CF005E0877
:10297400CE000800D70020006B0886008701403F86
:102984002100CD00413FCE004D0884004E08850053
:102994001200253A031D302E20006B0886008701A3
:1029A4000130810741310318810A2200AC01AD01D5
:1029B4000310003003180130FC00FF30AE00FF307C
:1029C400AF002100D101F32CFC1420006B08860019
:1029D40087010130810741310318810AF32CD101A9
:1029E400D10A21005108031D122D20006B08860016
:1029F4008701403F2100CD00413FCE004D088400B7
:102A04004E0885000008CF00D0015008003A031991
:102A14000C2DF12C4F08303A0319E62CF12CF32C31
:102A240020006B0886008701403F2100CD00413F14
:102A3400CE004D0884004E08850012002E3A031D76
:102A4400392D20006B088600870101308107413150
:102A54000318810A6C08A6006B0890311A2094317F
:102A640027082200AF00200026082200AE00200024
:102A74006B0886008701403F2100D800413FD90000
:102A840058088400590885001200643A0319522D2D
:102A940058088400590885001200693A031D7C2DEA
:102AA40020006C088600013087000108840085013D
:102AB40002308107003F2100D200013FD3005808B3
:102AC400013ECD000030593DCE0020006B08860049
:102AD400870121004D08C03F4E08C13F5308200024
:102AE400B700210052082000B60021005708933196
:102AF4003023080020006B0886008701403F210036
:102B0400D800413FD90058088400590885000008BE
:102B1400D600962D0130D8070030D93DA92D6C3050
:102B2400D600A92DD601A92D5608CD00CE014E08F8
:102B3400003A03199E2D942D4D084C3A03198C2DFF
:102B44002A3A0319912D0A3A03198C2D942D580809
:102B54008400590885001200663A0319D92D262EDF
:102B640020006C088600013087000108840085017C
:102B740004308107003F2100D200013FD300023F0F
:102B8400D400033FD72D20006C0886000130870055
:102B940001088400850104308107003F2100D20030
:102BA400013FD300023FD400033FD500E92D56086E
:102BB400CD00CE014E08003A0319E12DE92D4D0850
:102BC4004C3A0319C52D203A0319B22DE92D5808A2
:102BD400013ECD000030593DCE0020006B08860038
:102BE400870121004D08C03F4E08C13F152E5508EE
:102BF4002000E500210054082000E40021005308CF
:102C04002000E300210052082000E20021005808BF
:102C140084005908850000082000E60021005708B8
:102C24008931842108005808840059088500000867
:102C3400CD00CE014E08003A0319212E262E4D0850
:102C4400663A0319F92D262E20006B0886008701A9
:102C54000130810741310318810A080020006B0804
:102C640086008701403F2100CD00413FCE004D0842
:102C740084004E0885000008CF00D0014F082000D2
:102C8400A000210050082000A100210057082000C6
:102C9400A2009F3112279431262E23088039B000D8
:102CA4002335B200A21B321432080319672E320AEC
:102CB400031D642E0030A3000030A2000030A100E8
:102CC4000030A000A217A3016F2E0030A300003033
:102CD400A2000030A1000030A00027088039B10014
:102CE40031083006031D30172735B100A61B3114F7
:102CF400310803198B2E310A031D882E0030A700DA
:102D04000030A6000030A5000030A400A617A701DB
:102D1400932E0030A7000030A6000030A50000303C
:102D2400A400320831020318BB2E301F9D2E8030C0
:102D3400A8002808B0063208B3003108B2003308EE
:102D4400B1002008B3002408A0003308A40021081F
:102D5400B3002508A1003308A5002208B300260803
:102D6400A2003308A6002308B3002708A3003308F1
:102D7400A700B3013108A800A9012908AB00320853
:102D84002802AA00031CAB032B08803AAC00803055
:102D94002C02031DCF2E1A302A02031CFD2E200004
:102DA40023082204210420040319DA2E0130DB2E27
:102DB4000030B3000030A3000030A2000030A100B6
:102DC4000030A0003108B200022F331CED2E333640
:102DD4000138B300EF2E0310B30C2018B3170130E1
:102DE400A800A337A20CA10CA00CA80BF32E013051
:102DF400A8002808B207200031083202031CE72E7D
:102E0400301B312F3208031D102F0030A300003077
:102E1400A2000030A1000030A00008002408A00790
:102E24002508A13D2608A23D2708A33D231CAB2F5E
:102E3400331C202F33360138B300222F0310B30C78
:102E44002018B3170130A800A337A20CA10CA00CC2
:102E5400A80B262F0130A8002808B207AB2F23089F
:102E6400803AA8002708803A2802031D432F260829
:102E74002202031D432F25082102031D432F24088A
:102E8400200203187B2FFF30A800FF30A900FF3079
:102E9400AA00FF30AB0020082402AC002108253B27
:102EA400AD002208263BAE002308273BAF002C08C8
:102EB400A8072D08A93D2E08AA3D2F08AB3D2B08D5
:102EC400A3002A08A2002908A1002808A000803035
:102ED400A8002808B006B309B30A3308031D832FDA
:102EE4000130A0070030A13D0030A23D0030A33DD9
:102EF400832F2408A0022508A13B2608A23B27080B
:102F0400A33B2308220421042004031DA92F330812
:102F1400031DA92F0030A3000030A2000030A1003F
:102F24000030A00008000130A035A10DA20DA30DB2
:102F3400890B962FB31B2014331CA22F0314A32F29
:102F44000310B30D32080319A92F0130B202A21FD6
:102F5400952FB101B31FB62F33087F3903192018F9
:102F6400B42FB62FB101B10A31080319E22F013091
:102F7400A0070030A13D0030A23D0030A33D231C3A
:102F8400E22F2008A8002108A9002208AA0023088B
:102F9400AB000130AC00AB37AA0CA90CA80CAC0BED
:102FA400CD2F2B08A3002A08A2002908A100280875
:102FB400A000320A0319E22F0130A8002808B20742
:102FC400320A031D3208031DF22F0030A300003023
:102FD400A2000030A1000030A00032080319B001A3
:102FE400321CF62FA217FA2F7F30A8002808A2055A
:102FF4003236A300B01F0800A317080043344C3432
:10300400413456344534203449344E3443344F34F7
:10301400523452344534433454344134003431341A
:103024003A3449344E3447345234453453344134B9
:103034005234203443344C3441345634453400340F
:1030440032343A34433441344D34423449344134D3
:103054005234203443344C344134563445340034EF
:1030640043346F346E34743472346F346C34543487
:103074006534633468342034433441340034433495
:103084004C344134563445342034433441344D3483
:1030940042344934413444344134003425346434B2
:1030A400253464343A3425346434253464343A346D
:1030B4002534643425346434003441345034523477
:1030C4004F344234413444344F340034443445346E
:1030D4004E3445344734413444344F340034253479
:1030E40030342E3432346634DF34003441344334E3
:1030F4004334453453344F34003469346E346634C5
:0E31040000346E3461346E34003443340034D1
:1038C80021009D140800640080010131890B682CD7
:1038D8000034031021009D1C03140030093D08002A
:1038E8000030883102209C310130883102200800E4
:1038F8001C082000A10021001B082000A0000800CF
:10390800C03021009E009B019C0101309D000800F1
:1039180000309C31DC249C3101309C31DC240800CF
:1039280021000D168D160D178D178D100D118D1187
:103938000800230822042104200403190800803009
:10394800A3060800A81F08002709A9002809AA003B
:10395800A90A0319AA0A2908A7002A08A800080022
:10396800A31F08002009A0002109A1002209A20024
:103978002309A300A00A0319A10A0319A20A03191B
:10398800A30A0800F000701CCB2C0F16CC2C0F12C9
:10399800F01CD02C8F16D12C8F12701DD52C0F1720
:1039A800D62C0F13F01DDA2C8F1708008F13080080
:1039B8002000A20022008E10200022089D31C02580
:1039C8009C310E1406302000A1003030890BEA2CFF
:1039D800A10BEA2C000022000E100800F801F901E2
:1039E8007508780784007608793D85001200031968
:1039F80008007508780784007608793D8500000876
:103A08009E3128269C310130F8070030F93DF42C0E
:103A1800A801A9012508280784002608293D850052
:103A28001200031908002508280784002608293DE4
:103A3800850000089E314E269D3101302000A807E0
:103A48000030A93D0E2DA401A501201C2F2D220810
:103A5800A4072308A53D0130A235A30D890B302DFD
:103A68000130A136A00C890B352D20082104031D37
:103A7800292D2508A1002408A00008008030C606CA
:103A88004A08A3004908A2004808A1004708A00066
:103A98004608A7004508A6004408A5004308A40056
:103AA80096314F262308C6002208C5002108C40005
:103AB8002008C3000800A800A401A5012008A2004E
:103AC800A3012208A6002308A700281C6F2D26089A
:103AD800A4072708A53D0130A635A70D890B702D31
:103AE8000310A80C2808031D692D2508A100240827
:103AF800A0000800AE00AC01AD012C082E07A900FB
:103B080029088600023087000108AB002B0803193A
:103B180008002B08A900AA012908A0002A08A1006A
:103B28002808A2009F3112279D3101302000AC07E0
:103B38000030AD3D812D2100DB0020006E08210002
:103B4800DD0020006D082100DC0021005C088400F5
:103B58005D08850012000319BC2DDC302000EB0045
:103B68006F08EC0021005B089431BC249D31A92D1D
:103B78002000ED01EE0108002000A000201CC72D48
:103B880022000F16C92D22000F122000A01CCF2DD5
:103B980022008F16D12D22008F122000201DD72D34
:103BA80022000F17D92D22000F132000A01DDF2D92
:103BB80022008F17080022008F1308002200BF0080
:103BC800E030C0003F08C100C301C401CA01CB01F5
:103BD80021005F082000EE0021005E082000ED00B3
:103BE8004030EF0041309D319F25220043083F07B8
:103BF8002100EC006C088600013087008101080074
:103C08002000A5002008A7002508A6000130A10271
:103C18000030A23B210A0319220A031908002708C9
:103C28008600023087000108A4000130A3002308A1
:103C3800A707260886000230870024088100013083
:103C4800A3002308A6070A2EF40074080F39F2000F
:103C58007408F039F30022008E147308F100043060
:103C6800F136890B342E71089C31C6249E310E140E
:103C78000D30890B3D2E000022000E1072089C3179
:103C8800C6249E310E140D30890B482E00002200E8
:103C98000E100800A40024080F39A2002408F039E7
:103CA800A30022008E1420002308A1000430A136AE
:103CB800890B5B2E21089D31C0259E310E140D30D5
:103CC800890B642E000022000E10200022089D316E
:103CD800C0259E310E140D30890B702E0000220075
:103CE8000E1008002000B500B11F7C2EB001B101F4
:103CF800B301B4013408803AB2003108803A320284
:103D0800031D882E3008330203189A2E2030200015
:103D1800A0000030A1003508A2009F3112279E3173
:103D280001302000B3070030B43D7E2E2000350856
:103D3800A8002F089D317E250800F300B22E7308D5
:103D480086000130870001080319BE2E0130F200F9
:103D58007208F3070130F2007208F0077008860055
:103D680001308700730884000130850000080106CF
:103D78000319A32E73088600013087007008840099
:103D88000130850000080102F000F101031CF10375
:103D98000800A601A31FD72EA209A309A20A031986
:103DA800A30AA601A60AA11FDE2EA009A109A00A3E
:103DB8000319A10A200821040319052FA501A50A42
:103DC800A11BF02E0130A035A10D890BE72E013083
:103DD800A4002408A507E42E21082302031DF62EBB
:103DE80020082202031CFC2E2008A2022108A33B63
:103DF8000130A136A00C890BFD2E0130A502031D50
:103E0800F02E260803190D2FA209A309A20A0319E7
:103E1800A30A2308A1002208A00008002208031D05
:103E28002208031D1B2F20088031032008002208C8
:103E3800093E860001308700160001040319422F4D
:103E48002208093E860001308700403FA300413F19
:103E5800A4002208023E860001308700403FA500EA
:103E6800413FA6002608803AA7002408803A270286
:103E7800031D402F230825020318080020002208EC
:103E88008600013087002208023E84000130850048
:103E980000080107A30023088600013087002008D6
:103EA80081002208023E8600013087000130810728
:103EB80041310318810A08008E100E100F128F125C
:103EC8000F138F1300309D31C0259F311A30200009
:103ED800A300F830890B6E2FA30B6E2F0000033060
:103EE8009C31DC249F3107302000A3007D30890BF2
:103EF8007B2FA30B7B2F03309C31DC249F310F30A9
:103F08002000A3004730890B872FA30B872F00328F
:103F180003309C31DC249F3102309C31DC249F31FA
:103F280002309C31DC249F3108309C31DC249F31E5
:103F380000309C31DC249F310C309C31DC249F31D3
:103F480000309C31DC249F3106309C31DC249F31C9
:103F58009C318C240800A601A11FB92FA009A10932
:103F6800A00A0319A10AA601A60AA31FC42FA20921
:103F7800A309A20A0319A30A0130A4002408A6066B
:103F8800A701A801200821040319F32FA501A50AF8
:103F9800A11BD82F0130A035A10D890BCF2F0130DF
:103FA800A4002408A507CC2F0130A735A80D890B3C
:103FB800D92F21082302031DE32F20082202031C06
:103FC800EA2F2008A2022108A33B27140130A136BA
:103FD800A00C890BEB2F0130A502031DD82F260852
:103FE8000319FB2FA709A809A70A0319A80A280873
:083FF800A1002708A000080049
:020000040001F9
:04000E00E139FF1EB7
:00000001FF
