:0400000082311D2A02
:1000060008007E1480319C31272480319C310F24D6
:10001600803122008C110330FB008A30FA00563002
:10002600890B1328FA0B1328FB0B1328142AF30148
:10003600F30A01309031C32080311130F500983039
:10004600F6009C31A8248031F301F30A0230903186
:10005600C32080312230F5009830F6009C31A82468
:1000660080318631C4268031FD007D08031D482875
:10007600142A01303F2802302200B0000030B100BF
:1000860058282200B001B10158287D08FA00FB016A
:100096007B08003A0319502844287A08313A031994
:1000A6003C28033A03193E2844289C310F2480310A
:1000B600142AF301F30A01309031C3208031133042
:1000C600F5009830F6009C31A824803122003308D0
:1000D600803AFA0080307A02031D73280430320217
:1000E600031895288631C4268031FD007D08031942
:1000F600692822003208383E8600013087007D08D4
:1001060081003208073EF30002309031C32080316F
:100116002A308731D827803101302200B2070030DB
:10012600B33D69280230FB000430FA00BA30890B6F
:100136009A28FA0B9A28FB0B9A280032FE302400E4
:100146008D009C310F24803122008C155E30F0002A
:1001560038309E315426803170087104031DDC2826
:100166000630F30001309031C32080317830F5003D
:100176009830F6009C31A82480310530F300023017
:100186009031C32080315F30F5009830F6009C3105
:10019600A824803122000C118E124D30FB0019303C
:1001A600FA005030890BD528FA0BD528FB0BD52839
:1001B60006290630F30001309031C32080317830B3
:1001C600F5009830F6009C31A82480310530F30004
:1001D60002309031C32080316830F5009830F60047
:1001E6009C31A824803122008C100E158E161A30F0
:1001F600FB005E30FA006E30890BFF28FA0BFF28F1
:10020600FB0BFF2800322200B201B301B001B1019D
:100216009C310F24803122000C158C140E118E1681
:100226008D100D118D110E3024008D0027009601C2
:10023600142AF301F30A01309031C32080311330C0
:10024600F5009830F6009C31A8248031220033084E
:10025600803AFA0080307A02031D332904303202D4
:10026600031855298631C4268031FD007D080319FF
:10027600292922003208383E8600013087007D0891
:1002860081003208073EF30002309031C3208031EE
:100296002A308731D827803101302200B20700305A
:1002A600B33D29290230FB000430FA00BA30890B2D
:1002B6005A29FA0B5A29FB0B5A290032FE30240020
:1002C6008D009C310F2480315E30F00038309E3135
:1002D6005426803170087104031DD229F301F30AF4
:1002E60001309031C32080312430F5009830F6007B
:1002F6009C31A82480312200B201B3010E302400C3
:100306008D0022003308803AFA0080307A02031DFD
:100316008E29043032020318B0298631C426803172
:10032600FD007D0803198429220032085E3E8600FE
:10033600013087007D0881003208073EF300023055
:100346009031C32080312A308731D827803101305F
:100356002200B2070030B33D84290230FB0004308E
:10036600FA00BA30890BB529FA0BB529FB0BB5296A
:100376000032FE3024008D009C310F248031F301C1
:10038600F30A01309031C32080314130F5009830B6
:10039600F6009C31A824803122000C11E229F301D9
:1003A600F30A01309031C32080310030F5009830D7
:1003B600F6009C31A824803122000E158C108C1575
:1003C6001030FB003930FA000E30890BE829FA0BA1
:1003D600E829FB0BE8292200B201B301B001B10103
:1003E6009C310F24803122008D100D118D110E309D
:1003F60024008D0022008C158C140C150E11192961
:1004060022003108003A0319092A142A3008003A52
:1004160003191A28013A03195C28033A03191C29FF
:10042600142A27001608031D032A22008C150B1018
:100436007E10090082311F2AFD3084009B30850022
:1004460022001200DE001200DF001200E00012009F
:10045600E1001200E200FC01FD012100EF01203065
:100466008400013085001F309C3102248231A03087
:1004760084000130850014309C3102248231203002
:1004860084000230850050309C3102247E1020000A
:1004960082314D2A23008D0121008C100C118C1104
:1004A6000E118E128E150E1622008C140C158C153C
:1004B6000E118E16210095130E3024008D0021009A
:1004C6008D1022008D1021000D1122000D1121002A
:1004D6008D1122008D118B178B118B15F030270093
:1004E6009500960124009516951515119510151071
:1004F6004F3092009C31172482319F315E27823122
:100506009C311F24823102302200CD000430CC0001
:10051600BA30890B8C2ACC0B8C2ACD0B8C2A000086
:100526009031012082319C3108248231003A03192E
:10053600962A9C3130248231200021082200BE00F8
:10054600200020082200BD0044302000B700803083
:10055600B6000030B5000030B400F430A20001301F
:10056600A30022003E082000A10022003D08200032
:10057600A0009C31F8248231200020082200CC0003
:10058600200021082200CD00CE01CF014F08200017
:10059600A90022004E082000A80022004D082000D5
:1005A600A70022004C082000A60000308831002059
:1005B600823120002908BB002808BA002708B900A4
:1005C6002608B800933149238231200037082200DB
:1005D600AB00200036082200AA00200035082200C1
:1005E600A900200034082200A80002302000A30041
:1005F600013091312B21823132302000A500983014
:10060600A6009C31DC248231240016141618092B0E
:10061600D030910014180D2B14190F2B91011418BA
:10062600122B1419142B96149618172BD1309100EF
:1006360014181B2B14191D2B9615141C202B11088E
:100646002100EF00240096121616161A282B96156E
:10065600141C2B2B11082200B70024009612161624
:10066600161A332B9615141C362B11082200B600C9
:10067600240096161616161A3E2B16151619412B19
:1006860050302100DE009830DF0022003608CC0012
:100696000430CC36890B4C2B4C08CD00CE014D08CE
:1006A6002100E00022004E082100E1000F30220068
:1006B600CF004F08B6053608D000D10150082100FA
:1006C600E200220051082100E30022003708D20090
:1006D6000430D236890B6C2B5208D300D401530850
:1006E6002100E400220054082100E5000F3022001A
:1006F600D5005508B7053708D600D701560821009A
:10070600E600220057082100E7006F082200D80003
:100716000430D836890B8C2B5808D900DA015908D1
:100726002100E80022005A082100E9000F302200CB
:10073600DB005B082100EF056F082200DC00DD010D
:100746005C082100EA0022005D082100EB00A030D1
:100756009D31B82582312000A301A30A02309131D0
:100766002B218231A0302000A5000130A6009C314B
:10077600DC24823101302100ED070030EE3D6E08A9
:10078600803A2200CC0081304C02031DCD2B2C3048
:1007960021006D02031C6F2C9031012082319C31A7
:1007A60008248231003A0319D22B9C31302482313D
:1007B600200021082200BE00200020082200BD00E3
:1007C60044302000B7008030B6000030B50000305D
:1007D600B400F430A2000130A30022003E0820003D
:1007E600A10022003D082000A0009C31F82482319F
:1007F600200020082200CC00200021082200CD0085
:10080600CE01CF014F082000A90022004E0820008B
:10081600A80022004D082000A70022004C08200056
:10082600A600003088310020823120002908BB0054
:100836002808BA002708B9002608B80093314923CA
:100846008231200037082200AB0020003608220043
:10085600AA00200035082200A90020003408220042
:10086600A8000A302000A300023091312B218231EA
:1008760071302100DE009830DF0022002B082100B5
:10088600E30022002A082100E200220029082100B4
:10089600E100220028082100E000A0309D31B825A3
:1008A6008231A0302000A5000130A6009C31DC2456
:1008B600823110302000A300023091312B21823189
:1008C60087302000A5009830A6009C31DC248231B8
:1008D6002100ED01EE01A62C0A302000A300023013
:1008E60091312B21823171302100DE009830DF00FA
:1008F60022002B082100E30022002A082100E20042
:10090600220029082100E100220028082100E00039
:10091600A0309D31B8258231A0302000A5000130DD
:10092600A6009C31DC24823110302000A300023066
:1009360091312B21823187302000A5009830A60006
:100946009C31DC24823106302200CD001330CC00ED
:10095600AD30890BAC2CCC0BAC2CCD0BAC2C0032B7
:10096600F82A20002C088039B6002C35BC00AB1BB9
:100976003C143C080319CC2C3C0A031DCA2C00303D
:10098600AC000030AB000030AA000030A900AB1765
:10099600D42C0030AC000030AB000030AA00003090
:1009A600A90030088039B1003108B6063035BB00E1
:1009B600AF1B3B143B080319ED2C3B0A031DEB2C24
:1009C6000030B0000030AF000030AE000030AD00A7
:1009D600AF17F52C0030B0000030AF000030AE008D
:1009E6000030AD003B08031D3C08031D032D0030FD
:1009F600AC000030AB000030AA000030A9000800AF
:100A06002908A0002F089D313325843120002108B4
:100A1600C2002008C1004108B100B201B301B4010F
:100A26003408BA003308B9003208B8003108B700F4
:100A36004208B100B201B301B4013408C000330862
:100A4600BF003208BE003108BD002A08A0002E08EB
:100A56009D313325843120002108C2002008C100C1
:100A66004108B100B201B301B4013108B707320839
:100A7600B83D3308B93D3408BA3D4208B100B20169
:100A8600B301B4013108BD073208BE3D3308BF3D8E
:100A96003408C03D2B08A0002D089D313325843134
:100AA60020002108C2002008C1004108B100B2019F
:100AB600B301B4013108B7073208B83D3308B93D70
:100AC6003408BA3D4208B100B201B301B40131089D
:100AD600BD073208BE3D3308BF3D3408C03D08306F
:100AE600B735B80DB90DBA0D890B732D2A08A000BC
:100AF6002D089D313325843120002108C2002008AD
:100B0600C1004108B7074208B83D0030B93DBA3DBB
:100B16002908A0002E089D313325843120002108A4
:100B2600C2002008C1004108B7074208B83D00309E
:100B3600B93DBA3D0830B735B80DB90DBA0D890BB8
:100B46009E2D2908A0002D089D31332584312000D3
:100B56002108C2002008C1004108B7074208B83D75
:100B66000030B93DBA3D2A08A0002F089D31332533
:100B7600843120002108C2002008C1004108BD07B9
:100B86004208BE3D0030BF3DC03D2B08A0002E08E8
:100B96009D313325843120002108C2002008C10080
:100BA6004108BD074208BE3D0030BF3DC03D2B0891
:100BB600A0002F089D313325843120002108C20072
:100BC6002008C1004108B1004208B200B301B401D7
:100BD6000830B135B20DB30DB40D890BEC2D3108CB
:100BE600BD073208BE3D3308BF3D3408C03D370857
:100BF600B1003808B2003908B3003A08B40018301A
:100C0600B436B30CB20CB10C890B032E3108BD07F8
:100C16003208BE3D3308BF3D3408C03D0830B73505
:100C2600B80DB90DBA0D890B122E3C083B07B10061
:100C3600B201B20D3108823EC100FF30323DC20022
:100C4600BF1B3A2E0130BD35BE0DBF0DC00D890B41
:100C5600262EBA1B3D140130B735B80DB90DBA0DA5
:100C6600890B2F2EFF30C107FF30C23D232EBB015B
:100C7600BA1F532EFF303705B100FF303805B200DA
:100C8600FF303905B3007F303A05B4003408330429
:100C96003204310403193D18512E532EBB01BB0AF1
:100CA6003B0803197C2E0130BD070030BE3D0030E5
:100CB600BF3D0030C03D401C7C2E3D08B1003E08C3
:100CC600B2003F08B3004008B4000130B500B437A5
:100CD600B30CB20CB10CB50B6A2E3408C000330845
:100CE600BF003208BE003108BD000130C107003028
:100CF600C23D4208803AB10080303102031D852E84
:100D0600FF304102031C912E7F302000C00080304E
:100D1600BF000030BE000030BD00B72E20004208E4
:100D2600803AB10080303102031D9B2E0130410212
:100D36000318A82E00302000C0000030BF0000308D
:100D4600BE000030BD00B601B72E20004108BC0031
:100D5600FF30BD05FF30BE057F30BF050030C00542
:100D66003C18BF173C36C0003608B1003108C00435
:100D76004008AC003F08AB003E08AA003D08A900A9
:100D8600080020008D140D118D110D1EDE2E03306E
:100D9600F0009830890BCD2EF00BCD2E20000D1AC9
:100DA600D12E0730F0007D30890BD72EF00BD72ED1
:100DB6000000313008008D1EF42E0330F00098300C
:100DC600890BE32EF00BE32E20008D1AE72E073059
:100DD600F0007D30890BED2EF00BED2E0000343047
:100DE60008000D1F0A2F0330F0009830890BF92EEA
:100DF600F00BF92E20000D1BFD2E0730F0007D3084
:100E0600890B032FF00B032F0000373008008D1FCE
:100E1600202F0330F0009830890B0F2FF00B0F2F87
:100E260020008D1B132F0730F0007D30890B192F02
:100E3600F00B192F00002A3008008D100D158D11AA
:100E46000D1E392F0330F0009830890B282FF00B38
:100E5600282F20000D1A2C2F0730F0007D30890B2B
:100E6600322FF00B322F0000323008008D1E4F2F2C
:100E76000330F0009830890B3E2FF00B3E2F2000F8
:100E86008D1A422F0730F0007D30890B482FF00B6A
:100E9600482F0000353008000D1F652F0330F00085
:100EA6009830890B542FF00B542F20000D1B582F10
:100EB6000730F0007D30890B5E2FF00B5E2F0000AF
:100EC600383008008D1F7B2F0330F0009830890BD7
:100ED6006A2FF00B6A2F20008D1B6E2F0730F00053
:100EE6007D30890B742FF00B742F00003030080012
:100EF6008D100D118D150D1E942F0330F0009830B6
:100F0600890B832FF00B832F20000D1A872F0730B4
:100F1600F0007D30890B8D2FF00B8D2F00003330C4
:100F260008008D1EAA2F0330F0009830890B992FE8
:100F3600F00B992F20008D1A9D2F0730F0007D3081
:100F4600890BA32FF00BA32F0000363008000D1FCE
:100F5600C02F0330F0009830890BAF2FF00BAF2F66
:100F660020000D1BB32F0730F0007D30890BB92F01
:100F7600F00BB92F0000393008008D1FD62F033033
:100F8600F0009830890BC52FF00BC52F20008D1B64
:100F9600C92F0730F0007D30890BCF2FF00BCF2FF4
:100FA60000002330080000300800F40074080F39F0
:100FB600F2007408F039F30022008E147308F10071
:100FC6000430F136890BE42F71089C319024873167
:100FD60022000E140D30890BEE2F000022000E1099
:100FE60072089C319024873122000E140D30890B33
:100FF600FA2F000022000E1008002000AE002E0876
:10100600031DA91F16282609B0002709B1002809C3
:10101600B2002909B300B00A0319B10A0319B20ACA
:101026000319B30A1E282908B3002808B2002708A6
:10103600B1002608B0002908280427042604031D49
:101046002D280030A9000030A8000030A70000308D
:10105600A60008009630AF00FE303305031952286B
:101066000130AA002A08AF070130B336B20CB10C22
:10107600B00C890B38282F280130AA002A08AF07A0
:101086000130B0070030B13D0030B23D0030B33D15
:101096000130B336B20CB10CB00C890B4C28FF30C2
:1010A6003305031964283F2802302F02031C6628E3
:1010B6000130AF020130B035B10DB20DB30D890B61
:1010C6005E28B21F57282F187028FF30B005FF3052
:1010D600B1057F30B205FF30B3050310AF0C2F0802
:1010E600AA00AB01AC01AD011830AA35AB0DAC0DB1
:1010F600AD0D890B78282A08B0042B08B1042C08FA
:10110600B2042D08B3042E08031DA91F8B28B3179C
:101116003308A9003208A8003108A7003008A60045
:101126000800220023082000E100220022082000F7
:10113600E000220021082000DF0022002008200015
:10114600DE005108E1005008E0004F08DF004E08BD
:10115600DE005E08D2005F08D3006008D400610894
:10116600D5001730D536D40CD30CD20C890BB52844
:10117600FF305205D60000305305D7005608813E91
:10118600DC00FF30573DDD005D08803AD20080303C
:101196005202031DD02817305C02031808002000F5
:1011A600DD1B2D29FF30D200FF30D3007F30D40065
:1011B6000030D5005C0AE328D537D40CD30CD20C0A
:1011C600890BDF285508DB005408DA005308D900DC
:1011D6005208D8005E085805D2005F085905D300AA
:1011E60060085A05D40061085B05D500550854040B
:1011F60053045204031908005E08D2005F08D300A6
:101206006008D4006108D5001F30D536D40CD30C45
:10121600D20C890B082955085404530452040319A7
:101226001C295808DE075908DF3D5A08E03D5B08CF
:10123600E13D5809D2005909D3005A09D4005B0987
:10124600D5005208DE055308DF055408E0055508A9
:10125600E10563295E08D2005F08D3006008D40068
:101266006108D5001F30D536D40CD30CD20C890BAF
:1012760036295508540453045204031D46290030E8
:10128600E10000305E295E08D2005F08D3006008E6
:10129600D4006108D5000130D235D30DD40DD50D5B
:1012A600890B4F2955085404530452040319632922
:1012B600BF30E1008030E0000030DF000030DE00AB
:1012C6006108D1006008D0005F08CF005E08CE003C
:1012D60008002100AF00C201200065082100C600F9
:1012E600200064082100C500200063082100C40016
:1012F600200062082100C30046082000C600210025
:1013060045082000C500210044082000C400210033
:1013160043082000C3000030CA000030C900003076
:10132600C8000030C7009231102289310318C02945
:101336002100C201C20A46082000A3002100450878
:101346002000A200210044082000A100210043083B
:101356002000A0009C313924893120002308210077
:10136600C600200022082100C50020002108210017
:10137600C400200020082100C3002100C701C801C5
:1013860022002D082100B30022002C082100B20003
:1013960042080319D9294208031DD3292B30D42921
:1013A6002D30A6000030A7002608C20046082000FF
:1013B600A300210045082000A200210044082000C7
:1013C600A100210043082000A00091319821893115
:1013D600200020032104031D202A210042080319AE
:1013E600002A42082400A000FF302100B207FF3087
:1013F600B33D0130C7000030C8007F302000A00098
:101406009830A10021004708203E9C31C224893132
:10141600FD302100B207FF30B33D20302000AF0081
:10142600210033082000B100210032082000B0005E
:1014360021002F089E312926080021004608200099
:10144600A300210045082000A20021004408200036
:10145600A100210043082000A00091319821893184
:10146600200020082104031D682A210042080319D0
:10147600482A42082400A000FF302100B207FF30AE
:10148600B33D0130C7000030C80083302000A00003
:101496009830A10021004708203E9C31C2248931A2
:1014A600FD302100B207FF30B33D20302000AF00F1
:1014B600210033082000B100210032082000B000CE
:1014C60021002F089E31292608003F302100CC003C
:1014D6008030CB000030CA000030C900B001B10135
:1014E60046082000A300210045082000A200210094
:1014F60044082000A100210043082000A00000307D
:10150600A7000030A6000030A5000030A4009E31E0
:10151600C6268931031C9D2AAB2B21003708CC0037
:101526003608CB003508CA003408C9000130B007B8
:101536000030B13D41302000AC002030AB0000301F
:10154600AA000030A90021004C082000B0002100AC
:101556004B082000AF0021004A082000AE00210001
:1015660049082000AD008431B424893120002C08BC
:101576002100B70020002B082100B60020002A0811
:101586002100B500200029082100B40034084302D8
:101596002000E70021003508443B2000E800210038
:1015A6003608453B2000E90021003708463B20006D
:1015B600EA006A08A3006908A2006808A100670893
:1015C600A0009C31522489312000A31B902A2308B5
:1015D600031DF72A2208031DF72A2108031DF72AEF
:1015E60002302002031C902A210037082000C60082
:1015F600210036082000C500210035082000C4005F
:10160600210034082000C300210046082000CA003B
:10161600210045082000C900210044082000C80018
:10162600210043082000C700923110228931031C93
:10163600902A2100490843022000E70021004A08B9
:10164600443B2000E80021004B08453B2000E90010
:1016560021004C08463B2000EA006A08A3006908FE
:10166600A2006808A1006708A0009C3152248931B5
:101676002000A31B4B2B2308031D862B2208031DCA
:10168600862B2108031D862B023020020318862B89
:1016960021004C08C6004B08C5004A08C40049088A
:1016A600C300AB2B41302000B7002030B60000301D
:1016B600B5000030B40021004C082000BB0021001A
:1016C6004B082000BA0021004A082000B90021007A
:1016D60049082000B8009331492389312000370892
:1016E6002100CC00200036082100CB002000350860
:1016F6002100CA00200034082100C900FF30B007CD
:10170600FF30B13D1D2B210046082000C6002100F8
:1017160045082000C500210044082000C40021001F
:1017260043082000C30021004C082000CA00210005
:101736004B082000C90021004A082000C8002100EB
:1017460049082000C700923110228931031C552B0D
:10175600200066082100A9002908AA002200AF1B64
:10176600BC2B2F082100A30022002E082100A20076
:10177600C12B06302100A2000030A3002308AE00D2
:101786002208AD000130AD070030AE3D66302A06B6
:10179600031DE12BB11FD92B3F30CC008030CB008D
:1017A6000030CA000030C900B001B1016730290617
:1017B6000319E12B3008AD073108AE3DC001C10168
:1017C6004608BB004508BA004408B9004308B800FB
:1017D6004C08B7004B08B6004A08B5004908B400E3
:1017E6004108803A2000E70021002E08803A2000B8
:1017F6006702031D012C21002D0840020318DB2C73
:1018060021004C082000B70021004B082000B6003C
:1018160021004A082000B500210049082000B40034
:1018260021003B082000BB0021003A082000BA0036
:10183600210039082000B900210038082000B8002E
:1018460093314923893120003708D1003608D0006A
:101856003508CF003408CE00883194208931200025
:1018660051082100BF00200050082100BE002000C2
:101876004F082100BD0020004E082100BC003F0893
:101886002000A30021003E082000A20021003D0800
:101896002000A10021003C082000A000903161201A
:1018A6008931200021082100AC00200020082100F9
:1018B600AB004C082000B00021004B082000AF0010
:1018C60021004A082000AE00210049082000AD0092
:1018D60021003F082000AC0021003E082000AB009C
:1018E60021003D082000AA0021003C082000A90094
:1018F6008431B424893120002C08C6002B08C50089
:101906002A08C4002908C30021003B082000CA0099
:1019160021003A082000C900210039082000C8002B
:10192600210038082000C7009D3114258931200088
:1019360046082100BB00200045082100BA0020000F
:1019460044082100B900200043082100B8004130B6
:101956002000B7002030B6000030B5000030B400DB
:1019660021004C082000BB0021004B082000BA00D3
:1019760021004A082000B900210049082000B800CB
:10198600933149238931200037082100CC002000FB
:1019960036082100CB00200035082100CA002000AF
:1019A60034082100C9000130C0070030C13DF32BC7
:1019B60040302000AC00A030AB000030AA00003060
:1019C600A90021004C082000B00021004B0820008F
:1019D600AF0021004A082000AE002100490820007F
:1019E600AD008431B424893120002C082100BF00C9
:1019F60020002B082100BE0020002A082100BD007F
:101A0600200029082100BC003B082000C600210058
:101A16003A082000C500210039082000C400210032
:101A260038082000C30021003F082000CA0021001A
:101A36003E082000C90021003D082000C800210002
:101A46003C082000C70092311022893103182E2D40
:101A560000302100572D21003B082000A300210063
:101A66003A082000A200210039082000A100210028
:101A760038082000A00021003F082000A700210010
:101A86003E082000A60021003D082000A5002100F8
:101A96003C082000A4009E31C6268931031C5E2D19
:101AA60021002B185E2D0030BF000030BE00003034
:101AB600BD000030BC0021003F082000A30021002B
:101AC6003E082000A20021003D082000A1002100C0
:101AD6003C082000A000210046082000A7002100A5
:101AE60045082000A600210044082000A50021008A
:101AF60043082000A40096314E2689312000230891
:101B06002100BB00200022082100BA002000210885
:101B16002100B900200020082100B8003B08200061
:101B2600C60021003A082000C5002100390820001F
:101B3600C400210038082000C3004130AC0020302A
:101B4600AB000030AA000030A900210037082000B1
:101B5600B000210036082000AF0021003508200023
:101B6600AE00210034082000AD008431B424893150
:101B760020002C08CA002B08C9002A08C80029081A
:101B8600C700923110228931031C022E0130210038
:101B9600B0070030B13D41302000AC002030AB0032
:101BA6000030AA000030A900210037082000B0004C
:101BB600210036082000AF00210035082000AE00C5
:101BC600210034082000AD008431B424893120007E
:101BD6002C082100B70020002B082100B6002000A9
:101BE6002A082100B500200029082100B40066302B
:101BF6002A06031D022E0130AD070030AE3D21003E
:101C06003708CC003608CB003508CA003408C900AE
:101C16003108A1003008A000A801A401A501C00157
:101C2600C101522F21004C082000B70021004B08AB
:101C36002000B60021004A082000B500210049080E
:101C46002000B40021003B082000BB0021003A0818
:101C56002000BA00210039082000B9002100380808
:101C66002000B80093314923893120003708D1007C
:101C76003608D0003508CF003408CE0088319420CD
:101C86008931200051082100BF00200050082100A2
:101C9600BE0020004F082100BD0020004E08210094
:101CA600BC003F082000A30021003E082000A2003F
:101CB60021003D082000A10021003C082000A000D2
:101CC60090316120893120002108803AE700803078
:101CD6006702031D702E0A30200203188E2E210083
:101CE6003F082000A30021003E082000A20021009A
:101CF6003D082000A10021003C082000A0009031F2
:101D060061208931200021082100AC002000200834
:101D16002100AB00932E09302100AB000030AC004F
:101D260028080319A11FA82E4708203E8600023066
:101D360087002E3081000130C7070030C83DFF30D4
:101D4600B207FF30B33DA801A80A240825040319E9
:101D5600C02E4708203E86000230870030308100C2
:101D66000130C7070030C83DFF30B207FF30B33D32
:101D7600FF30A407FF30A53DA82E4708203E860069
:101D8600023087002B08303E81000130C707003043
:101D9600C83DFF30B207FF30B33D4C082000B0000D
:101DA60021004B082000AF0021004A082000AE00A9
:101DB600210049082000AD0021003F082000AC00AA
:101DC60021003E082000AB0021003D082000AA00AB
:101DD60021003C082000A9008431B4248931200068
:101DE6002C08C6002B08C5002A08C4002908C30011
:101DF60021003B082000CA0021003A082000C90043
:101E0600210039082000C800210038082000C7003A
:101E16009D3114258931200046082100BB00200091
:101E260045082100BA00200044082100B90020001E
:101E360043082100B80041302000B7002030B6002A
:101E46000030B5000030B40021004C082000BB0073
:101E560021004B082000BA0021004A082000B900E2
:101E6600210049082000B800933149238931200018
:101E760037082100CC00200036082100CB002000C6
:101E860035082100CA00200034082100C900FF30AF
:101E9600A007FF30A13D0130C0070030C13D410819
:101EA600803A2000E70021002E08803A20006702D1
:101EB600031D602F21002D0840020318702F2100FA
:101EC6004808803A2000E70080306702031D6E2F25
:101ED6004B3021004702031C152E4F302100C00055
:101EE6000030C1004008203E860002308700810194
:101EF60020302000A000210048082000A200210078
:101F060047082000A1002030E700210047082000F4
:101F16006702210040079D31DA25893121004708F3
:101F26004002C7004808413BC800420803199D2FDC
:101F360001309E2F00302000E700E80167082100ED
:101F4600C000200068082100C100FC18CC2FDC2F3F
:101F560021004108803A2000E70021004808803A25
:101F660020006702031DBA2F21004708400203180C
:101F7600DC2FFF302100C707FF30C83D4708203E51
:101F860086000230870030308100FF30B207FF3014
:101F9600B33D4108803A2000E70021003308803A2B
:101FA60020006702031DDA2F210032084002031CBD
:101FB600AB2F210042080319EB2FFF30C707FF3074
:101FC600C83D4708203E860002308700420881004F
:101FD6004008B2024108B33B4708203E2000AF004C
:101FE600210033082000B100210032082000B00093
:0A1FF60021002F089E312926080063
:1020020021009D1408002000AE00AC01AD012E0895
:1020120086008701403FA800413FA90028088400AC
:102022002908850012002A3A031D4A282E08860034
:1020320087010130810741310318810A2608860091
:102042000130870001088400850102308107003FCA
:10205200AC00013FAD005C282B08A800A9012D08A7
:10206200A1002C08A0000A30A2000030A3009C317D
:10207200F8249031200028082007AC002908213DCF
:10208200AD002E0886008701013081074131031817
:10209200810A2E0886008701403FA800413FA9001F
:1020A20028088400290885000008D03EAB000A30C9
:1020B2002B02031C2D282D08A7002C08A6000800BF
:1020C20003102000220D230DA9002908031D7228E8
:1020D2000030A3000030A2000030A1000030A000B8
:1020E20008002008A4002108A5002208A600230851
:1020F200A7001F30A736A60CA50CA40C890B7B28C1
:102102002408A800A217FF30A005FF30A105FF3068
:10211200A2050030A3059630A902A91FA328290809
:10212200803A973E031C69280130A336A20CA10C09
:10213200A00C890B96280130A4002408A9070319D2
:10214200B428952820302902031869282908031980
:10215200B4280130A035A10DA20DA30D890BAB2827
:102162000130A902A728280803190800A009A1091B
:10217200A209A309A00A0319A10A0319A20A0319B1
:10218200A30A0800F5007503031DDD2873087F3ECE
:10219200F8007808F4000430F436890BCD2874086E
:1021A200F60078080F39F70076089C3165249031E3
:1021B20077089C316524080002307506031DF72854
:1021C2007308BF3EF8007808F4000430F436890B37
:1021D200E7287408F60078080F39F70076089C3172
:1021E2006524903177089C31652408000330750618
:1021F200031D11297308933EF8007808F400043097
:10220200F436890B01297408F60078080F39F700B3
:1022120076089C316524903177089C31652408004A
:1022220004307506031D08007308D33EF8007808D1
:10223200F4000430F436890B1B297408F600780880
:102242000F39F70076089C316524903177089C316C
:10225200652408002000A5002503031D4729230843
:102262007F3EA8002808A4000430A436890B362932
:102272002408A60028080F39A70026089C317924D3
:102282009131200027089C3179240800023025066C
:10229200031D62292308BF3EA8002808A4000430B9
:1022A200A436890B51292408A60028080F39A70053
:1022B20026089C3179249131200027089C31792409
:1022C200080003302506031D7D292308933EA8003C
:1022D2002808A4000430A436890B6C292408A6001F
:1022E20028080F39A70026089C3179249131200053
:1022F20027089C317924080004302506031D0800B4
:102302002308D33EA8002808A4000430A436890B71
:1023120087292408A60028080F39A70026089C311F
:1023220079249131200027089C3179240800220069
:1023320027082000AF00220026082000AE0022005D
:1023420025082000AD00220024082000AC0023084C
:10235200AF002208AE002108AD002008AC002C0816
:10236200A4002D08A5002E08A6002F08A7001730EC
:10237200A736A60CA50CA40C890BB929FF3024059D
:10238200AA0000302505AB002A082B04031DE8290A
:102392002C08A4002D08A5002E08A6002F08A700CF
:1023A2000130A435A50DA60DA70D890BD22927084A
:1023B200260425042404031DE3290230A000003072
:1023C200A10008000330A0000030A10008002A0A82
:1023D2002B04031D0B2A2C08A4002D08A5002E088F
:1023E200A6002F08A7000930A435A50DA60DA70D3C
:1023F200890BF5292708260425042404031D032A32
:102402000130042A0030A800A9012808A0002908E8
:10241200A10008000430A0000030A1000800003034
:1024220020004305CB0000304405CC008030450538
:10243200CD007F304605CE004E084D044C044B04BF
:10244200031D2B2A0030C6000030C5000030C40036
:102452000030C30000304705CB0000304805CC00F7
:1024620080304905CD007F304A05CE004E084D042C
:102472004C044B04031D452A0030CA000030C90039
:102482000030C8000030C700C61F5F2A0030CB00F2
:102492000030CC000030CD008030CE004308CB02AB
:1024A2004408CC3B4508CD3B4608CE3B4E08C6000F
:1024B2004D08C5004C08C4004B08C300CA1F792A46
:1024C2000030CB000030CC000030CD008030CE0098
:1024D2004708CB024808CC3B4908CD3B4A08CE3BD3
:1024E2004E08CA004D08C9004C08C8004B08C70076
:1024F2008030C6068030CA064A084602031D08001C
:1025020049084502031D080048084402031D08004B
:102512004708430208002000BB00B71F922A01307F
:10252200932A0030C0002200AF1B9C2AFD302000FD
:10253200B8003808FC052200AF1FA52A0130200090
:10254200BC000030BD00AC2A2F082000BD002200D4
:102552002E082000BC0022002D082000BF0022000F
:102562002C082000BE0040080319C62AFF30BE070F
:10257200FF30BF3D4008031DC02A2B30C12A2D3039
:10258200B9000030BA003908C0004F30C100003035
:10259200C2002400EF01232B200036083704031D5C
:1025A200EA2A3D08803AB80080303802031DDB2A4F
:1025B20001303C020318EA2A20003F08803AB800A2
:1025C20080303802031DE72A01303E020318FC1C4A
:1025D2002F2BFF302000C107FF30C23D4108203EB3
:1025E2008600023087000A30A0000030A1003708C0
:1025F200A3003608A2009E318026923120002108D5
:10260200A8002008A7009C3143249231200027080B
:10261200303E8100FF30BC07FF30BD3DFF30BE07BA
:10262200FF30BF3D0A30A0000030A1003708A300F0
:102632003608A2009F31AE27923120002108B70050
:102642002008B60020004208803AB80080303802E4
:10265200031D2D2B013041020318CD2A2000400812
:1026620003193E2BFF30C107FF30C23D4108203E17
:10267200860002308700400881004108203EAF00FA
:102682003F08B1003E08B0003B089E3129260800F1
:1026920020003B088039C5003B35CC00BA1B4C14E6
:1026A2004C080319622B4C0A031D5F2B0030BB0040
:1026B2000030BA000030B9000030B800BA17BB01D0
:1026C2006A2B0030BB000030BA000030B900003085
:1026D200B80037088039BC003C08C5063735CD0044
:1026E200B61B4D144D080319842B4D0A031D812B73
:1026F2000030B7000030B6000030B5000030B40042
:10270200B617B7018C2B0030B7000030B60000308E
:10271200B5000030B4003708360435043404031D14
:10272200AB2B0030BB000030BA000030B9000030E3
:10273200B8008030BA047F30BB044508BC003C08B6
:10274200BB043B08B7003A08B6003908B5003808A0
:10275200B40008004C08031DB72B0030B70000304E
:10276200B6000030B5000030B40008004C08BC00D0
:10277200BD013D08BF004D083C02BE00031CBF0363
:102782003E087F3EC60000303F3DC7003B08C40004
:102792003A08C3003908C2003808C1000030BB0043
:1027A2000030BA000030B9000030B8000030CB0071
:1027B2000030CA000030C9000030C800CD011A3014
:1027C2004D0203181C2C4D080319FE2B0130C13594
:1027D200C20DC30DC40D890BE82B0130B835B90DFC
:1027E200BA0DBB0D890BEF2BCB1B38140130C8354A
:1027F200C90DCA0DCB0D890BF82B37084402031DF6
:102802000C2C36084302031D0C2C35084202031D12
:102812000C2C34084102031C172C4B173408C1023C
:102822003508C23B3608C33B3708C43B0130BC0005
:102832003C08CD07E02B4408430442044104031D35
:102842004814BA1B392C0130B835B90DBA0DBB0D7D
:10285200890B252CCB1B38140130C835C90DCA0D84
:10286200CB0D890B2E2CFF30C607FF30C73D222C23
:10287200CD01CB1F522CFF304805BC00FF3049056B
:10288200BD00FF304A05BE007F304B05BF003F0848
:102892003E043D043C0403193818502C522CCD013F
:1028A200CD0A4D0803197B2C0130B8070030B93D21
:1028B2000030BA3D0030BB3D3B1C7B2C3808BC00CD
:1028C2003908BD003A08BE003B08BF000130C00015
:1028D200BF37BE0CBD0CBC0CC00B692C3F08BB0043
:1028E2003E08BA003D08B9003C08B8000130C607EE
:1028F2000030C73D4708803ABC0080303C02031DCF
:10290200842CFF304602031C932CFF302000C600AB
:102912000030C7000030BB000030BA000030B90000
:102922000030B80020004708803ABC0080303C02EA
:10293200031D9D2C013046020318AB2C2000C6015A
:10294200C7010030BB000030BA000030B9000030CF
:10295200B800C50120004608CC004C1CB22CBA17A6
:10296200B62C7F30BC003C08BA054C36BB009E2B0F
:102972002100D70020006B0886008701403F21001C
:10298200CD00413FCE004D0884004E088500120064
:10299200253A031D2F2E20006B0886008701013087
:1029A200810741310318810A2200AC01AD010310F5
:1029B200003003180130FC00FF30AE00FF30AF00E2
:1029C2002100D101F12CFC1420006B088600870144
:1029D2000130810741310318810AF12CD101D10A5A
:1029E20021005108031D102D20006B08860087016D
:1029F200403F2100CD00413FCE004D0884004E08EB
:102A020085000008CF00D0015008003A03190A2DB2
:102A1200EF2C4F08303A0319E42CEF2CF12C200054
:102A22006B0886008701403F2100CD00413FCE0068
:102A32004D0884004E08850012002E3A031D382DE1
:102A420020006B088600870101308107413103189D
:102A5200810A6C08A6006B08903104209431200092
:102A620027082200AF00200026082200AE00200026
:102A72006B0886008701403F2100D800413FD90002
:102A820058088400590885001200643A0319512D30
:102A920058088400590885001200693A031D7B2DED
:102AA20020006C088600013087000108840085013F
:102AB20002308107003F2100D200013FD3005808B5
:102AC200013ECD000030593DCE0020006B0886004B
:102AD200870121004D08C03F4E08C13F5308200026
:102AE200B700210052082000B60021005708923199
:102AF2008C22080020006B0886008701403F2100DD
:102B0200D800413FD90058088400590885000008C0
:102B1200D600952D0130D8070030D93DA82D6C3054
:102B2200D600A82DD601A82D5608CD00CE014E08FC
:102B3200003A03199D2D932D4D084C3A03198B2D04
:102B42002A3A0319902D0A3A03198B2D932D58080E
:102B52008400590885001200663A0319D82D252EE3
:102B620020006C088600013087000108840085017E
:102B720004308107003F2100D200013FD300023F11
:102B8200D400033FD62D20006C0886000130870058
:102B920001088400850104308107003F2100D20032
:102BA200013FD300023FD400033FD500E82D560871
:102BB200CD00CE014E08003A0319E02DE82D4D0854
:102BC2004C3A0319C42D203A0319B12DE82D5808A7
:102BD200013ECD000030593DCE0020006B0886003A
:102BE200870121004D08C03F4E08C13F142E5508F1
:102BF2002000E500210054082000E40021005308D1
:102C02002000E300210052082000E20021005808C1
:102C120084005908850000082000E60021005708BA
:102C220089316C2108005808840059088500000881
:102C3200CD00CE014E08003A0319202E252E4D0854
:102C4200663A0319F82D252E20006B0886008701AD
:102C52000130810741310318810A080020006B0806
:102C620086008701403F2100CD00413FCE004D0844
:102C720084004E0885000008CF00D0014F082000D4
:102C8200A000210050082000A100210057082000C8
:102C9200A2009F310F279431252E2000230880396E
:102CA200B0002335B200A21B321432080319672E7A
:102CB200320A031D642E0030A3000030A20000304F
:102CC200A1000030A000A217A3016F2E0030A300C4
:102CD2000030A2000030A1000030A0002708803997
:102CE200B10031083006031D30172735B100A61B8D
:102CF2003114310803198B2E310A031D882E00303E
:102D0200A7000030A6000030A5000030A400A617DE
:102D1200A701932E0030A7000030A6000030A500C6
:102D22000030A400320831020318BB2E301F9D2E42
:102D32008030A8002808B0063208B3003108B2007B
:102D42003308B1002008B3002408A0003308A4000F
:102D52002108B3002508A1003308A5002208B3000A
:102D62002608A2003308A6002308B3002708A30000
:102D72003308A700B3013108A800A9012908AB0054
:102D820032082802AA00031CAB032B08803AAC00CD
:102D920080302C02031DCF2E1A302A02031CFD2E76
:102DA200200023082204210420040319DA2E013012
:102DB200DB2E0030B3000030A3000030A200003050
:102DC200A1000030A0003108B200022F331CED2E0A
:102DD20033360138B300EF2E0310B30C2018B317AB
:102DE2000130A800A337A20CA10CA00CA80BF32E53
:102DF2000130A8002808B207200031083202031C63
:102E0200E72E301B312F3208031D102F0030A30094
:102E12000030A2000030A1000030A0000800240809
:102E2200A0072508A13D2608A23D2708A33D231C93
:102E3200AB2F331C202F33360138B300222F03105F
:102E4200B30C2018B3170130A800A337A20CA10CB1
:102E5200A00CA80B262F0130A8002808B207AB2F20
:102E62002308803AA8002708803A2802031D432F2E
:102E720026082202031D432F25082102031D432F8A
:102E82002408200203187B2FFF30A800FF30A9007E
:102E9200FF30AA00FF30AB0020082402AC0021085A
:102EA200253BAD002208263BAE002308273BAF009E
:102EB2002C08A8072D08A93D2E08AA3D2F08AB3DD6
:102EC2002B08A3002A08A2002908A1002808A000B4
:102ED2008030A8002808B006B309B30A3308031DDE
:102EE200832F0130A0070030A13D0030A23D003009
:102EF200A33D832F2408A0022508A13B2608A23B5C
:102F02002708A33B2308220421042004031DA92F20
:102F12003308031DA92F0030A3000030A2000030A7
:102F2200A1000030A00008000130A035A10DA20DC3
:102F3200A30D890B962FB31B2014331CA22F03144D
:102F4200A32F0310B30D32080319A92F0130B202C7
:102F5200A21F952FB101B31FB62F33087F39031972
:102F62002018B42FB62FB101B10A31080319E22F8C
:102F72000130A0070030A13D0030A23D0030A33D4A
:102F8200231CE22F2008A8002108A9002208AA0079
:102F92002308AB000130AC00AB37AA0CA90CA80C7B
:102FA200AC0BCD2F2B08A3002A08A2002908A100F0
:102FB2002808A000320A0319E22F0130A8002808CD
:102FC200B207320A031D3208031DF22F0030A3009C
:102FD2000030A2000030A1000030A0003208031926
:102FE200B001321CF62FA217FA2F7F30A800280852
:102FF200A2053236A300B01F0800A317080043340D
:103002004C34413456344534203449344E344334FC
:103012004F345234523445344334543441340034FE
:1030220031343A3449344E344734523445345334CB
:1030320041345234203443344C34413456344534D0
:10304200003432343A34433441344D344234493416
:1030520041345234203443344C34413456344534B0
:10306200003443346F346E34743472346F346C34DD
:103072005434653463346834203443344134003486
:1030820043344C344134563445342034433441348F
:103092004D344234493441344434413400342534CB
:1030A2006434253464343A34253464342534643445
:1030B2003A34253464342534643400344134503491
:1030C20052344F344234413444344F340034443463
:1030D20045344E3445344734413444344F3400345B
:1030E200253430342E3432346634DF340034413403
:1030F20043344334453453344F34003469346E34EA
:10310200663400346E3461346E3400344334003437
:1037FA0031343234333434340034640080010131DA
:10380A00890B032C0034031021009D1C0314003083
:10381A00093D080000309C3165249C3101309C31FF
:10382A0065240800C03021009E009B019C010130E4
:10383A009D00080000309C3179249C3101309C3174
:10384A007924080021000D168D160D178D178D107D
:10385A000D118D11080021001C082000A100210073
:10386A001B082000A00008002000230822042104CD
:10387A002004031908008030A30608002000A81FAE
:10388A0008002709A9002809AA00A90A0319AA0AEF
:10389A002908A7002A08A80008002000A31F08007A
:1038AA002009A0002109A1002209A2002309A300DE
:1038BA00A00A0319A10A0319A20A0319A30A0800F4
:1038CA00F20022008E1072089C3190249C31220052
:1038DA000E140630F1003030890B712CF10B712C6B
:1038EA00003222000E1008002000A20022008E10D2
:1038FA00200022089D3174259C3122000E140630C6
:10390A002000A1003030890B882CA10B882C0000E4
:10391A0022000E100800F000701C962C22000F16D0
:10392A00982C22000F12F01C9C2C8F169D2C8F12A3
:10393A00701DA12C0F17A22C0F13F01DA62C8F1788
:10394A0008008F130800F801F90175087807840048
:10395A007608793D85001200031908007508780772
:10396A0084007608793D850000088731D8279C3184
:10397A000130F8070030F93DAA2C2000A5002508DF
:10398A00A4002408860002308700A40A2108A300A4
:10399A002008A200A00A0319A10A22088400230809
:1039AA0085000008C03F890803190800C62C2000BA
:1039BA00A801A9012508280784002608293D8500B1
:1039CA001200031908002508280784002608293D43
:1039DA00850000089D31FE259C3101302000A80792
:1039EA000030A93DDF2C2000A401A501201C012DD7
:1039FA002208A4072308A53D0130A235A30D890B8F
:103A0A00022D0130A136A00C890B072D20082104B4
:103A1A00031DFB2C2508A1002408A0000800803003
:103A2A002000C6064A08A3004908A2004808A100C7
:103A3A004708A0004608A7004508A6004408A500B4
:103A4A004308A40096314E2620002308C600220807
:103A5A00C5002108C4002008C30008002000A800EF
:103A6A00A401A5012008A200A3012208A600230898
:103A7A00A700281C442D2608A4072708A53D0130C5
:103A8A00A635A70D890B452D0310A80C2808031D80
:103A9A003E2D2508A1002408A00008002100DB0013
:103AAA0020006E082100DD0020006D082100DC00E6
:103ABA0021005C0884005D08850012000319702D3E
:103ACA00DC302000EB006F08EC0021005B08943129
:103ADA00B9249D315D2D2000ED01EE010800200082
:103AEA00A000201C7B2D22000F167D2D22000F1214
:103AFA002000A01C832D22008F16852D22008F12F4
:103B0A002000201D8B2D22000F178D2D22000F1350
:103B1A002000A01D932D22008F17080022008F136A
:103B2A0008002000AE00AC01AD012C082E07A90048
:103B3A0029088600023087000108AB002B08031908
:103B4A0008002B08A900AA012908A0002A08A10038
:103B5A002808A2009F310F279D3101302000AC07B1
:103B6A000030AD3D9A2D2200BF00E030C0003F0872
:103B7A00C100C301C401CA01CB0121005F082000B2
:103B8A00EE0021005E082000ED004030EF004130D9
:103B9A009D315325220043083F072100EC006C08A1
:103BAA00860001308700810108002000A500200856
:103BBA00A7002508A6000130A1020030A23B210A75
:103BCA000319220A03190800270886000230870011
:103BDA000108A4000130A3002308A70726088600CD
:103BEA0002308700240881000130A3002308A607B9
:103BFA00E02D2000A40024080F39A2002408F0397F
:103C0A00A30022008E1420002308A1000430A1364C
:103C1A00890B0C2E21089D3174259D3122000E142A
:103C2A000D30890B162E000022000E1020002208EB
:103C3A009D3174259D3122000E140D30890B232EDF
:103C4A00000022000E1008002000B500B11F2F2E20
:103C5A00B001B101B301B4013408803AB2003108AD
:103C6A00803A3202031D3B2E3008330203184D2ED0
:103C7A0020302000A0000030A1003508A2009F31AA
:103C8A000F279E3101302000B3070030B43D312E9A
:103C9A0020003508A8002F089D3196250800F3005A
:103CAA00652E730886000130870001080319712EFA
:103CBA000130F2007208F3070130F2007208F007CF
:103CCA00700886000130870073088400013085007F
:103CDA00000801060319562E730886000130870072
:103CEA00700884000130850000080102F000F1012B
:103CFA00031CF10308002000A601A31F8B2EA209B2
:103D0A00A309A20A0319A30AA601A60AA11F922EB1
:103D1A00A009A109A00A0319A10A2008210403196C
:103D2A00B92EA501A50AA11BA42E0130A035A10D0B
:103D3A00890B9B2E0130A4002408A507982E210880
:103D4A002302031DAA2E20082202031CB02E2008DB
:103D5A00A2022108A33B0130A136A00C890BB12E87
:103D6A000130A502031DA42E26080319C12EA2099B
:103D7A00A309A20A0319A30A2308A1002208A00082
:103D8A000800003020002005A80000302105A90005
:103D9A0080302205AA007F302305AB002B082A04B5
:103DAA0029042804031DE12E0030A3000030A200DC
:103DBA000030A1000030A00000302405A800003027
:103DCA002505A90080302605AA007F302705AB000B
:103DDA002B082A0429042804031DFB2E0030A700FF
:103DEA000030A6000030A5000030A40027082306F2
:103DFA00031D092F26082206031D092F250821065F
:103E0A00031D092F2408200603190D2F031008008B
:103E1A000314080020002208031D2208031D192F7D
:103E2A0020088031032008002208093E860001305C
:103E3A008700160001040319402F2208093E860054
:103E4A0001308700403FA300413FA4002208023E00
:103E5A00860001308700403FA500413FA6002608A2
:103E6A00803AA7002408803A2702031D3E2F230820
:103E7A002502031808002000220886000130870066
:103E8A002208023E84000130850000080107A300D1
:103E9A002308860001308700200881002208023E9C
:103EAA008600013087000130810741310318810AF9
:103EBA00080021008E100E100F128F120F138F138D
:103ECA0000309D3174259F311A302000A300F8304C
:103EDA00890B6D2FA30B6D2F000003309C317924C1
:103EEA009F3107302000A3007D30890B7A2FA30B66
:103EFA007A2F03309C3179249F310F302000A300A0
:103F0A004730890B862FA30B862F003203309C3152
:103F1A0079249F3102309C3179249F3102309C31BF
:103F2A0079249F3108309C3179249F3100309C31AB
:103F3A0079249F310C309C3179249F3100309C3197
:103F4A0079249F3106309C3179249F319C311F247A
:103F5A0008002000A601A11FB92FA009A109A00AE3
:103F6A000319A10AA601A60AA31FC42FA209A3091D
:103F7A00A20A0319A30A0130A4002408A606A7016D
:103F8A00A801200821040319F32FA501A50AA11BE2
:103F9A00D82F0130A035A10D890BCF2F0130A400F5
:103FAA002408A507CC2F0130A735A80D890BD92FD6
:103FBA0021082302031DE32F20082202031CEA2FF3
:103FCA002008A2022108A33B27140130A136A00C25
:103FDA00890BEB2F0130A502031DD82F26080319E0
:103FEA00FB2FA709A809A70A0319A80A2808A100EC
:063FFA002708A0000800EA
:020000040001F9
:04000E00E139FF1EB7
:00000001FF
