:040000008231372AE8
:1000060008007E148031993169218031993172213D
:10001600803122008C110330FB008A30FA00563002
:10002600890B1328FA0B1328FB0B13282C2AF30130
:10003600F30A01309E31922680311130F500983056
:10004600F6009A3108228031F301F30A02309E311C
:10005600922680312230F5009830F6009A31082237
:100066008031913165218031FD007D0803193C28DE
:100076003D282C2A4E2801302200B0000030B10065
:100086005E2802302200B0000030B1005E28220057
:10009600B001B1015E287D08FA00FB017B08003A39
:1000A600031956284A287A08313A03193E28033A92
:1000B600031944284A289931722180312C2AF301E8
:1000C600F30A01309E31922680311330F5009830C4
:1000D600F6009A31082280319128913165218031CC
:1000E600FD007D0803197828792891282200320816
:1000F600383E8600013087007D0881003208073EC1
:10010600F30002309E31922680312A309B310E2335
:10011600803101302200B2070030B33D220033089F
:10012600803AFA0080307A02031D9B28043032029E
:10013600031C9E289F2870280230FB000430FA001A
:10014600BA30890BA428FA0BA428FB0BA42800328A
:10015600FE3024008D0099317221803122008C15E9
:100166005E30F00038309B31B32380317008710463
:10017600031DBE28BF28E8280630F30001309E3153
:10018600922680317830F5009830F6009A310822B0
:1001960080310530F30002309E31922680315F3087
:1001A600F5009830F6009A310822803122000C11B1
:1001B6008E124D30FB001930FA005030890BE128C1
:1001C600FA0BE128FB0BE12812290630F300013077
:1001D6009E31922680317830F5009830F6009A31BB
:1001E600082280310530F30002309E31922680319C
:1001F6006830F5009830F6009A31082280312200E6
:100206008C100E158E161A30FB005E30FA006E301A
:10021600890B0B29FA0B0B29FB0B0B290032220049
:10022600B201B301B001B1019931722180312200CE
:100236000C158C140E118E168D100D118D110E309D
:1002460024008D00270096012C2AF301F30A0130C1
:100256009E31922680311330F5009830F6009A319F
:10026600082280315729913165218031FD007D08B2
:1002760003193E293F29572922003208383E8600B5
:10028600013087007D0881003208073EF300023006
:100296009E31922680312A309B310E2380310130E7
:1002A6002200B2070030B33D22003308803AFA003C
:1002B60080307A02031D612904303202031C64294E
:1002C600652936290230FB000430FA00BA30890B62
:1002D6006A29FA0B6A29FB0B6A290032FE302400D0
:1002E6008D009931722180315E30F00038309B31BB
:1002F600B323803170087104031D82298329F429F0
:10030600F301F30A01309E31922680312430F50044
:100316009830F6009A31082280312200B201B301EA
:100326000E3024008D00B829913165218031FD0001
:100336007D0803199F29A029B829220032085E3EAC
:100346008600013087007D0881003208073EF300F1
:1003560002309E31922680312A309B310E23803125
:1003660001302200B2070030B33D22003308803A44
:10037600FA0080307A02031DC22904303202031CBF
:10038600C529C62997290230FB000430FA00BA3085
:10039600890BCB29FA0BCB29FB0BCB290032FE307C
:1003A60024008D00993172218031F301F30A013066
:1003B6009E31922680314130F5009830F6009A3110
:1003C6000822803122000C118C151030FB003930C8
:1003D600FA000E30890BED29FA0BED29FB0BED29FE
:1003E600062AF301F30A01309E319226803100304D
:1003F600F5009830F6009A310822803122000E1559
:100406008C108C15E8292200B201B301B001B101AC
:1004160099317221803122008D100D118D110E300F
:1004260024008D0022008C158C140C150E11252924
:1004360022003108003A0319212A2C2A3008003AF2
:1004460003191A28013A03196228033A03192829BD
:100456002C2A27001608031D312A322A1B2A2200BD
:100466008C150B107E1009008231392A4F3084001A
:100476009930850022001200DE001200DF00120013
:10048600E0001200E1001200E200FC01FD01210083
:10049600EF0120308400013085001F30993154214E
:1004A6008231A03084000130850014309931542106
:1004B6008231203084000230850050309931542139
:1004C60082317E1020008231682A23008D012100AE
:1004D6008C100C118C110E118E128E150E16220018
:1004E6008C140C158C150E118E16210095130E30DA
:1004F60024008D0021008D1022008D1021000D1189
:1005060022000D1121008D1122008D118B178B11E8
:100516008B15F03027009500960124009516951549
:100526001511951015104F309200993161218231C5
:100536009C31622482319931842182310230220039
:10054600CD000430CC00BA30890BA72ACC0BA72AE1
:10055600CD0BA72A000090310020823199315A2113
:100566008231003A0319B82AB92AB12A99317B2176
:100576008231200021082200BE002000200822002F
:10058600BD0044302000B7008030B6000030B50012
:100596000030B400F430A2000130A30022003E086F
:1005A6002000A10022003D082000A0009A318422EC
:1005B6008231200020082200CC00200021082200E1
:1005C600CD00CE01CF014F082000A90022004E0821
:1005D6002000A80022004D082000A70022004C0899
:1005E6002000A600003087313027823120002908FC
:1005F600BB002808BA002708B9002608B8009431BD
:100606004E248231200037082200AB002000360835
:100616002200AA00200035082200A9002000340884
:100626002200A80002302000A30001309F310727D6
:10063600823132302000A5009830A6009A3125225A
:100646008231240016141618292B2A2B262BD0307B
:10065600910014182F2B302B2C2B1419332B342BE1
:10066600302B91011418382B392B352B14193C2BB0
:100676003D2B392B96149618412B422B3E2BD1300D
:1006860091001418472B482B442B14194B2B4C2B39
:10069600482B9615141C502B512B4D2B110821005D
:1006A600EF00240096121616161A5A2B5B2B572BA0
:1006B6009615141C5F2B602B5C2B11082200B700CB
:1006C600240096121616161A692B6A2B662B961597
:1006D600141C6E2B6F2B6B2B11082200B600240006
:1006E60096161616161A782B792B752B16151619BB
:1006F6007D2B7E2B7A2B50302100DE009830DF00D8
:1007060022003608CC000430CC36890B872B4C08E7
:10071600CD00CE014D082100E00022004E08210048
:10072600E1000F302200CF004F08B6053608D00092
:10073600D10150082100E200220051082100E30007
:1007460022003708D2000430D236890BA72B520874
:10075600D300D40153082100E400220054082100EC
:10076600E5000F302200D5005508B7053708D6003A
:10077600D70156082100E600220057082100E700AD
:100786006F082200D8000430D836890BC72B5808CA
:10079600D900DA0159082100E80022005A08210090
:1007A600E9000F302200DB005B082100EF056F082F
:1007B6002200DC00DD015C082100EA0022005D0861
:1007C6002100EB00A0309A31C72282312000A3011C
:1007D600A30A02309F3107278231A0302000A500EE
:1007E6000130A6009A312522823101302100ED0721
:1007F6000030EE3D6E08803A2200CC0081304C027B
:10080600031D082C2C3021006D02031C0B2C0C2C14
:10081600AE2C90310020823199315A218231003A32
:100826000319162C172C0F2C99317B2182312000AD
:1008360021082200BE00200020082200BD0044300E
:100846002000B7008030B6000030B5000030B4009C
:10085600F430A2000130A30022003E082000A100CF
:1008660022003D082000A0009A3184228231200017
:1008760020082200CC00200021082200CD00CE0155
:10088600CF014F082000A90022004E082000A80032
:1008960022004D082000A70022004C082000A600D8
:1008A600003087313027823120002908BB00280814
:1008B600BA002708B9002608B80094314E248231C0
:1008C600200037082200AB00200036082200AA00CC
:1008D600200035082200A900200034082200A800C4
:1008E6000A302000A30002309F3107278231713081
:1008F6002100DE009830DF0022002B082100E300F3
:1009060022002A082100E200220029082100E10035
:10091600220028082100E000A0309A31C722823147
:10092600A0302000A5000130A6009A312522823190
:1009360010302000A30002309F3107278231873014
:100946002000A5009830A6009A3125228231210088
:10095600ED01EE01E52C0A302000A30002309F31A4
:100966000727823171302100DE009830DF00220037
:100976002B082100E30022002A082100E2002200C1
:1009860029082100E100220028082100E000A0300B
:100996009A31C7228231A0302000A5000130A6007E
:1009A6009A312522823110302000A30002309F3177
:1009B6000727823187302000A5009830A6009A319B
:1009C6002522823106302200CD001330CC00AD3016
:1009D600890BEB2CCC0BEB2CCD0BEB2C0032152B17
:1009E6008231372A20002C088039B6002C35BC000D
:1009F600AB1FFE2CFF2C002D3C143C080319042DC4
:100A0600052D142D3C0A031D092D0A2D122D00302B
:100A1600AC000030AB000030AA000030A900AB17D4
:100A26001C2D0030AC000030AB000030AA000030B6
:100A3600A90030088039B1003108B6063035BB0050
:100A4600AF1F262D272D282D3B143B0803192C2DCF
:100A56002D2D3C2D3B0A031D312D322D3A2D003014
:100A6600B0000030AF000030AE000030AD00AF1770
:100A7600442D0030B0000030AF000030AE00003032
:100A8600AD003B080319482D492D4E2D3C08031D8A
:100A96004D2D4E2D572D0030AC000030AB000030F0
:100AA600AA000030A9002F2F2908A0002F089A318C
:100AB600EA22843120002108C2002008C100410832
:100AC600B100B201B301B4013408BA003308B90069
:100AD6003208B8003108B7004208B100B201B301CC
:100AE600B4013408C0003308BF003208BE00310824
:100AF600BD002A08A0002E089A31EA22843120007F
:100B06002108C2002008C1004108B100B201B301AA
:100B1600B4013108B7073208B83D3308B93D340887
:100B2600BA3D4208B100B201B301B4013108BD07B4
:100B36003208BE3D3308BF3D3408C03D2B08A00037
:100B46002D089A31EA22843120002108C2002008AB
:100B5600C1004108B100B201B301B4013108B707C1
:100B66003208B83D3308B93D3408BA3D4208B100F1
:100B7600B201B301B4013108BD073208BE3D3308E6
:100B8600BF3D3408C03D0830B735B80DB90DBA0DB4
:100B9600890BC72D2A08A0002D089A31EA22843134
:100BA60020002108C2002008C1004108B7074208FA
:100BB600B83D0030B93DBA3D2908A0002E089A314B
:100BC600EA22843120002108C2002008C100410821
:100BD600B7074208B83D0030B93DBA3D0830B735D1
:100BE600B80DB90DBA0D890BF22D2908A0002D08F4
:100BF6009A31EA22843120002108C2002008C1006F
:100C06004108B7074208B83D0030B93DBA3D2A0849
:100C1600A0002F089A31EA22843120002108C20060
:100C26002008C1004108BD074208BE3D0030BF3D57
:100C3600C03D2B08A0002E089A31EA2284312000FC
:100C46002108C2002008C1004108BD074208BE3D78
:100C56000030BF3DC03D2B08A0002F089A31EA2284
:100C6600843120002108C2002008C1004108B100DB
:100C76004208B200B301B4010830B135B20DB30D6C
:100C8600B40D890B402E3108BD073208BE3D33082E
:100C9600BF3D3408C03D3708B1003808B2003908F6
:100CA600B3003A08B4001830B436B30CB20CB10C29
:100CB600890B572E3108BD073208BE3D3308BF3DAC
:100CC6003408C03D0830B735B80DB90DBA0D890BDB
:100CD600662E3C083B07B100B201B20D3108823ED8
:100CE600C100FF30323DC2008F2E0130BD35BE0D32
:100CF600BF0DC00D890B792EBA1F822E832E842E2E
:100D06003D140130B735B80DB90DBA0D890B852ED6
:100D1600FF30C107FF30C23DBF1F922E932E782EA3
:100D2600BB01BA1F972E982EB42EFF303705B1009F
:100D3600FF303805B200FF303905B3007F303A0581
:100D4600B40034083304320431040319AB2EAC2E3C
:100D5600AF2EBB01BB0AB42E3D1CB22EB32EB42E51
:100D6600AC2E3B080319B82EB92EE12E0130BD0773
:100D76000030BE3D0030BF3D0030C03D401CC42E9B
:100D8600C52EE12E3D08B1003E08B2003F08B30073
:100D96004008B4000130B500B437B30CB20CB10C46
:100DA600B50BCF2E3408C0003308BF003208BE0092
:100DB6003108BD000130C1070030C23D4208803A0B
:100DC600B10080303102031DEA2EFF304102031CC0
:100DD600ED2EEE2EF82E7F302000C0008030BF00B2
:100DE6000030BE000030BD00232F20004208803AAC
:100DF600B10080303102031D022F01304102031879
:100E0600052F062F112F00302000C0000030BF0034
:100E16000030BE000030BD00B601232F200041087F
:100E2600BC00FF30BD05FF30BE057F30BF0500307A
:100E3600C0053C1C1F2F202F212FBF173C36C0009A
:100E46003608B1003108C0044008AC003F08AB00CA
:100E56003E08AA003D08A90008002000AE002E08A2
:100E66000319362F372F4B2FA91F3A2F3B2F4B2F06
:100E76002609B0002709B1002809B2002909B300E4
:100E8600B00A0319B10A0319B20A0319B30A532F98
:100E96002908B3002808B2002708B1002608B000C8
:100EA6002908280427042604031D5A2F5B2F642FC4
:100EB6000030A9000030A8000030A7000030A600CE
:100EC600DA2F9630AF00722F0130AA002A08AF073A
:100ED6000130B336B20CB10CB00C890B6C2FFE305E
:100EE6003305031D772F782F672F8C2F0130AA002B
:100EF6002A08AF070130B0070030B13D0030B23DDF
:100F06000030B33D0130B336B20CB10CB00C890BD6
:100F1600862FFF303305031D912F922F792F9C2F9B
:100F26000130AF020130B035B10DB20DB30D890BF2
:100F3600962FB21B9F2FA02FA62F02302F02031829
:100F4600A52FA62F932F2F18A92FAA2FB22FFF3028
:100F5600B005FF30B1057F30B205FF30B305031091
:100F6600AF0C2F08AA00AB01AC01AD011830AA35B1
:100F7600AB0DAC0DAD0D890BBA2F2A08B0042B08AA
:100F8600B1042C08B2042D08B3042E080319CC2F83
:100F9600CD2FD22FA91FD02FD12FD22FB317330881
:100FA600A9003208A8003108A7003008A6000800EA
:100FB6002000AE00AC01AD01F12F2B08A900AA015B
:100FC6002908A0002A08A1002808A2009D310725AB
:100FD600873101302000AC070030AD3D2C082E07CC
:100FE600A90029088600023087000108AB002B08FB
:0A0FF600031DFE2FFF2FE02F08005F
:10100400220023082000E100220022082000E00042
:10101400220021082000DF00220020082000DE003A
:101024005108E1005008E0004F08DF004E08DE00E0
:101034005E08D2005F08D3006008D4006108D500C0
:101044001730D536D40CD30CD20C890B2328FF309F
:101054005205D60000305305D7005608813EDC0007
:10106400FF30573DDD005D08803AD20080305202E7
:10107400031D3E2817305C02031C412842284328E4
:10108400EC282000DD1B47284828A528FF30D20083
:10109400FF30D3007F30D4000030D5005C0A5628DE
:1010A400D537D40CD30CD20C890B52285508DB004D
:1010B4005408DA005308D9005208D8005E085805CD
:1010C400D2005F085905D30060085A05D4006108AE
:1010D4005B05D5005508540453045204031D7328BA
:1010E4007428752842285E08D2005F08D30060087F
:1010F400D4006108D5001F30D536D40CD30CD20CE3
:10110400890B7E28550854045304520403198B2870
:101114008C2894285808DE075908DF3D5A08E03D1A
:101124005B08E13D5809D2005909D3005A09D4009B
:101134005B09D5005208DE055308DF055408E005B5
:101144005508E105E4285E08D2005F08D300600872
:10115400D4006108D5001F30D536D40CD30CD20C82
:10116400890BAE285508540453045204031DBB28AC
:10117400BC28C5280030E1000030E0000030DF006A
:101184000030DE00E4285E08D2005F08D300600867
:10119400D4006108D5000130D235D30DD40DD50D5E
:1011A400890BCE2855085404530452040319DB2830
:1011B400DC28E428BF30E1008030E0000030DF00AC
:1011C4000030DE006108D1006008D0005F08CF0065
:1011D4005E08CE0008002100AF00C20120006508AF
:1011E4002100C600200064082100C5002000630817
:1011F4002100C400200062082100C300460820002A
:10120400C600210045082000C50021004408200034
:10121400C400210043082000C3000030CA0000308D
:10122400C9000030C8000030C70090310320883165
:1012340003181D291E2943292100C201C20A460898
:101244002000A300210045082000A200210044083A
:101254002000A100210043082000A00099318D2125
:101264008831200023082100C60020002208210024
:10127400C500200021082100C4002000200821000E
:10128400C3002100C701C80122002D082100B300BA
:1012940022002C082100B2004208031952295329C4
:1012A40063294208031D572958295D292B30A600BC
:1012B4000030A70061292D30A6000030A7002608C1
:1012C400C20046082000A300210045082000A20017
:1012D400210044082000A100210043082000A000B0
:1012E4009F3181278831200020032104031D7B299D
:1012F4007C29AF29210042080319812982298E29DA
:1013040042082400A000FF302100B207FF30B33DA3
:101314000130C7000030C8007F302000A0009830A2
:10132400A10021004708203E9931EC218831FD308D
:101334002100B207FF30B33D20302000AF00210070
:1013440033082000B100210032082000B000210041
:101354002F089B31E3238831FF2F2100460820000A
:10136400A300210045082000A20021004408200019
:10137400A100210043082000A0009F31812788316B
:10138400200020082104031DC829C929FC292100A3
:1013940042080319CE29CF29DB2942082400A000E2
:1013A400FF302100B207FF30B33D0130C7000030E9
:1013B400C80083302000A0009830A1002100470815
:1013C400203E9931EC218831FD302100B207FF30F5
:1013D400B33D20302000AF00210033082000B100CD
:1013E400210032082000B00021002F089B31E323A4
:1013F4008831FF2F3F302100CC008030CB000030FB
:10140400CA000030C900B001B10146082000A300A1
:10141400210045082000A200210044082000A1006A
:10142400210043082000A0000030A7000030A600DF
:101434000030A5000030A4009C3113248831031827
:10144400242A252A792B332A21003708CC00360890
:10145400CB003508CA003408C9000130B007003099
:10146400B13D41302000AC002030AB000030AA0078
:101474000030A90021004C082000B00021004B08D6
:101484002000AF0021004A082000AE0021004908D6
:101494002000AD008431F524883120002C0821007F
:1014A400B70020002B082100B60020002A082100E4
:1014B400B500200029082100B400340843022000AC
:1014C400E70021003508443B2000E80021003608ED
:1014D400453B2000E90021003708463B2000EA0094
:1014E4006A08A3006908A2006808A1006708A000B0
:1014F4009931BF2188312000A31B8E2A2308031DA4
:101504008F2A2208031D8F2A2108031D8F2A0230E7
:101514002002031C8E2A8F2A262A21003708200045
:10152400C600210036082000C5002100350820002F
:10153400C400210034082000C30021004608200014
:10154400CA00210045082000C900210044082000E9
:10155400C800210043082000C700903103208831CF
:10156400031CB52AB62A262A210049084302200072
:10157400E70021004A08443B2000E80021004B0812
:10158400453B2000E90021004C08463B2000EA00CE
:101594006A08A3006908A2006808A1006708A000FF
:1015A4009931BF2188312000A31BE72A2308031D9A
:1015B400E62A2208031DE62A2108031DE62A023032
:1015C40020020318E62AE72A522B21004C08C60001
:1015D4004B08C5004A08C4004908C300792B4130B0
:1015E4002000B7002030B6000030B5000030B40051
:1015F40021004C082000BB0021004B082000BA0049
:1016040021004A082000B900210049082000B80040
:1016140094314E248831200037082100CC0020006A
:1016240036082100CB00200035082100CA00200024
:1016340034082100C900FF30B007FF30B13D49082C
:1016440043022000E70021004A08443B2000E80050
:1016540021004B08453B2000E90021004C08463B93
:101664002000EA006A08A3006908A2006808A10033
:101674006708A0009931BF2188312000A31B512B9A
:101684002308031D502B2208031D502B2108031D82
:10169400502B023020020318502B512B522BE72AD7
:1016A400210046082000C600210045082000C5008E
:1016B400210044082000C400210043082000C30086
:1016C40021004C082000CA0021004B082000C9005A
:1016D40021004A082000C800210049082000C70052
:1016E400903103208831031C782B792BF12A2000B8
:1016F40066082100A9002908AA002200AF1B832B39
:10170400842B8C2B2F082100A30022002E082100FB
:10171400A200912B06302100A2000030A300230870
:10172400AE002208AD000130AD070030AE3D66309A
:101734002A06031D9E2B9F2BB72BB11FA22BA32B75
:10174400AD2B3F30CC008030CB000030CA000030DD
:10175400C900B001B101673029060319B22BB32BBC
:10176400B72B3008AD073108AE3DC001C1014608B2
:10177400BB004508BA004408B9004308B8004C0847
:10178400B7004B08B6004A08B5004908B400A12CBC
:1017940021004C082000B70021004B082000B600AF
:1017A40021004A082000B500210049082000B400A7
:1017B40021003B082000BB0021003A082000BA00A9
:1017C400210039082000B900210038082000B800A1
:1017D40094314E24883120003708D1003608D000D7
:1017E4003508CF003408CE0088310220883120002B
:1017F40051082100BF00200050082100BE00200035
:101804004F082100BD0020004E082100BC003F0805
:101814002000A30021003E082000A20021003D0872
:101824002000A10021003C082000A0009E312126B8
:101834008831200021082100AC002000200821006C
:10184400AB004C082000B00021004B082000AF0082
:1018540021004A082000AE00210049082000AD0004
:1018640021003F082000AC0021003E082000AB000E
:1018740021003D082000AA0021003C082000A90006
:101884008431F524883120002C08C6002B08C500BB
:101894002A08C4002908C30021003B082000CA000C
:1018A40021003A082000C900210039082000C8009E
:1018B400210038082000C7009A31642288312000B2
:1018C40046082100BB00200045082100BA00200082
:1018D40044082100B900200043082100B800413029
:1018E4002000B7002030B6000030B5000030B4004E
:1018F40021004C082000BB0021004B082000BA0046
:1019040021004A082000B900210049082000B8003D
:1019140094314E248831200037082100CC00200067
:1019240036082100CB00200035082100CA00200021
:1019340034082100C9000130C0070030C13D41080E
:10194400803A2000E70021002E08803A2000670238
:10195400031DAF2C21002D084002031CB22CB32C14
:10196400CA2B40302000AC00A030AB000030AA00ED
:101974000030A90021004C082000B00021004B08D1
:101984002000AF0021004A082000AE0021004908D1
:101994002000AD008431F524883120002C0821007A
:1019A400BF0020002B082100BE0020002A082100CF
:1019B400BD00200029082100BC003B082000C6000F
:1019C40021003A082000C500210039082000C40085
:1019D400210038082000C30021003F082000CA006D
:1019E40021003E082000C90021003D082000C80055
:1019F40021003C082000C7009031032088310318DF
:101A0400042D052D0F2D00302100BF000030BE0035
:101A14000030BD000030BC00432D21003B082000F5
:101A2400A30021003A082000A20021003908200068
:101A3400A100210038082000A00021003F08200058
:101A4400A70021003E082000A60021003D08200038
:101A5400A50021003C082000A4009C3113248831F7
:101A6400031C352D362D432D21002B183A2D3B2DEB
:101A7400432D0030BF000030BE000030BD000030F8
:101A8400BC0021003F082000A30021003E082000E4
:101A9400A20021003D082000A10021003C082000F4
:101AA400A000210046082000A700210045082000CE
:101AB400A600210044082000A500210043082000BE
:101AC400A4009531F8258831200023082100BB00AB
:101AD400200022082100BA00200021082100B900BA
:101AE400200020082100B8003B082000C600210087
:101AF4003A082000C500210039082000C400210054
:101B040038082000C3004130AC002030AB00003066
:101B1400AA000030A900210037082000B0002100ED
:101B240036082000AF00210035082000AE00210057
:101B340034082000AD008431F524883120002C08BD
:101B4400CA002B08C9002A08C8002908C700903118
:101B540003208831031CAF2DB02DEB2D0130210063
:101B6400B0070030B13D41302000AC002030AB0064
:101B74000030AA000030A900210037082000B0007E
:101B8400210036082000AF00210035082000AE00F7
:101B9400210034082000AD008431F5248831200070
:101BA4002C082100B70020002B082100B6002000DB
:101BB4002A082100B500200029082100B40066305D
:101BC4002A06031DE62DE72DEB2D0130AD0700306D
:101BD400AE3D21003708CC003608CB003508CA00DA
:101BE4003408C9003108A1003008A000A801A401EC
:101BF400A501C001C101442F21004C082000B700F9
:101C040021004B082000B60021004A082000B5003E
:101C1400210049082000B40021003B082000BB003B
:101C240021003A082000BA00210039082000B90038
:101C3400210038082000B80094314E248831200057
:101C44003708D1003608D0003508CF003408CE005C
:101C5400883102208831200051082100BF00200073
:101C640050082100BE0020004F082100BD002000C4
:101C74004E082100BC003F082000A30021003E08BC
:101C84002000A20021003D082000A10021003C0802
:101C94002000A0009E312126883120002108803AAE
:101CA400E70080306702031D592E0A302002031812
:101CB4005C2E5D2E792E21003F082000A300210018
:101CC4003E082000A20021003D082000A1002100C0
:101CD4003C082000A0009E312126883120002108E4
:101CE4002100AC00200020082100AB007E2E09302A
:101CF4002100AB000030AC002808031D822E832E87
:101D0400AC2EA11F862E872EAC2E4708203E8600BF
:101D1400023087002E3081000130C7070030C83DF3
:101D2400FF30B207FF30B33DA801A80AAC2E470824
:101D3400203E860002308700303081000130C70722
:101D44000030C83DFF30B207FF30B33DFF30A40779
:101D5400FF30A53D24082504031DB12EB22E992E73
:101D64004708203E8600023087002B08303E810061
:101D74000130C7070030C83DFF30B207FF30B33D24
:101D84004C082000B00021004B082000AF002100C7
:101D94004A082000AE00210049082000AD002100BF
:101DA4003F082000AC0021003E082000AB002100C9
:101DB4003D082000AA0021003C082000A90084312D
:101DC400F524883120002C08C6002B08C5002A08F9
:101DD400C4002908C30021003B082000CA002100D8
:101DE4003A082000C900210039082000C800210059
:101DF40038082000C7009A31642288312000460840
:101E04002100BB00200045082100BA00200044083E
:101E14002100B900200043082100B800413020000F
:101E2400B7002030B6000030B5000030B400210007
:101E34004C082000BB0021004B082000BA00210000
:101E44004A082000B900210049082000B800943154
:101E54004E248831200037082100CC0020003608A9
:101E64002100CB00200035082100CA0020003408DE
:101E74002100C900FF30A007FF30A13D0130C00799
:101E84000030C13D4108803A2000E70021002E08BF
:101E9400803A20006702031D522F21002D084002C2
:101EA4000318552F562F662F21004808803A20002A
:101EB400E70080306702031D622F4B302100470288
:101EC400031C652F662FFE2D4F302100C00000300B
:101ED400C1004008203E8600023087008101203086
:101EE4002000A000210048082000A200210047088B
:101EF4002000A1002030E7002100470820006702ED
:101F0400210040079B3136238831210047084002D5
:101F1400C7004808413BC8004208031D922F942F74
:101F24000130952F00302000E700E8016708210008
:101F3400C000200068082100C100FC1CA22FA32FB0
:101F4400D92FB42FFF302100C707FF30C83D470801
:101F5400203E86000230870030308100FF30B20717
:101F6400FF30B33D4108803A2000E70021003308E8
:101F7400803A20006702031DC22F2100320840026C
:101F84000318C52FC62FD92F21004108803A2000FD
:101F9400E70021004808803A20006702031DD52F7E
:101FA400210047084002031CD82FD92FA42F210059
:101FB40042080319DE2FDF2FEA2FFF30C707FF3057
:101FC400C83D4708203E8600023087004208810051
:101FD4004008B2024108B33B4708203E2000AF004E
:101FE400210033082000B100210032082000B00095
:101FF40021002F089B31E3238831080021009D1420
:102004000800003020004305CB0000304405CC001C
:1020140080304505CD007F304605CE004E084D0486
:102024004C044B04031D1728182820280030C60030
:102034000030C5000030C4000030C3000030470544
:10204400CB0000304805CC0080304905CD007F30FE
:102054004A05CE004E084D044C044B04031D33289E
:1020640034283C280030CA000030C9000030C800C1
:102074000030C700C61F3F28402858280030CB0036
:102084000030CC000030CD008030CE004308CB02BD
:102094004408CC3B4508CD3B4608CE3B4E08C60021
:1020A4004D08C5004C08C4004B08C300CA1F5B2878
:1020B4005C2874280030CB000030CC000030CD0008
:1020C4008030CE004708CB024808CC3B4908CD3BC2
:1020D4004A08CE3B4E08CA004D08C9004C08C80047
:1020E4004B08C7008030C6068030CA064A0846023C
:1020F400031D862849084502031D86284808440212
:10210400031D862847084302031889288A288C2837
:1021140003108D28031408002000BB00B71B93286C
:102124009528013096280030C0002200AF1B9B2860
:102134009C28A128FD302000B8003808FC052200A6
:10214400AF1FA528A628AC2801302000BC00003011
:10215400BD00B3282F082000BD0022002E08200057
:10216400BC0022002D082000BF0022002C08200003
:10217400BE0040080319BF28C028D428FF30BE077A
:10218400FF30BF3D4008031DC828C928CE282B3086
:10219400B9000030BA00D2282D30B9000030BA009E
:1021A4003908C0004F30C1000030C2002400EF01E4
:1021B4001429FF302000C107FF30C23D4108203EF2
:1021C4008600023087000A30A0000030A1003708E2
:1021D400A3003608A2009C31B324903120002108CA
:1021E400A8002008A70099319921903120002708E0
:1021F400303E8100FF30BC07FF30BD3DFF30BE07DD
:10220400FF30BF3D0A30A0000030A1003708A30012
:102214003608A2009D316025903120002108B700C6
:102224002008B60020004208803AB8008030380206
:10223400031D1E2901304102031C2129222948299A
:10224400200036083704031D28292929DB283D08E6
:10225400803AB80080303802031D322901303C0234
:10226400031835293629DB2820003F08803AB800B6
:1022740080303802031D402901303E02031C4329EB
:1022840044294829FC1847294829DB28200040080C
:1022940003194D294E295929FF30C107FF30C23D8A
:1022A4004108203E86000230870040088100410832
:1022B400203EAF003F08B1003E08B0003B089B3110
:1022C400E3239031080020008D140D118D110D1E93
:1022D4006C296D2983290330F0009830890B70290B
:1022E400F00B702920000D1A7829792974290730F8
:1022F400F0007D30890B7C29F00B7C290000313003
:10230400A82A8D1E862987299D290330F00098303C
:10231400890B8A29F00B8A2920008D1A9229932986
:102324008E290730F0007D30890B9629F00B962911
:1023340000003430A82A0D1FA029A129B729033091
:10234400F0009830890BA429F00BA42920000D1B60
:10235400AC29AD29A8290730F0007D30890BB029BC
:10236400F00BB02900003730A82A8D1FBA29BB29E9
:10237400D1290330F0009830890BBE29F00BBE2917
:1023840020008D1BC629C729C2290730F0007D30E3
:10239400890BCA29F00BCA2900002A30A82A8D10FB
:1023A4000D158D110D1ED729D829EE290330F00003
:1023B4009830890BDB29F00BDB2920000D1AE32967
:1023C400E429DF290730F0007D30890BE729F00B81
:1023D400E72900003230A82A8D1EF129F229082AA3
:1023E4000330F0009830890BF529F00BF529200013
:1023F4008D1AFD29FE29F9290730F0007D30890B5B
:10240400012AF00B012A00003530A82A0D1F0B2ADF
:102414000C2A222A0330F0009830890B0F2AF00B83
:102424000F2A20000D1B172A182A132A0730F00040
:102434007D30890B1B2AF00B1B2A00003830A82A98
:102444008D1F252A262A3C2A0330F0009830890B58
:10245400292AF00B292A20008D1B312A322A2D2A01
:102464000730F0007D30890B352AF00B352A000047
:102474003030A82A8D100D118D150D1E422A432AC5
:10248400592A0330F0009830890B462AF00B462A6B
:1024940020000D1A4E2A4F2A4A2A0730F0007D30B8
:1024A400890B522AF00B522A00003330A82A8D1EC1
:1024B4005C2A5D2A732A0330F0009830890B602A65
:1024C400F00B602A20008D1A682A692A642A0730D2
:1024D400F0007D30890B6C2AF00B6C2A000036303A
:1024E400A82A0D1F762A772A8D2A0330F000983007
:1024F400890B7A2AF00B7A2A20000D1B822A832A60
:102504007E2A0730F0007D30890B862AF00B862A5C
:1025140000003930A82A8D1F902A912AA72A033057
:10252400F0009830890B942AF00B942A20008D1B1C
:102534009C2A9D2A982A0730F0007D30890BA02A16
:10254400F00BA02A00002330A82A00300800210044
:10255400D70020006B0886008701403F2100CD0092
:10256400413FCE004D0884004E0885001200253AF4
:10257400031DBD2ABE2A2E2C20006B08860087016D
:102584000130810741310318810A2200AC01AD01F9
:102594000310003003180130FC00FF30AE00FF30A0
:1025A400AF002100D101FE2AFC1420006B08860034
:1025B40087010130810741310318810AFE2AD101C4
:1025C400D10AFE2A20006B0886008701403F2100C3
:1025D400CD00413FCE004D0884004E088500000820
:1025E400CF00D0015008003A0319F92AE12A4F0814
:1025F400303A0319D62AE12A210051080319032B82
:10260400042BE42A20006B0886008701403F210048
:10261400CD00413FCE004D0884004E0885001200D5
:102624002E3A031D162B172B2E2B20006B08860029
:1026340087010130810741310318810A6C08A60023
:102644006B089D31C0259231200027082200AF007D
:10265400200026082200AE0020006B0886008701B7
:10266400403F2100D800413FD90058088400590850
:1026740085001200643A0319402B412B4B2B580858
:102684008400590885001200693A031D4A2B4B2B1C
:10269400762B20006C088600013087000108840036
:1026A400850102308107003F2100D200013FD300A1
:1026B4005808013ECD000030593DCE0020006B0883
:1026C4008600870121004D08C03F4E08C13F5308D2
:1026D4002000B700210052082000B600210057084E
:1026E40090318E2092314D2C20006B08860087019A
:1026F400403F2100D800413FD900580884005908C0
:1027040085000008D600902B0130D8070030D93D51
:10271400A32B6C30D600A32BD601A32B5608CD00D7
:10272400CE014E08003A0319982B8E2B4D084C3AD3
:102734000319862B2A3A03198B2B0A3A0319862B81
:102744008E2B58088400590885001200663A031D30
:10275400AC2BAD2B242CD62B20006C08860001302A
:10276400870001088400850104308107003F2100AF
:10277400D200013FD300023FD400033FD500E62B33
:1027840020006C0886000130870001088400850160
:1027940004308107003F2100D200013FD300023FF3
:1027A400D400033FD500E62B5608CD00CE014E08D9
:1027B400003A0319DE2BE62B4D084C3A0319C22BC1
:1027C400203A0319AE2BE62B5808013ECD00003009
:1027D400593DCE0020006B088600870121004D087A
:1027E400C03F4E08C13F132C55082000E5002100CE
:1027F40054082000E400210053082000E3002100D5
:1028040052082000E200210058088400590885007D
:1028140000082000E600210057088831ED2092319D
:102824004D2C58088400590885000008CD00CE01BD
:102834004E08003A03191F2C242C4D08663A03193C
:10284400F62B242C20006B088600870101308107B9
:1028540041310318810A4D2C20006B088600870142
:10286400403F2100CD00413FCE004D0884004E087A
:1028740085000008CF00D0014F082000A0002100EF
:1028840050082000A100210057082000A2009D311B
:1028940007259231242C080020003B088039C5000C
:1028A4003B35CC00BA1F572C582C592C4C144C08CF
:1028B40003195D2C5E2C6E2C4C0A031D622C632CB8
:1028C4006B2C0030BB000030BA000030B90000307F
:1028D400B800BA17BB01762C0030BB000030BA0038
:1028E4000030B9000030B80037088039BC003C081B
:1028F400C5063735CD00B61F802C812C822C4D1493
:102904004D080319862C872C972C4D0A031D8B2CFC
:102914008C2C942C0030B7000030B6000030B50089
:102924000030B400B617B7019F2C0030B700003058
:10293400B6000030B5000030B40037083604350462
:102944003404031DA62CA72CC02C0030BB0000307F
:10295400BA000030B9000030B8008030BA047F30CB
:10296400BB044508BC003C08BB043B08B7003A085C
:10297400B6003908B5003808B400F72D4C08031D1B
:10298400C42CC52CCE2C0030B7000030B60000306B
:10299400B5000030B400F72D4C08BC00BD013D0863
:1029A400BF004D083C02BE00031CBF033E087F3E2F
:1029B400C60000303F3DC7003B08C4003A08C300CE
:1029C4003908C2003808C1000030BB000030BA002A
:1029D4000030B9000030B8000030CB000030CA002D
:1029E4000030C9000030C800CD01362D4D08031950
:1029F400FC2CFD2C172D0130C135C20DC30DC40DA7
:102A0400890BFE2C0130B835B90DBA0DBB0D890BFD
:102A1400052DCB1F0E2D0F2D102D38140130C83568
:102A2400C90DCA0DCB0D890B112D37084402031DA6
:102A3400252D36084302031D252D35084202031DAA
:102A4400252D34084102031C282D292D322D4B1726
:102A54003408C1023508C23B3608C33B3708C43BBF
:102A64000130BC003C08CD071A304D02031C3B2D3D
:102A74003C2DF82C44084304420441040319432D1B
:102A8400442D5D2D48145D2D0130B835B90DBA0DB6
:102A9400BB0D890B472DCB1F502D512D522D3814B2
:102AA4000130C835C90DCA0DCB0D890B532DFF302C
:102AB400C607FF30C73DBA1F602D612D462DCD01DD
:102AC400CB1F652D662D822DFF304805BC00FF30DD
:102AD4004905BD00FF304A05BE007F304B05BF00ED
:102AE4003F083E043D043C040319792D7A2D7D2DC5
:102AF400CD01CD0A822D381C802D812D822D7A2D79
:102B04004D080319862D872DAF2D0130B8070030ED
:102B1400B93D0030BA3D0030BB3D3B1C922D932D96
:102B2400AF2D3808BC003908BD003A08BE003B0888
:102B3400BF000130C000BF37BE0CBD0CBC0CC00BC5
:102B44009D2D3F08BB003E08BA003D08B9003C0873
:102B5400B8000130C6070030C73D4708803ABC00C2
:102B640080303C02031DB82DFF304602031CBB2DF0
:102B7400BC2DC92DFF302000C6000030C700003036
:102B8400BB000030BA000030B9000030B8002000AB
:102B94004708803ABC0080303C02031DD32D01302D
:102BA40046020318D62DD72DE32D2000C601C701F8
:102BB4000030BB000030BA000030B9000030B8006B
:102BC400C50120004608CC004C1CE92DEA2DEC2D53
:102BD400BA17F02D7F30BC003C08BA054C36BB0058
:102BE4004508BC003C08BB04B72C0800200023089F
:102BF4008039B0002335B200A21F012E022E032E0D
:102C0400321432080319072E082E182E320A031D17
:102C14000C2E0D2E152E0030A3000030A200003023
:102C2400A1000030A000A217A301202E0030A300B1
:102C34000030A2000030A1000030A0002708803935
:102C4400B100310830060319282E292E2A2E3017F8
:102C54002735B100A61F2F2E302E312E3114310806
:102C64000319352E362E462E310A031D3A2E3B2EDD
:102C7400432E0030A7000030A6000030A50000302D
:102C8400A400A617A7014E2E0030A7000030A6000E
:102C94000030A5000030A400320831020318532E7E
:102CA400542E7A2E301F572E582E5C2E8030A800BA
:102CB4002808B0063208B3003108B2003308B10066
:102CC4002008B3002408A0003308A4002108B3009E
:102CD4002508A1003308A5002208B3002608A20095
:102CE4003308A6002308B3002708A3003308A7006D
:102CF400B3013108A800A9012908AB003208280251
:102D0400AA00031CAB032B08803AAC0080302C02D1
:102D1400031D8E2E1A302A02031C912E922EC42ECD
:102D240020002308220421042004031D9A2E9C2E33
:102D340001309D2E0030B3000030A3000030A2000B
:102D44000030A1000030A0003108B200CB2E331CAB
:102D5400AC2EAD2EB12E33360138B300B32E031092
:102D6400B30C201CB62EB72EB82EB3170130A80012
:102D7400A337A20CA10CA00CA80BBA2E0130A800FA
:102D84002808B207200031083202031CCA2ECB2EB9
:102D9400A92E301BCE2ECF2E052F3208031DD32E85
:102DA400D42EDD2E0030A3000030A2000030A1009C
:102DB4000030A000FF2F2408A0072508A13D260805
:102DC400A23D2708A33D231CE82EE92E912F331C96
:102DD400EC2EED2EF12E33360138B300F32E031012
:102DE400B30C201CF62EF72EF82EB3170130A800D2
:102DF400A337A20CA10CA00CA80BFA2E0130A8003A
:102E04002808B207912F2308803AA8002708803A9F
:102E14002802031D172F26082202031D172F250839
:102E24002102031D172F2408200203181A2F1B2F19
:102E3400532FFF30A800FF30A900FF30AA00FF3055
:102E4400AB0020082402AC002108253BAD00220879
:102E5400263BAE002308273BAF002C08A8072D080B
:102E6400A93D2E08AA3D2F08AB3D2B08A3002A0834
:102E7400A2002908A1002808A0008030A800280882
:102E8400B006B309B30A3308031D492F4A2F5B2F39
:102E94000130A0070030A13D0030A23D0030A33D29
:102EA4005B2F2408A0022508A13B2608A23B270883
:102EB400A33B2308220421042004031D622F632F53
:102EC4008D2F3308031D672F682F8D2F0030A3002B
:102ED4000030A2000030A1000030A000FF2F01301C
:102EE400A035A10DA20DA30D890B722FB31F7B2F4B
:102EF4007C2F7D2F2014331C802F812F842F0314CB
:102F0400B30D862F0310B30D320803198A2F8B2FAC
:102F14008D2F0130B202A21F902F912F712FB1017A
:102F2400B31F952F962FA42F33087F3903199B2F96
:102F34009C2F9F2FB101B10AA42F201CA22FA32FD5
:102F4400A42F9C2F31080319A82FA92FD62F0130A5
:102F5400A0070030A13D0030A23D0030A33D231C5A
:102F6400B42FB52FD62F2008A8002108A9002208C5
:102F7400AA002308AB000130AC00AB37AA0CA90CA3
:102F8400A80CAC0BBF2F2B08A3002A08A200290809
:102F9400A1002808A000320A0319D12FD22FD62F5E
:102FA4000130A8002808B207320A0319DA2FDB2FF0
:102FB400E02F3208031DDF2FE02FEE2F0030A30097
:102FC4000030A2000030A1000030A0003208031D30
:102FD400EC2FED2FEE2FB001321CF12FF22FF42F36
:102FE400A217F82F7F30A8002808A2053236A300C4
:102FF400B01FFD2FFE2FFF2FA317080043344C34BE
:10300400413456344534203449344E3443344F34F7
:10301400523452344534433454344134003431341A
:103024003A3449344E3447345234453453344134B9
:103034005234203443344C3441345634453400340F
:1030440032343A34433441344D34423449344134D3
:103054005234203443344C344134563445340034EF
:1030640043346F346E34743472346F346C34543487
:103074006534633468342034433441340034433495
:103084004C344134563445342034433441344D3483
:1030940042344934413444344134003425346434B2
:1030A400253464343A3425346434253464343A346D
:1030B4002534643425346434003441345034523477
:1030C4004F344234413444344F340034443445346E
:1030D4004E3445344734413444344F340034253479
:1030E40030342E3432346634DF34003441344334E3
:1030F4004334453453344F34003469346E346634C5
:0E31040000346E3461346E34003443340034D1
:10329E00313432343334343400346400800101313B
:1032AE00890B55290034031021009D1C0314003096
:1032BE00093D0800C03021009E009B019C01013099
:1032CE009D00080021000D168D160D178D178D10FF
:1032DE000D118D11080000309931AB21993101305B
:1032EE009931AB219931080021001C082000A10062
:1032FE0021001B082000A000080000309931D521C4
:10330E00993101309931D5219931080020002308D7
:10331E002204210420040319952996299829803026
:10332E00A30608002000A81B9D299E299F29AA29D3
:10333E002709A9002809AA00A90A0319AA0A290817
:10334E00A7002A08A8000800F20022008E107208BA
:10335E009A314422993122000E140630F100303099
:10336E00890BB729F10BB729003222000E10080085
:10337E002000A31BC329C429C529D4292009A000D4
:10338E002109A1002209A2002309A300A00A031902
:10339E00A10A0319A20A0319A30A08002000A20019
:1033AE0022008E10200022089B315E2399312200CC
:1033BE000E1406302000A1003030890BE429A10B39
:1033CE00E429000022000E1008002000A5002508A8
:1033DE00A4002408860002308700A40A2108A30056
:1033EE002008A200A00A0319A10A220884002308BB
:1033FE0085000008C03F8908031D062A072AF02908
:10340E000800F801F901192A750878078400760872
:10341E00793D850000089B310E239A310130F80763
:10342E000030F93D7508780784007608793D8500EF
:10343E001200031D232A242A0B2A08002000A801AB
:10344E00A901382A2508280784002608293D850069
:10345E0000089B3188239A3101302000A8070030E4
:10346E00A93D2508280784002608293D850012005D
:10347E00031D422A432A292A0800F000701C482AFC
:10348E00492A4C2A22000F164E2A22000F12F01C37
:10349E00512A522A542A8F16552A8F12701D582AD5
:1034AE00592A5B2A0F175C2A0F13F01D5F2A602A18
:1034BE00622A8F17632A8F13080080302000C606F9
:1034CE004A08A3004908A2004808A1004708A00026
:1034DE004608A7004508A6004408A5004308A40016
:1034EE009531F8259A3120002308C6002208C50020
:1034FE002108C4002008C30008002000A401A50173
:10350E00201C8A2A8B2A8F2A2208A4072308A53D6D
:10351E000130A235A30D890B902A0130A136A00CE3
:10352E00890B952A20082104031D9E2A9F2A872A8B
:10353E002508A1002408A00008002100DB002000BF
:10354E006E082100DD0020006D082100DC00B92A84
:10355E00DC302000EB006F08EC0021005B0892319C
:10356E00A9229A3121005C0884005D0885001200B2
:10357E00031DC22AC32AAF2A2000ED01EE01080066
:10358E002200BF00E030C0003F08C100C301C401EB
:10359E00CA01CB0121005F082000EE0021005E0869
:1035AE002000ED004030EF0041309A31A4229A31D4
:1035BE00220043083F072100EC006C088600013012
:1035CE008700810108002000A800A401A5012008A1
:1035DE00A200A3012208A6002308A700281CF82A8F
:1035EE00F92AFD2A2608A4072708A53D0130A6358D
:1035FE00A70D890BFE2A0310A80C2808031D082B03
:10360E00092BF52A2508A1002408A0000800F400C3
:10361E0074080F39F2007408F039F30022008E148A
:10362E007308F1000430F136890B1A2B71089A31A8
:10363E0044229B3122000E140D30890B242B0000E6
:10364E0022000E1072089A3144229B3122000E1471
:10365E000D30890B302B000022000E1008002000C8
:10366E00A5002008A7002508A600512B27088600D4
:10367E00023087000108A4000130A3002308A70729
:10368E002608860002308700240881000130A3003E
:10369E002308A6070130A1020030A23B210A031D18
:1036AE005C2B220A031D5C2B5D2B3D2B080020009A
:1036BE00A000201C632B642B672B22000F16692B96
:1036CE0022000F122000A01C6D2B6E2B712B2200DE
:1036DE008F16732B22008F122000201D772B782B34
:1036EE007B2B22000F177D2B22000F132000A01D15
:1036FE00812B822B852B22008F17872B22008F1375
:10370E0008002000A40024080F39A2002408F03974
:10371E00A30022008E1420002308A1000430A1363D
:10372E00890B962B21089B315E239B3122000E14B0
:10373E000D30890BA02B000022000E102000220855
:10374E009B315E239B3122000E140D30890BAD2B65
:10375E00000022000E100800F300BD2B0130F20015
:10376E007208F3070130F2007208F0077008860045
:10377E0001308700730884000130850000080106BF
:10378E00031DCA2BCB2BD42B730886000130870068
:10379E000108031DD32BD42BB52B730886000130E3
:1037AE008700700884000130850000080102F000D7
:1037BE00F101031CF10308002000B500B11FE82B36
:1037CE00E92BEB2BB001B101B301B401FD2B20307D
:1037DE002000A0000030A1003508A2009D31072571
:1037EE009B3101302000B3070030B43D3408803ADD
:1037FE00B2003108803A3202031D072C3008330222
:10380E00031C0A2C0B2CEE2B20003508A8002F08C9
:10381E008731DB279B310800003020002005A800EF
:10382E0000302105A90080302205AA007F30230533
:10383E00AB002B082A0429042804031D272C282C4E
:10384E00302C0030A3000030A2000030A100003068
:10385E00A00000302405A80000302505A900803006
:10386E002605AA007F302705AB002B082A04290461
:10387E002804031D432C442C4C2C0030A700003090
:10388E00A6000030A5000030A40027082306031D63
:10389E005A2C26082206031D5A2C25082106031D24
:1038AE005A2C2408200603195D2C5E2C602C031064
:1038BE00612C0314080021008E100E100F128F12AF
:1038CE000F138F1300309B315E239C311A30200072
:1038DE00A300F830890B712CA30B712C0000033060
:1038EE009931D5219C3107302000A3007D30890B02
:1038FE007E2CA30B7E2C03309931D5219C310F30B9
:10390E002000A3004730890B8A2CA30B8A2C00328F
:10391E0003309931D5219C3102309931D5219C311A
:10392E0002309931D5219C3108309931D5219C3105
:10393E0000309931D5219C310C309931D5219C31F3
:10394E0000309931D5219C3106309931D5219C31E9
:10395E00993184219C3108002000A601A31FB82CA8
:10396E00B92CC02CA209A309A20A0319A30AA60105
:10397E00A60AA11FC32CC42CC92CA009A109A00AF8
:10398E000319A10A200821040319CE2CCF2CF82CE0
:10399E00A501A50ADB2C0130A035A10D890BD32C76
:1039AE000130A4002408A507A11FDE2CDF2CD22C89
:1039BE0021082302031DE52C20082202031CE82CFB
:1039CE00E92CED2C2008A2022108A33B0130A136E0
:1039DE00A00C890BEE2C0130A502031DF72CF82C40
:1039EE00DF2C26080319FC2CFD2C022DA209A3099D
:1039FE00A20A0319A30A2308A1002208A0000800A6
:103A0E002000220803190C2D0D2D122D2208031D46
:103A1E00112D122D172D2008803103209D315F2D81
:103A2E002208093E860001308700160001040319A2
:103A3E00212D222D422D2208093E860001308700BD
:103A4E00403FA300413FA4002208023E8600013001
:103A5E008700403FA500413FA6002608803AA700F8
:103A6E002408803A2702031D3E2D23082502031841
:103A7E00412D422D5F2D2000220886000130870047
:103A8E002208023E84000130850000080107A300D1
:103A9E002308860001308700200881002208023E9C
:103AAE008600013087000130810741310318810AF9
:103ABE0008002000A601A11F652D662D6D2DA00901
:103ACE00A109A00A0319A10AA601A60AA31F702D17
:103ADE00712D7A2DA209A309A20A0319A30A013096
:103AEE00A4002408A606A701A80120082104031992
:103AFE00812D822DB12DA501A50A8E2D0130A03567
:103B0E00A10D890B862D0130A4002408A507A11F45
:103B1E00912D922D852D0130A735A80D890B932D52
:103B2E0021082302031D9D2D20082202031CA02D17
:103B3E00A12DA62D2008A2022108A33B2714013097
:103B4E00A136A00C890BA72D0130A502031DB02DA7
:103B5E00B12D922D26080319B52DB62DBB2DA70913
:103B6E00A809A70A0319A80A2808A1002708A00077
:103B7E0008002000AE00AC01AD012E0886008701C2
:103B8E00403FA800413FA90028088400290885006D
:103B9E0012002A3A031DD42DD52D082E2E0886008C
:103BAE0087010130810741310318810A26088600FA
:103BBE000130870001088400850102308107003F33
:103BCE00AC00013FAD001C2E2B08A800A9012D084A
:103BDE00A1002C08A0000A30A2000030A3009A31E8
:103BEE0084229D31200028082007AC002908213DA1
:103BFE00AD002E0886008701013081074131031880
:103C0E00810A2E0886008701403FA800413FA90087
:103C1E0028088400290885000008D03EAB000A3031
:103C2E002B02031C1B2E1C2EEB2D2D08A7002C087F
:103C3E00A600080003102000220D230DA90029085C
:103C4E00031D2A2E2B2E342E0030A3000030A2008E
:103C5E000030A1000030A000912E2008A400210801
:103C6E00A5002208A6002308A7001F30A736A60C21
:103C7E00A50CA40C890B3D2E2408A800A217FF301A
:103C8E00A005FF30A105FF30A2050030A305963038
:103C9E00A902A91F532E542E6C2E2908803A973E46
:103CAE0003185A2E5B2E5C2E2B2E0130A336A20C3F
:103CBE00A10CA00C890B5D2E0130A4002408A907CD
:103CCE00031D6A2E6B2E5C2E812E20302902031CC2
:103CDE00712E722E7C2E2B2E0130A035A10DA20D31
:103CEE00A30D890B742E0130A9022908031D802E05
:103CFE00812E732E28080319852E862E912EA0094B
:103D0E00A109A209A309A00A0319A10A0319A20A6B
:103D1E000319A30A0800F5007503031D972E982EAC
:103D2E00AF2E73087F3EF8007808F4000430F436A6
:103D3E00890B9E2E7408F60078080F39F700760866
:103D4E009931AB219E3177089931AB219E31062FE7
:103D5E0002307506031DB42EB52ECC2E7308BF3E51
:103D6E00F8007808F4000430F436890BBB2E740882
:103D7E00F60078080F39F70076089931AB219E319D
:103D8E0077089931AB219E31062F03307506031D3E
:103D9E00D12ED22EE92E7308933EF8007808F40047
:103DAE000430F436890BD82E7408F60078080F39D3
:103DBE00F70076089931AB219E3177089931AB2106
:103DCE009E31062F04307506031DEE2EEF2E062FA4
:103DDE007308D33EF8007808F4000430F436890BEB
:103DEE00F52E7408F60078080F39F7007608993129
:103DFE00AB219E3177089931AB219E31062F0800F9
:103E0E002000A5002503031D0D2F0E2F262F23089E
:103E1E007F3EA8002808A4000430A436890B142F76
:103E2E002408A60028080F39A70026089931D521A5
:103E3E009F31200027089931D5219F31802F0230E4
:103E4E002506031D2B2F2C2F442F2308BF3EA80021
:103E5E002808A4000430A436890B322F2408A600AB
:103E6E0028080F39A70026089931D5219F31200047
:103E7E0027089931D5219F31802F03302506031D48
:103E8E00492F4A2F622F2308933EA8002808A4002A
:103E9E000430A436890B502F2408A60028080F39A9
:103EAE00A70026089931D5219F3120002708993186
:103EBE00D5219F31802F04302506031D672F682FD3
:103ECE00802F2308D33EA8002808A4000430A4366F
:103EDE00890B6E2F2408A60028080F39A700260884
:103EEE009931D5219F31200027089931D5219F3155
:103EFE00802F0800220027082000AF00220026088D
:103F0E002000AE00220025082000AD00220024086B
:103F1E002000AC002308AF002208AE002108AD003F
:103F2E002008AC002C08A4002D08A5002E08A60021
:103F3E002F08A7001730A736A60CA50CA40C890BCA
:103F4E00A22FFF302405AA0000302505AB002A0859
:103F5E002B04031DB32FB42FD52F2C08A4002D082E
:103F6E00A5002E08A6002F08A7000130A435A50D28
:103F7E00A60DA70D890BBD2F2708260425042404A2
:103F8E00031DCA2FCB2FD02F0230A0000030A1006E
:103F9E00FF2F0330A0000030A100FF2F2A0A2B04B0
:103FAE00031DDA2FDB2FFB2F2C08A4002D08A500F4
:103FBE002E08A6002F08A7000930A435A50DA60DC2
:103FCE00A70D890BE42F27082604250424040319C2
:103FDE00F12FF32F0130F42F0030A800A90128088B
:103FEE00A0002908A100FF2F0430A0000030A1007E
:023FFE000800B9
:020000040001F9
:04000E00E139FF1EB7
:00000001FF
